{
  "contractName": "AdminRole",
  "abi": [
    {
      "inputs": [],
      "stateMutability": "nonpayable",
      "type": "constructor"
    },
    {
      "anonymous": false,
      "inputs": [
        {
          "indexed": true,
          "internalType": "address",
          "name": "account",
          "type": "address"
        }
      ],
      "name": "AdminAdded",
      "type": "event"
    },
    {
      "anonymous": false,
      "inputs": [
        {
          "indexed": true,
          "internalType": "address",
          "name": "account",
          "type": "address"
        }
      ],
      "name": "AdminRemoved",
      "type": "event"
    },
    {
      "inputs": [],
      "name": "isOwner",
      "outputs": [
        {
          "internalType": "bool",
          "name": "",
          "type": "bool"
        }
      ],
      "stateMutability": "view",
      "type": "function"
    },
    {
      "inputs": [],
      "name": "owner",
      "outputs": [
        {
          "internalType": "address",
          "name": "",
          "type": "address"
        }
      ],
      "stateMutability": "view",
      "type": "function"
    },
    {
      "inputs": [
        {
          "internalType": "address",
          "name": "_account",
          "type": "address"
        }
      ],
      "name": "isAdmin",
      "outputs": [
        {
          "internalType": "bool",
          "name": "",
          "type": "bool"
        }
      ],
      "stateMutability": "view",
      "type": "function"
    },
    {
      "inputs": [],
      "name": "admins",
      "outputs": [
        {
          "internalType": "address[]",
          "name": "",
          "type": "address[]"
        }
      ],
      "stateMutability": "view",
      "type": "function"
    },
    {
      "inputs": [
        {
          "internalType": "address",
          "name": "_account",
          "type": "address"
        }
      ],
      "name": "addAdmin",
      "outputs": [],
      "stateMutability": "nonpayable",
      "type": "function"
    },
    {
      "inputs": [
        {
          "internalType": "address",
          "name": "_account",
          "type": "address"
        }
      ],
      "name": "removeAdmin",
      "outputs": [],
      "stateMutability": "nonpayable",
      "type": "function"
    }
  ],
  "bytecode": "0x60806040523480156200001157600080fd5b50336000806101000a81548173ffffffffffffffffffffffffffffffffffffffff021916908373ffffffffffffffffffffffffffffffffffffffff16021790555062000063336200006960201b60201c565b620004ec565b62000084816001620000ca60201b6200027f1790919060201c565b8073ffffffffffffffffffffffffffffffffffffffff167f44d6d25963f097ad14f29f06854a01f575648a1ef82f30e562ccd3889717e33960405160405180910390a250565b620000dc8282620001e360201b60201c565b156200011f576040517f08c379a000000000000000000000000000000000000000000000000000000000815260040162000116906200038f565b60405180910390fd5b81600101819080600181540180825580915050600190039060005260206000200160009091909190916101000a81548173ffffffffffffffffffffffffffffffffffffffff021916908373ffffffffffffffffffffffffffffffffffffffff160217905550600182600101805490506200019a9190620003ea565b8260000160008373ffffffffffffffffffffffffffffffffffffffff1673ffffffffffffffffffffffffffffffffffffffff168152602001908152602001600020819055505050565b60008073ffffffffffffffffffffffffffffffffffffffff168273ffffffffffffffffffffffffffffffffffffffff16141562000257576040517f08c379a00000000000000000000000000000000000000000000000000000000081526004016200024e906200049b565b60405180910390fd5b60008360010180549050141562000272576000905062000328565b8173ffffffffffffffffffffffffffffffffffffffff16836001018460000160008573ffffffffffffffffffffffffffffffffffffffff1673ffffffffffffffffffffffffffffffffffffffff1681526020019081526020016000205481548110620002e357620002e2620004bd565b5b9060005260206000200160009054906101000a900473ffffffffffffffffffffffffffffffffffffffff1673ffffffffffffffffffffffffffffffffffffffff161490505b92915050565b600082825260208201905092915050565b7f526f6c65733a206163636f756e7420616c72656164792068617320726f6c6500600082015250565b600062000377601f836200032e565b915062000384826200033f565b602082019050919050565b60006020820190508181036000830152620003aa8162000368565b9050919050565b6000819050919050565b7f4e487b7100000000000000000000000000000000000000000000000000000000600052601160045260246000fd5b6000620003f782620003b1565b91506200040483620003b1565b9250828210156200041a5762000419620003bb565b5b828203905092915050565b7f526f6c65733a206163636f756e742061646472657373206973206e6f7420766160008201527f6c69640000000000000000000000000000000000000000000000000000000000602082015250565b6000620004836023836200032e565b9150620004908262000425565b604082019050919050565b60006020820190508181036000830152620004b68162000474565b9050919050565b7f4e487b7100000000000000000000000000000000000000000000000000000000600052603260045260246000fd5b610e2f80620004fc6000396000f3fe608060405234801561001057600080fd5b50600436106100625760003560e01c80631785f53c1461006757806324d7806c1461008357806370480275146100b35780638da5cb5b146100cf5780638f32d59b146100ed578063a5de36191461010b575b600080fd5b610081600480360381019061007c919061092b565b610129565b005b61009d6004803603810190610098919061092b565b61017d565b6040516100aa9190610973565b60405180910390f35b6100cd60048036038101906100c8919061092b565b61019a565b005b6100d76101ee565b6040516100e4919061099d565b60405180910390f35b6100f5610217565b6040516101029190610973565b60405180910390f35b61011361026e565b6040516101209190610a76565b60405180910390f35b6101323361017d565b610171576040517f08c379a000000000000000000000000000000000000000000000000000000000815260040161016890610b1b565b60405180910390fd5b61017a8161038b565b50565b600061019382600161045490919063ffffffff16565b9050919050565b6101a33361017d565b6101e2576040517f08c379a00000000000000000000000000000000000000000000000000000000081526004016101d990610b1b565b60405180910390fd5b6101eb81610597565b50565b60008060009054906101000a900473ffffffffffffffffffffffffffffffffffffffff16905090565b60008060009054906101000a900473ffffffffffffffffffffffffffffffffffffffff1673ffffffffffffffffffffffffffffffffffffffff163373ffffffffffffffffffffffffffffffffffffffff1614905090565b606061027a60016105f1565b905090565b6102898282610454565b156102c9576040517f08c379a00000000000000000000000000000000000000000000000000000000081526004016102c090610b87565b60405180910390fd5b81600101819080600181540180825580915050600190039060005260206000200160009091909190916101000a81548173ffffffffffffffffffffffffffffffffffffffff021916908373ffffffffffffffffffffffffffffffffffffffff160217905550600182600101805490506103429190610be0565b8260000160008373ffffffffffffffffffffffffffffffffffffffff1673ffffffffffffffffffffffffffffffffffffffff168152602001908152602001600020819055505050565b3373ffffffffffffffffffffffffffffffffffffffff168173ffffffffffffffffffffffffffffffffffffffff1614156103fa576040517f08c379a00000000000000000000000000000000000000000000000000000000081526004016103f190610c86565b60405180910390fd5b61040e81600161068390919063ffffffff16565b8073ffffffffffffffffffffffffffffffffffffffff167fa3b62bc36326052d97ea62d63c3d60308ed4c3ea8ac079dd8499f1e9c4f80c0f60405160405180910390a250565b60008073ffffffffffffffffffffffffffffffffffffffff168273ffffffffffffffffffffffffffffffffffffffff1614156104c5576040517f08c379a00000000000000000000000000000000000000000000000000000000081526004016104bc90610d18565b60405180910390fd5b6000836001018054905014156104de5760009050610591565b8173ffffffffffffffffffffffffffffffffffffffff16836001018460000160008573ffffffffffffffffffffffffffffffffffffffff1673ffffffffffffffffffffffffffffffffffffffff168152602001908152602001600020548154811061054c5761054b610d38565b5b9060005260206000200160009054906101000a900473ffffffffffffffffffffffffffffffffffffffff1673ffffffffffffffffffffffffffffffffffffffff161490505b92915050565b6105ab81600161027f90919063ffffffff16565b8073ffffffffffffffffffffffffffffffffffffffff167f44d6d25963f097ad14f29f06854a01f575648a1ef82f30e562ccd3889717e33960405160405180910390a250565b60608160010180548060200260200160405190810160405280929190818152602001828054801561067757602002820191906000526020600020905b8160009054906101000a900473ffffffffffffffffffffffffffffffffffffffff1673ffffffffffffffffffffffffffffffffffffffff168152602001906001019080831161062d575b50505050509050919050565b61068d8282610454565b6106cc576040517f08c379a00000000000000000000000000000000000000000000000000000000081526004016106c390610dd9565b60405180910390fd5b60008260010160016106dd856108b7565b6106e79190610be0565b815481106106f8576106f7610d38565b5b9060005260206000200160009054906101000a900473ffffffffffffffffffffffffffffffffffffffff16905060008360000160008473ffffffffffffffffffffffffffffffffffffffff1673ffffffffffffffffffffffffffffffffffffffff168152602001908152602001600020549050808460000160008473ffffffffffffffffffffffffffffffffffffffff1673ffffffffffffffffffffffffffffffffffffffff16815260200190815260200160002081905550818460010182815481106107c8576107c7610d38565b5b9060005260206000200160006101000a81548173ffffffffffffffffffffffffffffffffffffffff021916908373ffffffffffffffffffffffffffffffffffffffff1602179055508360000160008473ffffffffffffffffffffffffffffffffffffffff1673ffffffffffffffffffffffffffffffffffffffff1681526020019081526020016000206000905560006001856001018054905061086b9190610be0565b905084600101818154811061088357610882610d38565b5b9060005260206000200160006101000a81549073ffffffffffffffffffffffffffffffffffffffff02191690555050505050565b600081600101805490509050919050565b600080fd5b600073ffffffffffffffffffffffffffffffffffffffff82169050919050565b60006108f8826108cd565b9050919050565b610908816108ed565b811461091357600080fd5b50565b600081359050610925816108ff565b92915050565b600060208284031215610941576109406108c8565b5b600061094f84828501610916565b91505092915050565b60008115159050919050565b61096d81610958565b82525050565b60006020820190506109886000830184610964565b92915050565b610997816108ed565b82525050565b60006020820190506109b2600083018461098e565b92915050565b600081519050919050565b600082825260208201905092915050565b6000819050602082019050919050565b6109ed816108ed565b82525050565b60006109ff83836109e4565b60208301905092915050565b6000602082019050919050565b6000610a23826109b8565b610a2d81856109c3565b9350610a38836109d4565b8060005b83811015610a69578151610a5088826109f3565b9750610a5b83610a0b565b925050600181019050610a3c565b5085935050505092915050565b60006020820190508181036000830152610a908184610a18565b905092915050565b600082825260208201905092915050565b7f41646d696e526f6c653a2063616c6c657220646f6573206e6f7420686176652060008201527f7468652061646d696e20726f6c65000000000000000000000000000000000000602082015250565b6000610b05602e83610a98565b9150610b1082610aa9565b604082019050919050565b60006020820190508181036000830152610b3481610af8565b9050919050565b7f526f6c65733a206163636f756e7420616c72656164792068617320726f6c6500600082015250565b6000610b71601f83610a98565b9150610b7c82610b3b565b602082019050919050565b60006020820190508181036000830152610ba081610b64565b9050919050565b6000819050919050565b7f4e487b7100000000000000000000000000000000000000000000000000000000600052601160045260246000fd5b6000610beb82610ba7565b9150610bf683610ba7565b925082821015610c0957610c08610bb1565b5b828203905092915050565b7f41646d696e526f6c653a2063616c6c65722063616e206e6f742072656e6f756e60008201527f636520697473656c660000000000000000000000000000000000000000000000602082015250565b6000610c70602983610a98565b9150610c7b82610c14565b604082019050919050565b60006020820190508181036000830152610c9f81610c63565b9050919050565b7f526f6c65733a206163636f756e742061646472657373206973206e6f7420766160008201527f6c69640000000000000000000000000000000000000000000000000000000000602082015250565b6000610d02602383610a98565b9150610d0d82610ca6565b604082019050919050565b60006020820190508181036000830152610d3181610cf5565b9050919050565b7f4e487b7100000000000000000000000000000000000000000000000000000000600052603260045260246000fd5b7f526f6c65733a206163636f756e7420646f6573206e6f74206861766520726f6c60008201527f6500000000000000000000000000000000000000000000000000000000000000602082015250565b6000610dc3602183610a98565b9150610dce82610d67565b604082019050919050565b60006020820190508181036000830152610df281610db6565b905091905056fea26469706673582212204255d56522183d453294db0680dbae3b83afb7c14d0dd4b7a55fa1613eec709764736f6c634300080a0033",
  "immutableReferences": {},
  "source": "// SPDX-License-Identifier: GPL-3.0\npragma solidity >=0.8.0 <0.9.0;\n\nimport \"../Roles.sol\";\nimport \"../../ownership/Ownable.sol\";\n\n\ncontract AdminRole is Ownable {\n    using Roles for Roles.Role;\n\n    event AdminAdded(address indexed account);\n    event AdminRemoved(address indexed account);\n\n    Roles.Role private _admins;\n\n    modifier onlyAdmin() {\n        require(\n            isAdmin(msg.sender),\n            \"AdminRole: caller does not have the admin role\"\n        );\n        _;\n    }\n\n    constructor()  {\n        _internalAddAdmin(msg.sender);\n    }\n\n    function isAdmin(address _account) public view returns (bool) {\n        return _admins.has(_account);\n    }\n\n    function admins() public view returns (address[] memory) {\n        return _admins.bearers();\n    }\n\n    function addAdmin(address _account) public onlyAdmin {\n        _internalAddAdmin(_account);\n    }\n\n    function removeAdmin(address _account) public onlyAdmin {\n        _internalRemoveAdmin(_account);\n    }\n\n    function _internalAddAdmin(address _account) internal {\n        _admins.add(_account);\n        emit AdminAdded(_account);\n    }\n\n    function _internalRemoveAdmin(address _account) internal {\n        require(\n            _account != msg.sender,\n            \"AdminRole: caller can not renounce itself\"\n        );\n        _admins.remove(_account);\n        emit AdminRemoved(_account);\n    }\n}\n",
  "sourcePath": "/mnt/c/Users/ptars/Learn/Blockchain/Consensys/Bootcamp2021/Final Project/code/ptarso.bike.factory/contracts/access/roles/AdminRole.sol",
  "compiler": {
    "name": "solc",
    "version": "0.8.10+commit.fc410830.Emscripten.clang"
  },
  "schemaVersion": "3.4.4",
  "updatedAt": "2022-01-08T17:47:39.078Z",
  "devdoc": {
    "kind": "dev",
    "methods": {},
    "version": 1
  },
  "userdoc": {
    "kind": "user",
    "methods": {},
    "version": 1
  }
}