{
  "contractName": "BikeTypeModel",
  "abi": [
    {
      "inputs": [],
      "stateMutability": "nonpayable",
      "type": "constructor"
    },
    {
      "anonymous": false,
      "inputs": [
        {
          "indexed": true,
          "internalType": "uint256",
          "name": "bikeType",
          "type": "uint256"
        },
        {
          "indexed": false,
          "internalType": "string",
          "name": "_type",
          "type": "string"
        }
      ],
      "name": "AddedBikeType",
      "type": "event"
    },
    {
      "inputs": [],
      "name": "isOwner",
      "outputs": [
        {
          "internalType": "bool",
          "name": "",
          "type": "bool"
        }
      ],
      "stateMutability": "view",
      "type": "function"
    },
    {
      "inputs": [],
      "name": "owner",
      "outputs": [
        {
          "internalType": "address",
          "name": "",
          "type": "address"
        }
      ],
      "stateMutability": "view",
      "type": "function"
    },
    {
      "inputs": [
        {
          "internalType": "string",
          "name": "bikeType",
          "type": "string"
        }
      ],
      "name": "addType",
      "outputs": [
        {
          "internalType": "uint256",
          "name": "id",
          "type": "uint256"
        }
      ],
      "stateMutability": "nonpayable",
      "type": "function"
    },
    {
      "inputs": [
        {
          "internalType": "uint256",
          "name": "id",
          "type": "uint256"
        }
      ],
      "name": "getTypeById",
      "outputs": [
        {
          "internalType": "string",
          "name": "name",
          "type": "string"
        }
      ],
      "stateMutability": "view",
      "type": "function"
    },
    {
      "inputs": [
        {
          "internalType": "uint256",
          "name": "bikeType",
          "type": "uint256"
        }
      ],
      "name": "hasType",
      "outputs": [
        {
          "internalType": "bool",
          "name": "has",
          "type": "bool"
        }
      ],
      "stateMutability": "view",
      "type": "function"
    }
  ],
  "bytecode": "0x608060405234801561001057600080fd5b50336000806101000a81548173ffffffffffffffffffffffffffffffffffffffff021916908373ffffffffffffffffffffffffffffffffffffffff160217905550600180600181540180825580915050600190039060005260206000200160006040518060400160405280600981526020017f556e646566696e65640000000000000000000000000000000000000000000000815250909190915090805190602001906100be9291906100c4565b506101c8565b8280546100d090610196565b90600052602060002090601f0160209004810192826100f25760008555610139565b82601f1061010b57805160ff1916838001178555610139565b82800160010185558215610139579182015b8281111561013857825182559160200191906001019061011d565b5b509050610146919061014a565b5090565b5b8082111561016357600081600090555060010161014b565b5090565b7f4e487b7100000000000000000000000000000000000000000000000000000000600052602260045260246000fd5b600060028204905060018216806101ae57607f821691505b602082108114156101c2576101c1610167565b5b50919050565b6108f3806101d76000396000f3fe608060405234801561001057600080fd5b50600436106100575760003560e01c8063722cb0c31461005c5780638da5cb5b1461008c5780638f32d59b146100aa578063b6aa9916146100c8578063e7f08e69146100f8575b600080fd5b6100766004803603810190610071919061043c565b610128565b6040516100839190610484565b60405180910390f35b610094610145565b6040516100a191906104e0565b60405180910390f35b6100b261016e565b6040516100bf9190610484565b60405180910390f35b6100e260048036038101906100dd919061043c565b6101c5565b6040516100ef9190610594565b60405180910390f35b610112600480360381019061010d91906106eb565b610275565b60405161011f9190610743565b60405180910390f35b60008160018054905011801561013e5750600082115b9050919050565b60008060009054906101000a900473ffffffffffffffffffffffffffffffffffffffff16905090565b60008060009054906101000a900473ffffffffffffffffffffffffffffffffffffffff1673ffffffffffffffffffffffffffffffffffffffff163373ffffffffffffffffffffffffffffffffffffffff1614905090565b6060600182815481106101db576101da61075e565b5b9060005260206000200180546101f0906107bc565b80601f016020809104026020016040519081016040528092919081815260200182805461021c906107bc565b80156102695780601f1061023e57610100808354040283529160200191610269565b820191906000526020600020905b81548152906001019060200180831161024c57829003601f168201915b50505050509050919050565b600061027f61016e565b6102be576040517f08c379a00000000000000000000000000000000000000000000000000000000081526004016102b59061083a565b60405180910390fd5b6001829080600181540180825580915050600190039060005260206000200160009091909190915090805190602001906102f992919061034f565b506001808054905061030b9190610889565b7f775f0bedea302366da4f840798b787d49a486af6d7a75c52d8b306a50e6812688360405161033a9190610594565b60405180910390a26001805490509050919050565b82805461035b906107bc565b90600052602060002090601f01602090048101928261037d57600085556103c4565b82601f1061039657805160ff19168380011785556103c4565b828001600101855582156103c4579182015b828111156103c35782518255916020019190600101906103a8565b5b5090506103d191906103d5565b5090565b5b808211156103ee5760008160009055506001016103d6565b5090565b6000604051905090565b600080fd5b600080fd5b6000819050919050565b61041981610406565b811461042457600080fd5b50565b60008135905061043681610410565b92915050565b600060208284031215610452576104516103fc565b5b600061046084828501610427565b91505092915050565b60008115159050919050565b61047e81610469565b82525050565b60006020820190506104996000830184610475565b92915050565b600073ffffffffffffffffffffffffffffffffffffffff82169050919050565b60006104ca8261049f565b9050919050565b6104da816104bf565b82525050565b60006020820190506104f560008301846104d1565b92915050565b600081519050919050565b600082825260208201905092915050565b60005b8381101561053557808201518184015260208101905061051a565b83811115610544576000848401525b50505050565b6000601f19601f8301169050919050565b6000610566826104fb565b6105708185610506565b9350610580818560208601610517565b6105898161054a565b840191505092915050565b600060208201905081810360008301526105ae818461055b565b905092915050565b600080fd5b600080fd5b7f4e487b7100000000000000000000000000000000000000000000000000000000600052604160045260246000fd5b6105f88261054a565b810181811067ffffffffffffffff82111715610617576106166105c0565b5b80604052505050565b600061062a6103f2565b905061063682826105ef565b919050565b600067ffffffffffffffff821115610656576106556105c0565b5b61065f8261054a565b9050602081019050919050565b82818337600083830152505050565b600061068e6106898461063b565b610620565b9050828152602081018484840111156106aa576106a96105bb565b5b6106b584828561066c565b509392505050565b600082601f8301126106d2576106d16105b6565b5b81356106e284826020860161067b565b91505092915050565b600060208284031215610701576107006103fc565b5b600082013567ffffffffffffffff81111561071f5761071e610401565b5b61072b848285016106bd565b91505092915050565b61073d81610406565b82525050565b60006020820190506107586000830184610734565b92915050565b7f4e487b7100000000000000000000000000000000000000000000000000000000600052603260045260246000fd5b7f4e487b7100000000000000000000000000000000000000000000000000000000600052602260045260246000fd5b600060028204905060018216806107d457607f821691505b602082108114156107e8576107e761078d565b5b50919050565b7f4f776e61626c653a2063616c6c6572206973206e6f7420746865206f776e6572600082015250565b6000610824602083610506565b915061082f826107ee565b602082019050919050565b6000602082019050818103600083015261085381610817565b9050919050565b7f4e487b7100000000000000000000000000000000000000000000000000000000600052601160045260246000fd5b600061089482610406565b915061089f83610406565b9250828210156108b2576108b161085a565b5b82820390509291505056fea2646970667358221220fe957424a6a310bfbd7172118fbcf01c903046d79b655448c0b8ebcef556741264736f6c634300080a0033",
  "immutableReferences": {},
  "source": "// SPDX-License-Identifier: GPL-3.0\r\npragma solidity >=0.8.0 <0.9.0;\r\n\r\nimport \"../ownership/Ownable.sol\";\r\ncontract BikeTypeModel is Ownable {\r\n\r\n    event AddedBikeType(uint indexed bikeType, string _type);\r\n\r\n    string[] private bikeTypeArray;\r\n    constructor(){\r\n        bikeTypeArray.push('Undefined');\r\n    }\r\n\r\n    function addType(string memory bikeType) public onlyOwner returns (uint id){\r\n        bikeTypeArray.push(bikeType);\r\n        emit AddedBikeType(bikeTypeArray.length -1, bikeType);\r\n        return bikeTypeArray.length;\r\n    }\r\n\r\n    // function getLastTypeId() public view returns(uint last){\r\n    //     return bikeTypeArray.length;\r\n    // }\r\n\r\n    function getTypeById(uint id) public view returns (string memory name){\r\n        return bikeTypeArray[id];\r\n    }\r\n\r\n    function hasType(uint bikeType) public view returns (bool has){\r\n        return (bikeTypeArray.length > bikeType && bikeType > 0);\r\n    }\r\n}",
  "sourcePath": "/mnt/c/Users/ptars/Learn/Blockchain/Consensys/Bootcamp2021/Final Project/code/ptarso.bike.factory/contracts/bike/BikeTypeModel.sol",
  "compiler": {
    "name": "solc",
    "version": "0.8.10+commit.fc410830.Emscripten.clang"
  },
  "schemaVersion": "3.4.4",
  "updatedAt": "2022-01-08T17:47:39.135Z",
  "devdoc": {
    "kind": "dev",
    "methods": {},
    "version": 1
  },
  "userdoc": {
    "kind": "user",
    "methods": {},
    "version": 1
  }
}