{
  "contractName": "BikeColorModel",
  "abi": [
    {
      "inputs": [],
      "stateMutability": "nonpayable",
      "type": "constructor"
    },
    {
      "anonymous": false,
      "inputs": [
        {
          "indexed": true,
          "internalType": "uint256",
          "name": "_bikeColor",
          "type": "uint256"
        },
        {
          "indexed": false,
          "internalType": "string",
          "name": "color",
          "type": "string"
        }
      ],
      "name": "AddedBikeColor",
      "type": "event"
    },
    {
      "inputs": [],
      "name": "isOwner",
      "outputs": [
        {
          "internalType": "bool",
          "name": "",
          "type": "bool"
        }
      ],
      "stateMutability": "view",
      "type": "function"
    },
    {
      "inputs": [],
      "name": "owner",
      "outputs": [
        {
          "internalType": "address",
          "name": "",
          "type": "address"
        }
      ],
      "stateMutability": "view",
      "type": "function"
    },
    {
      "inputs": [
        {
          "internalType": "string",
          "name": "color",
          "type": "string"
        }
      ],
      "name": "addColor",
      "outputs": [
        {
          "internalType": "uint256",
          "name": "id",
          "type": "uint256"
        }
      ],
      "stateMutability": "nonpayable",
      "type": "function"
    },
    {
      "inputs": [
        {
          "internalType": "uint256",
          "name": "id",
          "type": "uint256"
        }
      ],
      "name": "getColorById",
      "outputs": [
        {
          "internalType": "string",
          "name": "name",
          "type": "string"
        }
      ],
      "stateMutability": "view",
      "type": "function"
    },
    {
      "inputs": [
        {
          "internalType": "uint256",
          "name": "bikeColor",
          "type": "uint256"
        }
      ],
      "name": "hasColorId",
      "outputs": [
        {
          "internalType": "bool",
          "name": "has",
          "type": "bool"
        }
      ],
      "stateMutability": "view",
      "type": "function"
    },
    {
      "inputs": [
        {
          "internalType": "string",
          "name": "bikeColor",
          "type": "string"
        }
      ],
      "name": "hasColorName",
      "outputs": [
        {
          "internalType": "bool",
          "name": "has",
          "type": "bool"
        }
      ],
      "stateMutability": "view",
      "type": "function"
    }
  ],
  "bytecode": "0x60806040523480156200001157600080fd5b50336000806101000a81548173ffffffffffffffffffffffffffffffffffffffff021916908373ffffffffffffffffffffffffffffffffffffffff160217905550600180600181540180825580915050600190039060005260206000200160006040518060400160405280600481526020017f4e6f6e650000000000000000000000000000000000000000000000000000000081525090919091509080519060200190620000c1929190620000c8565b50620001dd565b828054620000d690620001a7565b90600052602060002090601f016020900481019282620000fa576000855562000146565b82601f106200011557805160ff191683800117855562000146565b8280016001018555821562000146579182015b828111156200014557825182559160200191906001019062000128565b5b50905062000155919062000159565b5090565b5b80821115620001745760008160009055506001016200015a565b5090565b7f4e487b7100000000000000000000000000000000000000000000000000000000600052602260045260246000fd5b60006002820490506001821680620001c057607f821691505b60208210811415620001d757620001d662000178565b5b50919050565b610be380620001ed6000396000f3fe608060405234801561001057600080fd5b50600436106100625760003560e01c8063077ebe1c1461006757806315341f2b146100975780636c5a1058146100c75780638da5cb5b146100f75780638f32d59b14610115578063ae0aad2514610133575b600080fd5b610081600480360381019061007c9190610579565b610163565b60405161008e91906105c1565b60405180910390f35b6100b160048036038101906100ac9190610722565b610180565b6040516100be919061077a565b60405180910390f35b6100e160048036038101906100dc9190610722565b6102ae565b6040516100ee91906105c1565b60405180910390f35b6100ff61035c565b60405161010c91906107d6565b60405180910390f35b61011d610385565b60405161012a91906105c1565b60405180910390f35b61014d60048036038101906101489190610579565b6103dc565b60405161015a9190610879565b60405180910390f35b6000816001805490501180156101795750600082115b9050919050565b600061018a610385565b6101c9576040517f08c379a00000000000000000000000000000000000000000000000000000000081526004016101c0906108e7565b60405180910390fd5b6101d2826102ae565b15610212576040517f08c379a000000000000000000000000000000000000000000000000000000000815260040161020990610953565b60405180910390fd5b60018290806001815401808255809150506001900390600052602060002001600090919091909150908051906020019061024d92919061048c565b506001808054905061025f91906109a2565b7fe8f2d5e1077776dd49f0c41eff64cc2d666891f43bf743709a06752331647fd98360405161028e9190610879565b60405180910390a2600180805490506102a791906109a2565b9050919050565b600080600090505b60018054905081101561035157826040516020016102d49190610a12565b60405160208183030381529060405280519060200120600182815481106102fe576102fd610a29565b5b906000526020600020016040516020016103189190610b4d565b60405160208183030381529060405280519060200120141561033e576001915050610357565b808061034990610b64565b9150506102b6565b50600090505b919050565b60008060009054906101000a900473ffffffffffffffffffffffffffffffffffffffff16905090565b60008060009054906101000a900473ffffffffffffffffffffffffffffffffffffffff1673ffffffffffffffffffffffffffffffffffffffff163373ffffffffffffffffffffffffffffffffffffffff1614905090565b6060600182815481106103f2576103f1610a29565b5b90600052602060002001805461040790610a87565b80601f016020809104026020016040519081016040528092919081815260200182805461043390610a87565b80156104805780601f1061045557610100808354040283529160200191610480565b820191906000526020600020905b81548152906001019060200180831161046357829003601f168201915b50505050509050919050565b82805461049890610a87565b90600052602060002090601f0160209004810192826104ba5760008555610501565b82601f106104d357805160ff1916838001178555610501565b82800160010185558215610501579182015b828111156105005782518255916020019190600101906104e5565b5b50905061050e9190610512565b5090565b5b8082111561052b576000816000905550600101610513565b5090565b6000604051905090565b600080fd5b600080fd5b6000819050919050565b61055681610543565b811461056157600080fd5b50565b6000813590506105738161054d565b92915050565b60006020828403121561058f5761058e610539565b5b600061059d84828501610564565b91505092915050565b60008115159050919050565b6105bb816105a6565b82525050565b60006020820190506105d660008301846105b2565b92915050565b600080fd5b600080fd5b6000601f19601f8301169050919050565b7f4e487b7100000000000000000000000000000000000000000000000000000000600052604160045260246000fd5b61062f826105e6565b810181811067ffffffffffffffff8211171561064e5761064d6105f7565b5b80604052505050565b600061066161052f565b905061066d8282610626565b919050565b600067ffffffffffffffff82111561068d5761068c6105f7565b5b610696826105e6565b9050602081019050919050565b82818337600083830152505050565b60006106c56106c084610672565b610657565b9050828152602081018484840111156106e1576106e06105e1565b5b6106ec8482856106a3565b509392505050565b600082601f830112610709576107086105dc565b5b81356107198482602086016106b2565b91505092915050565b60006020828403121561073857610737610539565b5b600082013567ffffffffffffffff8111156107565761075561053e565b5b610762848285016106f4565b91505092915050565b61077481610543565b82525050565b600060208201905061078f600083018461076b565b92915050565b600073ffffffffffffffffffffffffffffffffffffffff82169050919050565b60006107c082610795565b9050919050565b6107d0816107b5565b82525050565b60006020820190506107eb60008301846107c7565b92915050565b600081519050919050565b600082825260208201905092915050565b60005b8381101561082b578082015181840152602081019050610810565b8381111561083a576000848401525b50505050565b600061084b826107f1565b61085581856107fc565b935061086581856020860161080d565b61086e816105e6565b840191505092915050565b600060208201905081810360008301526108938184610840565b905092915050565b7f4f776e61626c653a2063616c6c6572206973206e6f7420746865206f776e6572600082015250565b60006108d16020836107fc565b91506108dc8261089b565b602082019050919050565b60006020820190508181036000830152610900816108c4565b9050919050565b7f436f6c6f7220616c726561647920657869737400000000000000000000000000600082015250565b600061093d6013836107fc565b915061094882610907565b602082019050919050565b6000602082019050818103600083015261096c81610930565b9050919050565b7f4e487b7100000000000000000000000000000000000000000000000000000000600052601160045260246000fd5b60006109ad82610543565b91506109b883610543565b9250828210156109cb576109ca610973565b5b828203905092915050565b600081905092915050565b60006109ec826107f1565b6109f681856109d6565b9350610a0681856020860161080d565b80840191505092915050565b6000610a1e82846109e1565b915081905092915050565b7f4e487b7100000000000000000000000000000000000000000000000000000000600052603260045260246000fd5b7f4e487b7100000000000000000000000000000000000000000000000000000000600052602260045260246000fd5b60006002820490506001821680610a9f57607f821691505b60208210811415610ab357610ab2610a58565b5b50919050565b60008190508160005260206000209050919050565b60008154610adb81610a87565b610ae581866109d6565b94506001821660008114610b005760018114610b1157610b44565b60ff19831686528186019350610b44565b610b1a85610ab9565b60005b83811015610b3c57815481890152600182019150602081019050610b1d565b838801955050505b50505092915050565b6000610b598284610ace565b915081905092915050565b6000610b6f82610543565b91507fffffffffffffffffffffffffffffffffffffffffffffffffffffffffffffffff821415610ba257610ba1610973565b5b60018201905091905056fea264697066735822122055612bbca3b0d8247c1da5912f391cfc564418b03e0ab536a2c9729c60f4fef664736f6c634300080a0033",
  "immutableReferences": {},
  "source": "// SPDX-License-Identifier: GPL-3.0\r\npragma solidity >=0.8.0 <0.9.0;\r\n\r\nimport \"../ownership/Ownable.sol\";\r\n\r\ncontract BikeColorModel is Ownable {\r\n    event AddedBikeColor(uint indexed _bikeColor, string color);\r\n    \r\n    string[] private bikeColorArray;\r\n    constructor(){\r\n        bikeColorArray.push('None');\r\n    }\r\n    \r\n    function addColor(string memory color) public onlyOwner returns (uint id){\r\n        require(\r\n            !hasColorName(color),\r\n            \"Color already exist\"\r\n        );\r\n        bikeColorArray.push(color);\r\n        emit AddedBikeColor(bikeColorArray.length -1, color);\r\n        return bikeColorArray.length -1;\r\n    }\r\n\r\n    function getColorById(uint id) public view returns (string memory name){\r\n        return bikeColorArray[id];\r\n    }\r\n\r\n    function hasColorId(uint bikeColor) public view returns (bool has){\r\n        return (bikeColorArray.length > bikeColor && bikeColor > 0);\r\n    }\r\n\r\n    function hasColorName(string memory bikeColor) public view returns (bool has){\r\n        \r\n        for (uint i = 0; i < bikeColorArray.length; i++){\r\n            if (keccak256(abi.encodePacked(bikeColorArray[i])) == keccak256(abi.encodePacked(bikeColor)))\r\n                return true;\r\n        }\r\n        return false;\r\n    }\r\n}",
  "sourcePath": "/mnt/c/Users/ptars/Learn/Blockchain/Consensys/Bootcamp2021/Final Project/code/ptarso.bike.factory/contracts/bike/BikeColorModel.sol",
  "compiler": {
    "name": "solc",
    "version": "0.8.10+commit.fc410830.Emscripten.clang"
  },
  "schemaVersion": "3.4.4",
  "updatedAt": "2022-01-08T19:25:15.448Z",
  "devdoc": {
    "kind": "dev",
    "methods": {},
    "version": 1
  },
  "userdoc": {
    "kind": "user",
    "methods": {},
    "version": 1
  }
}