{
  "contractName": "Bike",
  "abi": [
    {
      "inputs": [
        {
          "components": [
            {
              "internalType": "uint256",
              "name": "CreateDate",
              "type": "uint256"
            },
            {
              "internalType": "uint256",
              "name": "EndDate",
              "type": "uint256"
            },
            {
              "internalType": "uint256",
              "name": "WeiValue",
              "type": "uint256"
            },
            {
              "internalType": "enum BikeModel.StatusBikeEnum",
              "name": "Status",
              "type": "uint8"
            },
            {
              "internalType": "uint8",
              "name": "TypeId",
              "type": "uint8"
            },
            {
              "internalType": "uint8",
              "name": "ColorId",
              "type": "uint8"
            },
            {
              "internalType": "string",
              "name": "Type",
              "type": "string"
            },
            {
              "internalType": "string",
              "name": "Color",
              "type": "string"
            }
          ],
          "internalType": "struct BikeModel.BikeModelStruct",
          "name": "bikeModelStruct",
          "type": "tuple"
        }
      ],
      "stateMutability": "nonpayable",
      "type": "constructor"
    },
    {
      "anonymous": false,
      "inputs": [
        {
          "indexed": false,
          "internalType": "address",
          "name": "bike",
          "type": "address"
        },
        {
          "indexed": false,
          "internalType": "enum BikeModel.StatusBikeEnum",
          "name": "status",
          "type": "uint8"
        }
      ],
      "name": "BikeStatusUpdated",
      "type": "event"
    },
    {
      "anonymous": false,
      "inputs": [
        {
          "indexed": false,
          "internalType": "address",
          "name": "bike",
          "type": "address"
        }
      ],
      "name": "BikeTransfered",
      "type": "event"
    },
    {
      "inputs": [],
      "name": "isOwner",
      "outputs": [
        {
          "internalType": "bool",
          "name": "",
          "type": "bool"
        }
      ],
      "stateMutability": "view",
      "type": "function"
    },
    {
      "inputs": [],
      "name": "owner",
      "outputs": [
        {
          "internalType": "address",
          "name": "",
          "type": "address"
        }
      ],
      "stateMutability": "view",
      "type": "function"
    },
    {
      "inputs": [],
      "name": "getBike",
      "outputs": [
        {
          "components": [
            {
              "internalType": "uint256",
              "name": "CreateDate",
              "type": "uint256"
            },
            {
              "internalType": "uint256",
              "name": "EndDate",
              "type": "uint256"
            },
            {
              "internalType": "uint256",
              "name": "WeiValue",
              "type": "uint256"
            },
            {
              "internalType": "enum BikeModel.StatusBikeEnum",
              "name": "Status",
              "type": "uint8"
            },
            {
              "internalType": "uint8",
              "name": "TypeId",
              "type": "uint8"
            },
            {
              "internalType": "uint8",
              "name": "ColorId",
              "type": "uint8"
            },
            {
              "internalType": "string",
              "name": "Type",
              "type": "string"
            },
            {
              "internalType": "string",
              "name": "Color",
              "type": "string"
            }
          ],
          "internalType": "struct BikeModel.BikeModelStruct",
          "name": "bike",
          "type": "tuple"
        }
      ],
      "stateMutability": "view",
      "type": "function"
    },
    {
      "inputs": [
        {
          "internalType": "enum BikeModel.StatusBikeEnum",
          "name": "status",
          "type": "uint8"
        },
        {
          "internalType": "uint256",
          "name": "weiValue",
          "type": "uint256"
        }
      ],
      "name": "setBikeStatus",
      "outputs": [
        {
          "internalType": "bool",
          "name": "result",
          "type": "bool"
        }
      ],
      "stateMutability": "nonpayable",
      "type": "function"
    },
    {
      "inputs": [],
      "name": "transferBike",
      "outputs": [
        {
          "internalType": "bool",
          "name": "result",
          "type": "bool"
        }
      ],
      "stateMutability": "nonpayable",
      "type": "function"
    }
  ],
  "bytecode": "0x60806040523480156200001157600080fd5b506040516200104b3803806200104b83398181016040528101906200003791906200059a565b336000806101000a81548173ffffffffffffffffffffffffffffffffffffffff021916908373ffffffffffffffffffffffffffffffffffffffff16021790555080600160008201518160000155602082015181600101556040820151816002015560608201518160030160006101000a81548160ff02191690836005811115620000c657620000c5620005eb565b5b021790555060808201518160030160016101000a81548160ff021916908360ff16021790555060a08201518160030160026101000a81548160ff021916908360ff16021790555060c08201518160040190805190602001906200012b92919062000185565b5060e08201518160050190805190602001906200014a92919062000185565b5090505060018060030160006101000a81548160ff02191690836005811115620001795762000178620005eb565b5b0217905550506200067f565b828054620001939062000649565b90600052602060002090601f016020900481019282620001b7576000855562000203565b82601f10620001d257805160ff191683800117855562000203565b8280016001018555821562000203579182015b8281111562000202578251825591602001919060010190620001e5565b5b50905062000212919062000216565b5090565b5b808211156200023157600081600090555060010162000217565b5090565b6000604051905090565b600080fd5b600080fd5b600080fd5b6000601f19601f8301169050919050565b7f4e487b7100000000000000000000000000000000000000000000000000000000600052604160045260246000fd5b62000299826200024e565b810181811067ffffffffffffffff82111715620002bb57620002ba6200025f565b5b80604052505050565b6000620002d062000235565b9050620002de82826200028e565b919050565b600080fd5b6000819050919050565b620002fd81620002e8565b81146200030957600080fd5b50565b6000815190506200031d81620002f2565b92915050565b600681106200033157600080fd5b50565b600081519050620003458162000323565b92915050565b600060ff82169050919050565b62000363816200034b565b81146200036f57600080fd5b50565b600081519050620003838162000358565b92915050565b600080fd5b600080fd5b600067ffffffffffffffff821115620003b157620003b06200025f565b5b620003bc826200024e565b9050602081019050919050565b60005b83811015620003e9578082015181840152602081019050620003cc565b83811115620003f9576000848401525b50505050565b600062000416620004108462000393565b620002c4565b9050828152602081018484840111156200043557620004346200038e565b5b62000442848285620003c9565b509392505050565b600082601f83011262000462576200046162000389565b5b815162000474848260208601620003ff565b91505092915050565b6000610100828403121562000497576200049662000249565b5b620004a4610100620002c4565b90506000620004b6848285016200030c565b6000830152506020620004cc848285016200030c565b6020830152506040620004e2848285016200030c565b6040830152506060620004f88482850162000334565b60608301525060806200050e8482850162000372565b60808301525060a0620005248482850162000372565b60a08301525060c082015167ffffffffffffffff8111156200054b576200054a620002e3565b5b62000559848285016200044a565b60c08301525060e082015167ffffffffffffffff81111562000580576200057f620002e3565b5b6200058e848285016200044a565b60e08301525092915050565b600060208284031215620005b357620005b26200023f565b5b600082015167ffffffffffffffff811115620005d457620005d362000244565b5b620005e2848285016200047d565b91505092915050565b7f4e487b7100000000000000000000000000000000000000000000000000000000600052602160045260246000fd5b7f4e487b7100000000000000000000000000000000000000000000000000000000600052602260045260246000fd5b600060028204905060018216806200066257607f821691505b602082108114156200067957620006786200061a565b5b50919050565b6109bc806200068f6000396000f3fe608060405234801561001057600080fd5b50600436106100575760003560e01c806311eb74a71461005c5780638da5cb5b1461008c5780638f32d59b146100aa57806392e42bdb146100c8578063a7ff89d7146100e6575b600080fd5b6100766004803603810190610071919061058a565b610104565b60405161008391906105e5565b60405180910390f35b6100946101c7565b6040516100a19190610641565b60405180910390f35b6100b26101f0565b6040516100bf91906105e5565b60405180910390f35b6100d0610247565b6040516100dd91906105e5565b60405180910390f35b6100ee6102fb565b6040516100fb919061084e565b60405180910390f35b600061010e6101f0565b61014d576040517f08c379a0000000000000000000000000000000000000000000000000000000008152600401610144906108cd565b60405180910390fd5b7f2b4fff9b3b10e63d10f1b0f92a6e2a5253cbb7ff5f3174f19aa0307e3469798b308460405161017e9291906108fc565b60405180910390a182600160030160006101000a81548160ff021916908360058111156101ae576101ad61066b565b5b0217905550816001600201819055506001905092915050565b60008060009054906101000a900473ffffffffffffffffffffffffffffffffffffffff16905090565b60008060009054906101000a900473ffffffffffffffffffffffffffffffffffffffff1673ffffffffffffffffffffffffffffffffffffffff163373ffffffffffffffffffffffffffffffffffffffff1614905090565b60006102516101f0565b610290576040517f08c379a0000000000000000000000000000000000000000000000000000000008152600401610287906108cd565b60405180910390fd5b7f1a851104f348284dc5f6c828fb61506c7f757fdaebd11285b5667147d4774a78306040516102bf9190610641565b60405180910390a160018060030160006101000a81548160ff021916908360058111156102ef576102ee61066b565b5b02179055506001905090565b6103036104cd565b6001604051806101000160405290816000820154815260200160018201548152602001600282015481526020016003820160009054906101000a900460ff1660058111156103545761035361066b565b5b60058111156103665761036561066b565b5b81526020016003820160019054906101000a900460ff1660ff1660ff1681526020016003820160029054906101000a900460ff1660ff1660ff1681526020016004820180546103b490610954565b80601f01602080910402602001604051908101604052809291908181526020018280546103e090610954565b801561042d5780601f106104025761010080835404028352916020019161042d565b820191906000526020600020905b81548152906001019060200180831161041057829003601f168201915b5050505050815260200160058201805461044690610954565b80601f016020809104026020016040519081016040528092919081815260200182805461047290610954565b80156104bf5780601f10610494576101008083540402835291602001916104bf565b820191906000526020600020905b8154815290600101906020018083116104a257829003601f168201915b505050505081525050905090565b604051806101000160405280600081526020016000815260200160008152602001600060058111156105025761050161066b565b5b8152602001600060ff168152602001600060ff16815260200160608152602001606081525090565b600080fd5b6006811061053c57600080fd5b50565b60008135905061054e8161052f565b92915050565b6000819050919050565b61056781610554565b811461057257600080fd5b50565b6000813590506105848161055e565b92915050565b600080604083850312156105a1576105a061052a565b5b60006105af8582860161053f565b92505060206105c085828601610575565b9150509250929050565b60008115159050919050565b6105df816105ca565b82525050565b60006020820190506105fa60008301846105d6565b92915050565b600073ffffffffffffffffffffffffffffffffffffffff82169050919050565b600061062b82610600565b9050919050565b61063b81610620565b82525050565b60006020820190506106566000830184610632565b92915050565b61066581610554565b82525050565b7f4e487b7100000000000000000000000000000000000000000000000000000000600052602160045260246000fd5b600681106106ab576106aa61066b565b5b50565b60008190506106bc8261069a565b919050565b60006106cc826106ae565b9050919050565b6106dc816106c1565b82525050565b600060ff82169050919050565b6106f8816106e2565b82525050565b600081519050919050565b600082825260208201905092915050565b60005b8381101561073857808201518184015260208101905061071d565b83811115610747576000848401525b50505050565b6000601f19601f8301169050919050565b6000610769826106fe565b6107738185610709565b935061078381856020860161071a565b61078c8161074d565b840191505092915050565b6000610100830160008301516107b0600086018261065c565b5060208301516107c3602086018261065c565b5060408301516107d6604086018261065c565b5060608301516107e960608601826106d3565b5060808301516107fc60808601826106ef565b5060a083015161080f60a08601826106ef565b5060c083015184820360c0860152610827828261075e565b91505060e083015184820360e0860152610841828261075e565b9150508091505092915050565b600060208201905081810360008301526108688184610797565b905092915050565b600082825260208201905092915050565b7f4f776e61626c653a2063616c6c6572206973206e6f7420746865206f776e6572600082015250565b60006108b7602083610870565b91506108c282610881565b602082019050919050565b600060208201905081810360008301526108e6816108aa565b9050919050565b6108f6816106c1565b82525050565b60006040820190506109116000830185610632565b61091e60208301846108ed565b9392505050565b7f4e487b7100000000000000000000000000000000000000000000000000000000600052602260045260246000fd5b6000600282049050600182168061096c57607f821691505b602082108114156109805761097f610925565b5b5091905056fea2646970667358221220022c8188363cd8dd27d795417ff1dc7396d6718be1abdf29ec69544358c7820764736f6c634300080a0033",
  "immutableReferences": {},
  "source": "// SPDX-License-Identifier: GPL-3.0\npragma solidity >=0.8.0 <0.9.0;\n\nimport \"./ownership/Ownable.sol\";\nimport \"./bike/BikeModel.sol\";\n\ncontract Bike is \n            BikeModel\n            ,Ownable\n                 {\n    BikeModelStruct private _bike;\n    event BikeStatusUpdated(address bike, StatusBikeEnum status);\n    event BikeTransfered(address bike);\n\n    constructor (BikeModelStruct memory bikeModelStruct)\n    {\n        _bike = bikeModelStruct;\n        _bike.Status = StatusBikeEnum.USED;\n    }\n\n    function getBike() public view returns (BikeModelStruct memory bike) {\n        return _bike; \n    }\n\n    function setBikeStatus(StatusBikeEnum status, uint weiValue) \n    public \n    onlyOwner\n    returns (bool result){\n\n        emit BikeStatusUpdated(address(this), status);\n        _bike.Status = status;\n        _bike.WeiValue = weiValue;\n        return true;\n    }\n\n    function transferBike() public onlyOwner returns (bool result) {\n        emit BikeTransfered(address(this));\n        _bike.Status = StatusBikeEnum.USED;\n        return true;\n    }\n\n}",
  "sourcePath": "/mnt/c/Users/ptars/Learn/Blockchain/Consensys/Bootcamp2021/Final Project/code/ptarso.bike.factory/contracts/Bike.sol",
  "compiler": {
    "name": "solc",
    "version": "0.8.10+commit.fc410830.Emscripten.clang"
  },
  "schemaVersion": "3.4.4",
  "updatedAt": "2022-01-08T19:25:15.323Z",
  "devdoc": {
    "kind": "dev",
    "methods": {},
    "version": 1
  },
  "userdoc": {
    "kind": "user",
    "methods": {},
    "version": 1
  }
}