{
  "contractName": "BikeColorModel",
  "abi": [
    {
      "inputs": [],
      "stateMutability": "nonpayable",
      "type": "constructor"
    },
    {
      "anonymous": false,
      "inputs": [
        {
          "indexed": true,
          "internalType": "uint256",
          "name": "_bikeColor",
          "type": "uint256"
        },
        {
          "indexed": false,
          "internalType": "string",
          "name": "color",
          "type": "string"
        }
      ],
      "name": "AddedBikeColor",
      "type": "event"
    },
    {
      "inputs": [],
      "name": "isOwner",
      "outputs": [
        {
          "internalType": "bool",
          "name": "",
          "type": "bool"
        }
      ],
      "stateMutability": "view",
      "type": "function"
    },
    {
      "inputs": [],
      "name": "owner",
      "outputs": [
        {
          "internalType": "address",
          "name": "",
          "type": "address"
        }
      ],
      "stateMutability": "view",
      "type": "function"
    },
    {
      "inputs": [
        {
          "internalType": "string",
          "name": "color",
          "type": "string"
        }
      ],
      "name": "addColor",
      "outputs": [
        {
          "internalType": "uint256",
          "name": "id",
          "type": "uint256"
        }
      ],
      "stateMutability": "nonpayable",
      "type": "function"
    },
    {
      "inputs": [
        {
          "internalType": "uint256",
          "name": "id",
          "type": "uint256"
        }
      ],
      "name": "getColorById",
      "outputs": [
        {
          "internalType": "string",
          "name": "name",
          "type": "string"
        }
      ],
      "stateMutability": "view",
      "type": "function"
    },
    {
      "inputs": [
        {
          "internalType": "uint256",
          "name": "bikeColor",
          "type": "uint256"
        }
      ],
      "name": "hasColorId",
      "outputs": [
        {
          "internalType": "bool",
          "name": "has",
          "type": "bool"
        }
      ],
      "stateMutability": "view",
      "type": "function"
    },
    {
      "inputs": [
        {
          "internalType": "string",
          "name": "bikeColor",
          "type": "string"
        }
      ],
      "name": "hasColorName",
      "outputs": [
        {
          "internalType": "bool",
          "name": "has",
          "type": "bool"
        }
      ],
      "stateMutability": "view",
      "type": "function"
    },
    {
      "inputs": [],
      "name": "getBikeColorList",
      "outputs": [
        {
          "internalType": "string[]",
          "name": "colorList",
          "type": "string[]"
        }
      ],
      "stateMutability": "view",
      "type": "function"
    }
  ],
  "bytecode": "0x60806040523480156200001157600080fd5b50336000806101000a81548173ffffffffffffffffffffffffffffffffffffffff021916908373ffffffffffffffffffffffffffffffffffffffff160217905550600180600181540180825580915050600190039060005260206000200160006040518060400160405280600481526020017f4e6f6e650000000000000000000000000000000000000000000000000000000081525090919091509080519060200190620000c1929190620000c8565b50620001dd565b828054620000d690620001a7565b90600052602060002090601f016020900481019282620000fa576000855562000146565b82601f106200011557805160ff191683800117855562000146565b8280016001018555821562000146579182015b828111156200014557825182559160200191906001019062000128565b5b50905062000155919062000159565b5090565b5b80821115620001745760008160009055506001016200015a565b5090565b7f4e487b7100000000000000000000000000000000000000000000000000000000600052602260045260246000fd5b60006002820490506001821680620001c057607f821691505b60208210811415620001d757620001d662000178565b5b50919050565b610e2380620001ed6000396000f3fe608060405234801561001057600080fd5b506004361061007d5760003560e01c80636c5a10581161005b5780636c5a1058146101005780638da5cb5b146101305780638f32d59b1461014e578063ae0aad251461016c5761007d565b8063077ebe1c1461008257806315341f2b146100b25780636a26407a146100e2575b600080fd5b61009c6004803603810190610097919061068b565b61019c565b6040516100a991906106d3565b60405180910390f35b6100cc60048036038101906100c79190610834565b6101b9565b6040516100d9919061088c565b60405180910390f35b6100ea6102e7565b6040516100f791906109f1565b60405180910390f35b61011a60048036038101906101159190610834565b6103c0565b60405161012791906106d3565b60405180910390f35b61013861046e565b6040516101459190610a54565b60405180910390f35b610156610497565b60405161016391906106d3565b60405180910390f35b6101866004803603810190610181919061068b565b6104ee565b6040516101939190610ab9565b60405180910390f35b6000816001805490501180156101b25750600082115b9050919050565b60006101c3610497565b610202576040517f08c379a00000000000000000000000000000000000000000000000000000000081526004016101f990610b27565b60405180910390fd5b61020b826103c0565b1561024b576040517f08c379a000000000000000000000000000000000000000000000000000000000815260040161024290610b93565b60405180910390fd5b60018290806001815401808255809150506001900390600052602060002001600090919091909150908051906020019061028692919061059e565b50600180805490506102989190610be2565b7fe8f2d5e1077776dd49f0c41eff64cc2d666891f43bf743709a06752331647fd9836040516102c79190610ab9565b60405180910390a2600180805490506102e09190610be2565b9050919050565b60606001805480602002602001604051908101604052809291908181526020016000905b828210156103b757838290600052602060002001805461032a90610c45565b80601f016020809104026020016040519081016040528092919081815260200182805461035690610c45565b80156103a35780601f10610378576101008083540402835291602001916103a3565b820191906000526020600020905b81548152906001019060200180831161038657829003601f168201915b50505050508152602001906001019061030b565b50505050905090565b600080600090505b60018054905081101561046357826040516020016103e69190610cb3565b60405160208183030381529060405280519060200120600182815481106104105761040f610cca565b5b9060005260206000200160405160200161042a9190610d8d565b604051602081830303815290604052805190602001201415610450576001915050610469565b808061045b90610da4565b9150506103c8565b50600090505b919050565b60008060009054906101000a900473ffffffffffffffffffffffffffffffffffffffff16905090565b60008060009054906101000a900473ffffffffffffffffffffffffffffffffffffffff1673ffffffffffffffffffffffffffffffffffffffff163373ffffffffffffffffffffffffffffffffffffffff1614905090565b60606001828154811061050457610503610cca565b5b90600052602060002001805461051990610c45565b80601f016020809104026020016040519081016040528092919081815260200182805461054590610c45565b80156105925780601f1061056757610100808354040283529160200191610592565b820191906000526020600020905b81548152906001019060200180831161057557829003601f168201915b50505050509050919050565b8280546105aa90610c45565b90600052602060002090601f0160209004810192826105cc5760008555610613565b82601f106105e557805160ff1916838001178555610613565b82800160010185558215610613579182015b828111156106125782518255916020019190600101906105f7565b5b5090506106209190610624565b5090565b5b8082111561063d576000816000905550600101610625565b5090565b6000604051905090565b600080fd5b600080fd5b6000819050919050565b61066881610655565b811461067357600080fd5b50565b6000813590506106858161065f565b92915050565b6000602082840312156106a1576106a061064b565b5b60006106af84828501610676565b91505092915050565b60008115159050919050565b6106cd816106b8565b82525050565b60006020820190506106e860008301846106c4565b92915050565b600080fd5b600080fd5b6000601f19601f8301169050919050565b7f4e487b7100000000000000000000000000000000000000000000000000000000600052604160045260246000fd5b610741826106f8565b810181811067ffffffffffffffff821117156107605761075f610709565b5b80604052505050565b6000610773610641565b905061077f8282610738565b919050565b600067ffffffffffffffff82111561079f5761079e610709565b5b6107a8826106f8565b9050602081019050919050565b82818337600083830152505050565b60006107d76107d284610784565b610769565b9050828152602081018484840111156107f3576107f26106f3565b5b6107fe8482856107b5565b509392505050565b600082601f83011261081b5761081a6106ee565b5b813561082b8482602086016107c4565b91505092915050565b60006020828403121561084a5761084961064b565b5b600082013567ffffffffffffffff81111561086857610867610650565b5b61087484828501610806565b91505092915050565b61088681610655565b82525050565b60006020820190506108a1600083018461087d565b92915050565b600081519050919050565b600082825260208201905092915050565b6000819050602082019050919050565b600081519050919050565b600082825260208201905092915050565b60005b8381101561090d5780820151818401526020810190506108f2565b8381111561091c576000848401525b50505050565b600061092d826108d3565b61093781856108de565b93506109478185602086016108ef565b610950816106f8565b840191505092915050565b60006109678383610922565b905092915050565b6000602082019050919050565b6000610987826108a7565b61099181856108b2565b9350836020820285016109a3856108c3565b8060005b858110156109df57848403895281516109c0858261095b565b94506109cb8361096f565b925060208a019950506001810190506109a7565b50829750879550505050505092915050565b60006020820190508181036000830152610a0b818461097c565b905092915050565b600073ffffffffffffffffffffffffffffffffffffffff82169050919050565b6000610a3e82610a13565b9050919050565b610a4e81610a33565b82525050565b6000602082019050610a696000830184610a45565b92915050565b600082825260208201905092915050565b6000610a8b826108d3565b610a958185610a6f565b9350610aa58185602086016108ef565b610aae816106f8565b840191505092915050565b60006020820190508181036000830152610ad38184610a80565b905092915050565b7f43616c6c6572206973206e6f7420746865206f776e6572000000000000000000600082015250565b6000610b11601783610a6f565b9150610b1c82610adb565b602082019050919050565b60006020820190508181036000830152610b4081610b04565b9050919050565b7f436f6c6f7220616c726561647920657869737400000000000000000000000000600082015250565b6000610b7d601383610a6f565b9150610b8882610b47565b602082019050919050565b60006020820190508181036000830152610bac81610b70565b9050919050565b7f4e487b7100000000000000000000000000000000000000000000000000000000600052601160045260246000fd5b6000610bed82610655565b9150610bf883610655565b925082821015610c0b57610c0a610bb3565b5b828203905092915050565b7f4e487b7100000000000000000000000000000000000000000000000000000000600052602260045260246000fd5b60006002820490506001821680610c5d57607f821691505b60208210811415610c7157610c70610c16565b5b50919050565b600081905092915050565b6000610c8d826108d3565b610c978185610c77565b9350610ca78185602086016108ef565b80840191505092915050565b6000610cbf8284610c82565b915081905092915050565b7f4e487b7100000000000000000000000000000000000000000000000000000000600052603260045260246000fd5b60008190508160005260206000209050919050565b60008154610d1b81610c45565b610d258186610c77565b94506001821660008114610d405760018114610d5157610d84565b60ff19831686528186019350610d84565b610d5a85610cf9565b60005b83811015610d7c57815481890152600182019150602081019050610d5d565b838801955050505b50505092915050565b6000610d998284610d0e565b915081905092915050565b6000610daf82610655565b91507fffffffffffffffffffffffffffffffffffffffffffffffffffffffffffffffff821415610de257610de1610bb3565b5b60018201905091905056fea2646970667358221220a6cbeee5e219c24b8cc04b39b557c367be6bc02a99e471d1e66cfd6b7cb9e2e564736f6c634300080a0033",
  "immutableReferences": {},
  "source": "// SPDX-License-Identifier: GPL-3.0\r\npragma solidity >=0.8.0 <0.9.0;\r\n\r\nimport \"../ownership/Ownable.sol\";\r\n\r\ncontract BikeColorModel is Ownable {\r\n    event AddedBikeColor(uint indexed _bikeColor, string color);\r\n    \r\n    string[] private bikeColorArray;\r\n    constructor(){\r\n        bikeColorArray.push('None');\r\n    }\r\n    \r\n    function addColor(string memory color) public onlyOwner returns (uint id){\r\n        require(\r\n            !hasColorName(color),\r\n            \"Color already exist\"\r\n        );\r\n        bikeColorArray.push(color);\r\n        emit AddedBikeColor(bikeColorArray.length -1, color);\r\n        return bikeColorArray.length -1;\r\n    }\r\n\r\n    function getColorById(uint id) public view returns (string memory name){\r\n        return bikeColorArray[id];\r\n    }\r\n\r\n    function hasColorId(uint bikeColor) public view returns (bool has){\r\n        return (bikeColorArray.length > bikeColor && bikeColor > 0);\r\n    }\r\n\r\n    function hasColorName(string memory bikeColor) public view returns (bool has){\r\n        \r\n        for (uint i = 0; i < bikeColorArray.length; i++){\r\n            if (keccak256(abi.encodePacked(bikeColorArray[i])) == keccak256(abi.encodePacked(bikeColor)))\r\n                return true;\r\n        }\r\n        return false;\r\n    }\r\n    function getBikeColorList() public view returns (string[] memory colorList){\r\n        return bikeColorArray;\r\n    }\r\n}",
  "sourcePath": "/mnt/c/Users/ptars/Learn/Blockchain/Consensys/Bootcamp2021/Final Project/code/ptarso.bike.factory/contracts/bike/BikeColorModel.sol",
  "compiler": {
    "name": "solc",
    "version": "0.8.10+commit.fc410830.Emscripten.clang"
  },
  "schemaVersion": "3.4.4",
  "updatedAt": "2022-01-14T14:42:27.449Z",
  "devdoc": {
    "kind": "dev",
    "methods": {},
    "version": 1
  },
  "userdoc": {
    "kind": "user",
    "methods": {},
    "version": 1
  }
}