{
  "contractName": "BikeFactory",
  "abi": [
    {
      "inputs": [],
      "stateMutability": "nonpayable",
      "type": "constructor"
    },
    {
      "anonymous": false,
      "inputs": [
        {
          "indexed": true,
          "internalType": "uint256",
          "name": "_bikeColor",
          "type": "uint256"
        },
        {
          "indexed": false,
          "internalType": "string",
          "name": "color",
          "type": "string"
        }
      ],
      "name": "AddedBikeColor",
      "type": "event"
    },
    {
      "anonymous": false,
      "inputs": [
        {
          "indexed": true,
          "internalType": "uint256",
          "name": "bikeType",
          "type": "uint256"
        },
        {
          "indexed": false,
          "internalType": "string",
          "name": "_type",
          "type": "string"
        }
      ],
      "name": "AddedBikeType",
      "type": "event"
    },
    {
      "anonymous": false,
      "inputs": [
        {
          "indexed": true,
          "internalType": "address",
          "name": "account",
          "type": "address"
        }
      ],
      "name": "AdminAdded",
      "type": "event"
    },
    {
      "anonymous": false,
      "inputs": [
        {
          "indexed": true,
          "internalType": "address",
          "name": "account",
          "type": "address"
        }
      ],
      "name": "AdminRemoved",
      "type": "event"
    },
    {
      "anonymous": false,
      "inputs": [
        {
          "indexed": true,
          "internalType": "address",
          "name": "instanceAddress",
          "type": "address"
        }
      ],
      "name": "BikeGenerated",
      "type": "event"
    },
    {
      "anonymous": false,
      "inputs": [
        {
          "indexed": true,
          "internalType": "uint256",
          "name": "bikeId",
          "type": "uint256"
        }
      ],
      "name": "BikePlacedToSell",
      "type": "event"
    },
    {
      "anonymous": false,
      "inputs": [
        {
          "indexed": true,
          "internalType": "address",
          "name": "instanceAddress",
          "type": "address"
        },
        {
          "indexed": false,
          "internalType": "string",
          "name": "name",
          "type": "string"
        }
      ],
      "name": "CompanyCreated",
      "type": "event"
    },
    {
      "anonymous": false,
      "inputs": [
        {
          "indexed": true,
          "internalType": "address",
          "name": "bike",
          "type": "address"
        },
        {
          "indexed": false,
          "internalType": "address",
          "name": "from",
          "type": "address"
        },
        {
          "indexed": false,
          "internalType": "address",
          "name": "to",
          "type": "address"
        }
      ],
      "name": "TransferedBike",
      "type": "event"
    },
    {
      "inputs": [
        {
          "internalType": "address",
          "name": "_account",
          "type": "address"
        }
      ],
      "name": "addAdmin",
      "outputs": [],
      "stateMutability": "nonpayable",
      "type": "function"
    },
    {
      "inputs": [
        {
          "internalType": "string",
          "name": "color",
          "type": "string"
        }
      ],
      "name": "addColor",
      "outputs": [
        {
          "internalType": "uint256",
          "name": "id",
          "type": "uint256"
        }
      ],
      "stateMutability": "nonpayable",
      "type": "function"
    },
    {
      "inputs": [
        {
          "internalType": "string",
          "name": "bikeType",
          "type": "string"
        }
      ],
      "name": "addType",
      "outputs": [
        {
          "internalType": "uint256",
          "name": "id",
          "type": "uint256"
        }
      ],
      "stateMutability": "nonpayable",
      "type": "function"
    },
    {
      "inputs": [],
      "name": "admins",
      "outputs": [
        {
          "internalType": "address[]",
          "name": "",
          "type": "address[]"
        }
      ],
      "stateMutability": "view",
      "type": "function"
    },
    {
      "inputs": [],
      "name": "getBikeColorList",
      "outputs": [
        {
          "internalType": "string[]",
          "name": "colorList",
          "type": "string[]"
        }
      ],
      "stateMutability": "view",
      "type": "function"
    },
    {
      "inputs": [],
      "name": "getBikeTypeList",
      "outputs": [
        {
          "internalType": "string[]",
          "name": "typeList",
          "type": "string[]"
        }
      ],
      "stateMutability": "view",
      "type": "function"
    },
    {
      "inputs": [
        {
          "internalType": "uint256",
          "name": "id",
          "type": "uint256"
        }
      ],
      "name": "getColorById",
      "outputs": [
        {
          "internalType": "string",
          "name": "name",
          "type": "string"
        }
      ],
      "stateMutability": "view",
      "type": "function"
    },
    {
      "inputs": [
        {
          "internalType": "uint256",
          "name": "id",
          "type": "uint256"
        }
      ],
      "name": "getTypeById",
      "outputs": [
        {
          "internalType": "string",
          "name": "name",
          "type": "string"
        }
      ],
      "stateMutability": "view",
      "type": "function"
    },
    {
      "inputs": [
        {
          "internalType": "uint256",
          "name": "bikeColor",
          "type": "uint256"
        }
      ],
      "name": "hasColorId",
      "outputs": [
        {
          "internalType": "bool",
          "name": "has",
          "type": "bool"
        }
      ],
      "stateMutability": "view",
      "type": "function"
    },
    {
      "inputs": [
        {
          "internalType": "string",
          "name": "bikeColor",
          "type": "string"
        }
      ],
      "name": "hasColorName",
      "outputs": [
        {
          "internalType": "bool",
          "name": "has",
          "type": "bool"
        }
      ],
      "stateMutability": "view",
      "type": "function"
    },
    {
      "inputs": [
        {
          "internalType": "uint256",
          "name": "bikeType",
          "type": "uint256"
        }
      ],
      "name": "hasType",
      "outputs": [
        {
          "internalType": "bool",
          "name": "has",
          "type": "bool"
        }
      ],
      "stateMutability": "view",
      "type": "function"
    },
    {
      "inputs": [
        {
          "internalType": "address",
          "name": "_account",
          "type": "address"
        }
      ],
      "name": "isAdmin",
      "outputs": [
        {
          "internalType": "bool",
          "name": "",
          "type": "bool"
        }
      ],
      "stateMutability": "view",
      "type": "function"
    },
    {
      "inputs": [],
      "name": "isOwner",
      "outputs": [
        {
          "internalType": "bool",
          "name": "",
          "type": "bool"
        }
      ],
      "stateMutability": "view",
      "type": "function"
    },
    {
      "inputs": [],
      "name": "owner",
      "outputs": [
        {
          "internalType": "address",
          "name": "",
          "type": "address"
        }
      ],
      "stateMutability": "view",
      "type": "function"
    },
    {
      "inputs": [
        {
          "internalType": "address",
          "name": "_account",
          "type": "address"
        }
      ],
      "name": "removeAdmin",
      "outputs": [],
      "stateMutability": "nonpayable",
      "type": "function"
    },
    {
      "inputs": [
        {
          "internalType": "address",
          "name": "companyAddress",
          "type": "address"
        },
        {
          "internalType": "string",
          "name": "name",
          "type": "string"
        }
      ],
      "name": "createCompany",
      "outputs": [],
      "stateMutability": "nonpayable",
      "type": "function"
    },
    {
      "inputs": [
        {
          "internalType": "address",
          "name": "companyAddress",
          "type": "address"
        }
      ],
      "name": "getCompanyByAddress",
      "outputs": [
        {
          "components": [
            {
              "internalType": "string",
              "name": "Name",
              "type": "string"
            },
            {
              "internalType": "enum CompanyModel.StatusCompanyEnum",
              "name": "Status",
              "type": "uint8"
            },
            {
              "internalType": "bool",
              "name": "Exist",
              "type": "bool"
            },
            {
              "internalType": "address",
              "name": "Owner",
              "type": "address"
            }
          ],
          "internalType": "struct CompanyModel.CompanyModelStruct",
          "name": "company",
          "type": "tuple"
        }
      ],
      "stateMutability": "view",
      "type": "function"
    },
    {
      "inputs": [],
      "name": "getCompanyList",
      "outputs": [
        {
          "internalType": "string[]",
          "name": "",
          "type": "string[]"
        },
        {
          "internalType": "enum CompanyModel.StatusCompanyEnum[]",
          "name": "",
          "type": "uint8[]"
        },
        {
          "internalType": "address[]",
          "name": "",
          "type": "address[]"
        }
      ],
      "stateMutability": "view",
      "type": "function"
    },
    {
      "inputs": [
        {
          "components": [
            {
              "internalType": "enum BikeModel.StatusBikeEnum",
              "name": "Status",
              "type": "uint8"
            },
            {
              "internalType": "uint8",
              "name": "TypeId",
              "type": "uint8"
            },
            {
              "internalType": "uint8",
              "name": "ColorId",
              "type": "uint8"
            },
            {
              "internalType": "uint256",
              "name": "WeiValue",
              "type": "uint256"
            }
          ],
          "internalType": "struct BikeModel.BikeModelStruct",
          "name": "bikeModel",
          "type": "tuple"
        }
      ],
      "name": "generateBike",
      "outputs": [
        {
          "internalType": "address",
          "name": "bikeAddress",
          "type": "address"
        }
      ],
      "stateMutability": "nonpayable",
      "type": "function"
    },
    {
      "inputs": [
        {
          "internalType": "uint256",
          "name": "id",
          "type": "uint256"
        }
      ],
      "name": "getBikeInstance",
      "outputs": [
        {
          "components": [
            {
              "internalType": "enum BikeModel.StatusBikeEnum",
              "name": "Status",
              "type": "uint8"
            },
            {
              "internalType": "uint8",
              "name": "TypeId",
              "type": "uint8"
            },
            {
              "internalType": "uint8",
              "name": "ColorId",
              "type": "uint8"
            },
            {
              "internalType": "uint256",
              "name": "WeiValue",
              "type": "uint256"
            }
          ],
          "internalType": "struct BikeModel.BikeModelStruct",
          "name": "bike",
          "type": "tuple"
        }
      ],
      "stateMutability": "view",
      "type": "function"
    },
    {
      "inputs": [
        {
          "internalType": "uint8",
          "name": "scope",
          "type": "uint8"
        }
      ],
      "name": "getBikeList",
      "outputs": [
        {
          "internalType": "uint256[]",
          "name": "id",
          "type": "uint256[]"
        },
        {
          "internalType": "address[]",
          "name": "owner",
          "type": "address[]"
        },
        {
          "internalType": "string[]",
          "name": "bikeType",
          "type": "string[]"
        },
        {
          "internalType": "string[]",
          "name": "bikeColor",
          "type": "string[]"
        },
        {
          "internalType": "enum BikeModel.StatusBikeEnum[]",
          "name": "bikeStatus",
          "type": "uint8[]"
        },
        {
          "internalType": "uint256[]",
          "name": "WeiValue",
          "type": "uint256[]"
        }
      ],
      "stateMutability": "view",
      "type": "function"
    },
    {
      "inputs": [
        {
          "internalType": "uint256",
          "name": "id",
          "type": "uint256"
        },
        {
          "internalType": "uint256",
          "name": "weiValue",
          "type": "uint256"
        }
      ],
      "name": "putBikeToSell",
      "outputs": [
        {
          "internalType": "bool",
          "name": "result",
          "type": "bool"
        }
      ],
      "stateMutability": "nonpayable",
      "type": "function"
    },
    {
      "inputs": [],
      "name": "getBikeListByOwner",
      "outputs": [
        {
          "internalType": "uint256[]",
          "name": "id",
          "type": "uint256[]"
        },
        {
          "internalType": "address[]",
          "name": "owner",
          "type": "address[]"
        },
        {
          "internalType": "string[]",
          "name": "bikeType",
          "type": "string[]"
        },
        {
          "internalType": "string[]",
          "name": "bikeColor",
          "type": "string[]"
        },
        {
          "internalType": "enum BikeModel.StatusBikeEnum[]",
          "name": "bikeStatus",
          "type": "uint8[]"
        },
        {
          "internalType": "uint256[]",
          "name": "WeiValue",
          "type": "uint256[]"
        }
      ],
      "stateMutability": "view",
      "type": "function"
    },
    {
      "inputs": [
        {
          "internalType": "uint256",
          "name": "id",
          "type": "uint256"
        }
      ],
      "name": "buyBike",
      "outputs": [
        {
          "internalType": "bool",
          "name": "result",
          "type": "bool"
        }
      ],
      "stateMutability": "payable",
      "type": "function"
    }
  ],
  "bytecode": "0x60806040523480156200001157600080fd5b50336000806101000a81548173ffffffffffffffffffffffffffffffffffffffff021916908373ffffffffffffffffffffffffffffffffffffffff16021790555062000063336200040f60201b60201c565b600380600181540180825580915050600190039060005260206000200160006040518060400160405280600481526020017f4e6f6e650000000000000000000000000000000000000000000000000000000081525090919091509080519060200190620000d292919062000a20565b50600480600181540180825580915050600190039060005260206000200160006040518060400160405280600481526020017f4e6f6e6500000000000000000000000000000000000000000000000000000000815250909190915090805190602001906200014292919062000a20565b50620001896040518060400160405280600581526020017f57686974650000000000000000000000000000000000000000000000000000008152506200047060201b60201c565b50620001d06040518060400160405280600681526020017f59656c6c6f7700000000000000000000000000000000000000000000000000008152506200047060201b60201c565b50620002176040518060400160405280600481526020017f426c7565000000000000000000000000000000000000000000000000000000008152506200047060201b60201c565b506200025e6040518060400160405280600681526020017f47726565656e00000000000000000000000000000000000000000000000000008152506200047060201b60201c565b50620002a56040518060400160405280600581526020017f426c61636b0000000000000000000000000000000000000000000000000000008152506200047060201b60201c565b50620002ec6040518060400160405280600381526020017f52656400000000000000000000000000000000000000000000000000000000008152506200047060201b60201c565b50620003336040518060400160405280600581526020017f557262616e000000000000000000000000000000000000000000000000000000815250620005be60201b60201c565b506200037a6040518060400160405280600781526020017f4d6f6e7461696e00000000000000000000000000000000000000000000000000815250620005be60201b60201c565b50620003c16040518060400160405280600881526020017f456c656374726963000000000000000000000000000000000000000000000000815250620005be60201b60201c565b50620004086040518060400160405280600681526020017f4879627269640000000000000000000000000000000000000000000000000000815250620005be60201b60201c565b5062000ff0565b6200042a816001620006aa60201b620032421790919060201c565b8073ffffffffffffffffffffffffffffffffffffffff167f44d6d25963f097ad14f29f06854a01f575648a1ef82f30e562ccd3889717e33960405160405180910390a250565b600062000482620007c360201b60201c565b620004c4576040517f08c379a0000000000000000000000000000000000000000000000000000000008152600401620004bb9062000b31565b60405180910390fd5b620004d5826200081a60201b60201c565b1562000518576040517f08c379a00000000000000000000000000000000000000000000000000000000081526004016200050f9062000ba3565b60405180910390fd5b6004829080600181540180825580915050600190039060005260206000200160009091909190915090805190602001906200055592919062000a20565b5060016004805490506200056a919062000bfe565b7fe8f2d5e1077776dd49f0c41eff64cc2d666891f43bf743709a06752331647fd9836040516200059b919062000ccc565b60405180910390a26001600480549050620005b7919062000bfe565b9050919050565b6000620005d0620007c360201b60201c565b62000612576040517f08c379a0000000000000000000000000000000000000000000000000000000008152600401620006099062000b31565b60405180910390fd5b6003829080600181540180825580915050600190039060005260206000200160009091909190915090805190602001906200064f92919062000a20565b50600160038054905062000664919062000bfe565b7f775f0bedea302366da4f840798b787d49a486af6d7a75c52d8b306a50e6812688360405162000695919062000ccc565b60405180910390a26003805490509050919050565b620006bc8282620008d560201b60201c565b15620006ff576040517f08c379a0000000000000000000000000000000000000000000000000000000008152600401620006f69062000d40565b60405180910390fd5b81600101819080600181540180825580915050600190039060005260206000200160009091909190916101000a81548173ffffffffffffffffffffffffffffffffffffffff021916908373ffffffffffffffffffffffffffffffffffffffff160217905550600182600101805490506200077a919062000bfe565b8260000160008373ffffffffffffffffffffffffffffffffffffffff1673ffffffffffffffffffffffffffffffffffffffff168152602001908152602001600020819055505050565b60008060009054906101000a900473ffffffffffffffffffffffffffffffffffffffff1673ffffffffffffffffffffffffffffffffffffffff163373ffffffffffffffffffffffffffffffffffffffff1614905090565b600080600090505b600480549050811015620008ca578260405160200162000843919062000da4565b604051602081830303815290604052805190602001206004828154811062000870576200086f62000dbd565b5b906000526020600020016040516020016200088c919062000ef1565b604051602081830303815290604052805190602001201415620008b4576001915050620008d0565b8080620008c19062000f0a565b91505062000822565b50600090505b919050565b60008073ffffffffffffffffffffffffffffffffffffffff168273ffffffffffffffffffffffffffffffffffffffff16141562000949576040517f08c379a0000000000000000000000000000000000000000000000000000000008152600401620009409062000fce565b60405180910390fd5b60008360010180549050141562000964576000905062000a1a565b8173ffffffffffffffffffffffffffffffffffffffff16836001018460000160008573ffffffffffffffffffffffffffffffffffffffff1673ffffffffffffffffffffffffffffffffffffffff1681526020019081526020016000205481548110620009d557620009d462000dbd565b5b9060005260206000200160009054906101000a900473ffffffffffffffffffffffffffffffffffffffff1673ffffffffffffffffffffffffffffffffffffffff161490505b92915050565b82805462000a2e9062000e1b565b90600052602060002090601f01602090048101928262000a52576000855562000a9e565b82601f1062000a6d57805160ff191683800117855562000a9e565b8280016001018555821562000a9e579182015b8281111562000a9d57825182559160200191906001019062000a80565b5b50905062000aad919062000ab1565b5090565b5b8082111562000acc57600081600090555060010162000ab2565b5090565b600082825260208201905092915050565b7f43616c6c6572206973206e6f7420746865206f776e6572000000000000000000600082015250565b600062000b1960178362000ad0565b915062000b268262000ae1565b602082019050919050565b6000602082019050818103600083015262000b4c8162000b0a565b9050919050565b7f436f6c6f7220616c726561647920657869737400000000000000000000000000600082015250565b600062000b8b60138362000ad0565b915062000b988262000b53565b602082019050919050565b6000602082019050818103600083015262000bbe8162000b7c565b9050919050565b6000819050919050565b7f4e487b7100000000000000000000000000000000000000000000000000000000600052601160045260246000fd5b600062000c0b8262000bc5565b915062000c188362000bc5565b92508282101562000c2e5762000c2d62000bcf565b5b828203905092915050565b600081519050919050565b60005b8381101562000c6457808201518184015260208101905062000c47565b8381111562000c74576000848401525b50505050565b6000601f19601f8301169050919050565b600062000c988262000c39565b62000ca4818562000ad0565b935062000cb681856020860162000c44565b62000cc18162000c7a565b840191505092915050565b6000602082019050818103600083015262000ce8818462000c8b565b905092915050565b7f526f6c65733a206163636f756e7420616c72656164792068617320726f6c6500600082015250565b600062000d28601f8362000ad0565b915062000d358262000cf0565b602082019050919050565b6000602082019050818103600083015262000d5b8162000d19565b9050919050565b600081905092915050565b600062000d7a8262000c39565b62000d86818562000d62565b935062000d9881856020860162000c44565b80840191505092915050565b600062000db2828462000d6d565b915081905092915050565b7f4e487b7100000000000000000000000000000000000000000000000000000000600052603260045260246000fd5b7f4e487b7100000000000000000000000000000000000000000000000000000000600052602260045260246000fd5b6000600282049050600182168062000e3457607f821691505b6020821081141562000e4b5762000e4a62000dec565b5b50919050565b60008190508160005260206000209050919050565b6000815462000e758162000e1b565b62000e81818662000d62565b9450600182166000811462000e9f576001811462000eb15762000ee8565b60ff1983168652818601935062000ee8565b62000ebc8562000e51565b60005b8381101562000ee05781548189015260018201915060208101905062000ebf565b838801955050505b50505092915050565b600062000eff828462000e66565b915081905092915050565b600062000f178262000bc5565b91507fffffffffffffffffffffffffffffffffffffffffffffffffffffffffffffffff82141562000f4d5762000f4c62000bcf565b5b600182019050919050565b7f526f6c65733a206163636f756e742061646472657373206973206e6f7420766160008201527f6c69640000000000000000000000000000000000000000000000000000000000602082015250565b600062000fb660238362000ad0565b915062000fc38262000f58565b604082019050919050565b6000602082019050818103600083015262000fe98162000fa7565b9050919050565b615f8680620010006000396000f3fe6080604052600436106200016a5760003560e01c8063722cb0c311620000c7578063b6aa99161162000079578063b6aa9916146200058c578063e7f08e6914620005d0578063eece8a961462000614578063f117dd5b1462000658578063f3ab7f99146200069c578063f94ae9dc14620006ca576200016a565b8063722cb0c31462000444578063882e7b6714620004885780638da5cb5b14620004b85780638f32d59b14620004e8578063a5de36191462000518578063ae0aad251462000548576200016a565b806345a464c6116200012157806345a464c614620002e357806355762728146200032757806369358e2e14620003705780636a26407a14620003a25780636c5a105814620003d2578063704802751462000416576200016a565b8063077ebe1c146200016f5780630d1ef6ee14620001b357806315341f2b14620001f75780631785f53c146200023b57806324d7806c146200026957806330f59f0f14620002ad575b600080fd5b3480156200017c57600080fd5b506200019b600480360381019062000195919062003a6b565b620006ff565b604051620001aa919062003aba565b60405180910390f35b348015620001c057600080fd5b50620001df6004803603810190620001d9919062003a6b565b6200071d565b604051620001ee919062003be3565b60405180910390f35b3480156200020457600080fd5b506200022360048036038101906200021d919062003d62565b620007e0565b60405162000232919062003dc4565b60405180910390f35b3480156200024857600080fd5b5062000267600480360381019062000261919062003e46565b62000922565b005b3480156200027657600080fd5b506200029560048036038101906200028f919062003e46565b6200097d565b604051620002a4919062003aba565b60405180910390f35b620002cb6004803603810190620002c5919062003a6b565b6200099c565b604051620002da919062003aba565b60405180910390f35b348015620002f057600080fd5b506200030f600480360381019062000309919062003e78565b620010fa565b6040516200031e919062003aba565b60405180910390f35b3480156200033457600080fd5b506200035360048036038101906200034d919062003ef0565b62001335565b6040516200036796959493929190620042cd565b60405180910390f35b3480156200037d57600080fd5b506200038862001b4d565b604051620003999392919062004461565b60405180910390f35b348015620003af57600080fd5b50620003ba62001ea3565b604051620003c99190620044b3565b60405180910390f35b348015620003df57600080fd5b50620003fe6004803603810190620003f8919062003d62565b62001f86565b6040516200040d919062003aba565b60405180910390f35b3480156200042357600080fd5b506200044260048036038101906200043c919062003e46565b62002041565b005b3480156200045157600080fd5b506200047060048036038101906200046a919062003a6b565b6200209c565b6040516200047f919062003aba565b60405180910390f35b3480156200049557600080fd5b50620004a0620020ba565b604051620004af9190620044b3565b60405180910390f35b348015620004c557600080fd5b50620004d06200219d565b604051620004df9190620044e8565b60405180910390f35b348015620004f557600080fd5b5062000500620021c6565b6040516200050f919062003aba565b60405180910390f35b3480156200052557600080fd5b50620005306200221d565b6040516200053f919062004505565b60405180910390f35b3480156200055557600080fd5b506200057460048036038101906200056e919062003a6b565b62002230565b6040516200058391906200457b565b60405180910390f35b3480156200059957600080fd5b50620005b86004803603810190620005b2919062003a6b565b620022eb565b604051620005c791906200457b565b60405180910390f35b348015620005dd57600080fd5b50620005fc6004803603810190620005f6919062003d62565b620023a6565b6040516200060b919062003dc4565b60405180910390f35b3480156200062157600080fd5b506200064060048036038101906200063a919062004651565b6200248c565b6040516200064f9190620044e8565b60405180910390f35b3480156200066557600080fd5b506200068460048036038101906200067e919062003e46565b620027b3565b604051620006939190620046ff565b60405180910390f35b348015620006a957600080fd5b50620006c86004803603810190620006c2919062004723565b6200295a565b005b348015620006d757600080fd5b50620006e262002c52565b604051620006f696959493929190620042cd565b60405180910390f35b600081600480549050118015620007165750600082115b9050919050565b62000727620038c6565b620007686005600084815260200190815260200160002060000160009054906101000a900473ffffffffffffffffffffffffffffffffffffffff1662003355565b73ffffffffffffffffffffffffffffffffffffffff1663a7ff89d76040518163ffffffff1660e01b8152600401608060405180830381865afa158015620007b3573d6000803e3d6000fd5b505050506040513d601f19601f82011682018060405250810190620007d9919062004853565b9050919050565b6000620007ec620021c6565b6200082e576040517f08c379a00000000000000000000000000000000000000000000000000000000081526004016200082590620048d5565b60405180910390fd5b620008398262001f86565b156200087c576040517f08c379a0000000000000000000000000000000000000000000000000000000008152600401620008739062004947565b60405180910390fd5b600482908060018154018082558091505060019003906000526020600020016000909190919091509080519060200190620008b992919062003909565b506001600480549050620008ce919062004998565b7fe8f2d5e1077776dd49f0c41eff64cc2d666891f43bf743709a06752331647fd983604051620008ff91906200457b565b60405180910390a260016004805490506200091b919062004998565b9050919050565b6200092d336200097d565b6200096f576040517f08c379a0000000000000000000000000000000000000000000000000000000008152600401620009669062004a49565b60405180910390fd5b6200097a8162003364565b50565b6000620009958260016200343290919063ffffffff16565b9050919050565b600060026005811115620009b557620009b462003ad7565b5b620009f66005600085815260200190815260200160002060000160009054906101000a900473ffffffffffffffffffffffffffffffffffffffff1662003355565b73ffffffffffffffffffffffffffffffffffffffff1663a7ff89d76040518163ffffffff1660e01b8152600401608060405180830381865afa15801562000a41573d6000803e3d6000fd5b505050506040513d601f19601f8201168201806040525081019062000a67919062004853565b60000151600581111562000a805762000a7f62003ad7565b5b1462000ac3576040517f08c379a000000000000000000000000000000000000000000000000000000000815260040162000aba9062004abb565b60405180910390fd5b60006005600084815260200190815260200160002060010160009054906101000a900473ffffffffffffffffffffffffffffffffffffffff1690503373ffffffffffffffffffffffffffffffffffffffff168173ffffffffffffffffffffffffffffffffffffffff16141562000b70576040517f08c379a000000000000000000000000000000000000000000000000000000000815260040162000b679062004b53565b60405180910390fd5b62000bb16005600085815260200190815260200160002060000160009054906101000a900473ffffffffffffffffffffffffffffffffffffffff1662003355565b73ffffffffffffffffffffffffffffffffffffffff1663a7ff89d76040518163ffffffff1660e01b8152600401608060405180830381865afa15801562000bfc573d6000803e3d6000fd5b505050506040513d601f19601f8201168201806040525081019062000c22919062004853565b60600151341462000c6a576040517f08c379a000000000000000000000000000000000000000000000000000000000815260040162000c619062004bc5565b60405180910390fd5b60008173ffffffffffffffffffffffffffffffffffffffff163460405162000c929062004c1c565b60006040518083038185875af1925050503d806000811462000cd1576040519150601f19603f3d011682016040523d82523d6000602084013e62000cd6565b606091505b505090508062000d1d576040517f08c379a000000000000000000000000000000000000000000000000000000000815260040162000d149062004c83565b60405180910390fd5b60006005600086815260200190815260200160002060010160009054906101000a900473ffffffffffffffffffffffffffffffffffffffff169050336005600087815260200190815260200160002060010160006101000a81548173ffffffffffffffffffffffffffffffffffffffff021916908373ffffffffffffffffffffffffffffffffffffffff16021790555060005b60098054905081101562000fb3576005600087815260200190815260200160002060000160009054906101000a900473ffffffffffffffffffffffffffffffffffffffff1673ffffffffffffffffffffffffffffffffffffffff166009828154811062000e225762000e2162004ca5565b5b9060005260206000200160009054906101000a900473ffffffffffffffffffffffffffffffffffffffff1673ffffffffffffffffffffffffffffffffffffffff16141562000f9d5760008190505b600160098054905062000e84919062004998565b81101562000f5157600960018262000e9d919062004cd4565b8154811062000eb15762000eb062004ca5565b5b9060005260206000200160009054906101000a900473ffffffffffffffffffffffffffffffffffffffff166009828154811062000ef35762000ef262004ca5565b5b9060005260206000200160006101000a81548173ffffffffffffffffffffffffffffffffffffffff021916908373ffffffffffffffffffffffffffffffffffffffff160217905550808062000f489062004d31565b91505062000e70565b50600980548062000f675762000f6662004d7f565b5b6001900381819060005260206000200160006101000a81549073ffffffffffffffffffffffffffffffffffffffff021916905590555b808062000faa9062004d31565b91505062000db0565b506005600086815260200190815260200160002060000160009054906101000a900473ffffffffffffffffffffffffffffffffffffffff1673ffffffffffffffffffffffffffffffffffffffff167f353ce1acabf7053ab5d4da9d9392aefeaf63c4e7d6f531bff8c13e674f5bc22b82336040516200103492919062004dae565b60405180910390a26200107d6005600087815260200190815260200160002060000160009054906101000a900473ffffffffffffffffffffffffffffffffffffffff1662003355565b73ffffffffffffffffffffffffffffffffffffffff166392e42bdb6040518163ffffffff1660e01b81526004016020604051808303816000875af1158015620010ca573d6000803e3d6000fd5b505050506040513d601f19601f82011682018060405250810190620010f0919062004e0c565b9350505050919050565b60003373ffffffffffffffffffffffffffffffffffffffff166005600085815260200190815260200160002060010160009054906101000a900473ffffffffffffffffffffffffffffffffffffffff1673ffffffffffffffffffffffffffffffffffffffff1614620011a3576040517f08c379a00000000000000000000000000000000000000000000000000000000081526004016200119a9062004e8e565b60405180910390fd5b60096005600085815260200190815260200160002060000160009054906101000a900473ffffffffffffffffffffffffffffffffffffffff169080600181540180825580915050600190039060005260206000200160009091909190916101000a81548173ffffffffffffffffffffffffffffffffffffffff021916908373ffffffffffffffffffffffffffffffffffffffff160217905550827f2341c5f34a8b97709c35efad56b21b318a2ef536e3423c410bdc82a06053c9c860405160405180910390a2620012aa6005600085815260200190815260200160002060000160009054906101000a900473ffffffffffffffffffffffffffffffffffffffff1662003355565b73ffffffffffffffffffffffffffffffffffffffff166311eb74a76002846040518363ffffffff1660e01b8152600401620012e792919062004ec1565b6020604051808303816000875af115801562001307573d6000803e3d6000fd5b505050506040513d601f19601f820116820180604052508101906200132d919062004e0c565b905092915050565b60608060608060608060008060028960ff161462001356576006546200135d565b6009805490505b67ffffffffffffffff81111562001379576200137862003c1b565b5b604051908082528060200260200182016040528015620013a85781602001602082028036833780820191505090505b509050600060028a60ff1614620013c257600654620013c9565b6009805490505b67ffffffffffffffff811115620013e557620013e462003c1b565b5b604051908082528060200260200182016040528015620014145781602001602082028036833780820191505090505b509050600060028b60ff16146200142e5760065462001435565b6009805490505b67ffffffffffffffff81111562001451576200145062003c1b565b5b6040519080825280602002602001820160405280156200148657816020015b6060815260200190600190039081620014705790505b509050600060028c60ff1614620014a057600654620014a7565b6009805490505b67ffffffffffffffff811115620014c357620014c262003c1b565b5b604051908082528060200260200182016040528015620014f857816020015b6060815260200190600190039081620014e25790505b509050600060028d60ff1614620015125760065462001519565b6009805490505b67ffffffffffffffff81111562001535576200153462003c1b565b5b604051908082528060200260200182016040528015620015645781602001602082028036833780820191505090505b509050600060028e60ff16146200157e5760065462001585565b6009805490505b67ffffffffffffffff811115620015a157620015a062003c1b565b5b604051908082528060200260200182016040528015620015d05781602001602082028036833780820191505090505b50905060005b60065481101562001b2a5760018f60ff1614156200185f57600181620015fd919062004cd4565b87828151811062001613576200161262004ca5565b5b6020026020010181815250506000620016706005600060018562001638919062004cd4565b815260200190815260200160002060000160009054906101000a900473ffffffffffffffffffffffffffffffffffffffff1662003355565b73ffffffffffffffffffffffffffffffffffffffff1663a7ff89d76040518163ffffffff1660e01b8152600401608060405180830381865afa158015620016bb573d6000803e3d6000fd5b505050506040513d601f19601f82011682018060405250810190620016e1919062004853565b9050620016f5816020015160ff16620022eb565b8683815181106200170b576200170a62004ca5565b5b6020026020010181905250806000015184838151811062001731576200173062004ca5565b5b602002602001019060058111156200174e576200174d62003ad7565b5b9081600581111562001765576200176462003ad7565b5b815250506200177b816040015160ff1662002230565b85838151811062001791576200179062004ca5565b5b60200260200101819052508060600151838381518110620017b757620017b662004ca5565b5b60200260200101818152505060056000600184620017d6919062004cd4565b815260200190815260200160002060010160009054906101000a900473ffffffffffffffffffffffffffffffffffffffff168783815181106200181e576200181d62004ca5565b5b602002602001019073ffffffffffffffffffffffffffffffffffffffff16908173ffffffffffffffffffffffffffffffffffffffff16815250505062001b14565b6000620018b06005600060018562001878919062004cd4565b815260200190815260200160002060000160009054906101000a900473ffffffffffffffffffffffffffffffffffffffff1662003355565b73ffffffffffffffffffffffffffffffffffffffff1663a7ff89d76040518163ffffffff1660e01b8152600401608060405180830381865afa158015620018fb573d6000803e3d6000fd5b505050506040513d601f19601f8201168201806040525081019062001921919062004853565b9050600260058111156200193a576200193962003ad7565b5b8160000151600581111562001954576200195362003ad7565b5b141562001b12576001826200196a919062004cd4565b888a8151811062001980576200197f62004ca5565b5b6020026020010181815250506200199e816020015160ff16620022eb565b868a81518110620019b457620019b362004ca5565b5b60200260200101819052508060000151848a81518110620019da57620019d962004ca5565b5b60200260200101906005811115620019f757620019f662003ad7565b5b9081600581111562001a0e5762001a0d62003ad7565b5b8152505062001a24816040015160ff1662002230565b858a8151811062001a3a5762001a3962004ca5565b5b60200260200101819052508060600151838a8151811062001a605762001a5f62004ca5565b5b6020026020010181815250506005600060018462001a7f919062004cd4565b815260200190815260200160002060010160009054906101000a900473ffffffffffffffffffffffffffffffffffffffff16878a8151811062001ac75762001ac662004ca5565b5b602002602001019073ffffffffffffffffffffffffffffffffffffffff16908173ffffffffffffffffffffffffffffffffffffffff1681525050888062001b0e9062004d31565b9950505b505b808062001b219062004d31565b915050620015d6565b508585858585859c509c509c509c509c509c505050505050505091939550919395565b6060806060600060088054905067ffffffffffffffff81111562001b765762001b7562003c1b565b5b60405190808252806020026020018201604052801562001bab57816020015b606081526020019060019003908162001b955790505b509050600060088054905067ffffffffffffffff81111562001bd25762001bd162003c1b565b5b60405190808252806020026020018201604052801562001c015781602001602082028036833780820191505090505b509050600060088054905067ffffffffffffffff81111562001c285762001c2762003c1b565b5b60405190808252806020026020018201604052801562001c575781602001602082028036833780820191505090505b50905060005b60088054905081101562001e91576000600760006008848154811062001c885762001c8762004ca5565b5b9060005260206000200160009054906101000a900473ffffffffffffffffffffffffffffffffffffffff1673ffffffffffffffffffffffffffffffffffffffff1673ffffffffffffffffffffffffffffffffffffffff168152602001908152602001600020905080600001805462001d009062004f1d565b80601f016020809104026020016040519081016040528092919081815260200182805462001d2e9062004f1d565b801562001d7f5780601f1062001d535761010080835404028352916020019162001d7f565b820191906000526020600020905b81548152906001019060200180831162001d6157829003601f168201915b505050505085838151811062001d9a5762001d9962004ca5565b5b60200260200101819052508060010160009054906101000a900460ff1684838151811062001dcd5762001dcc62004ca5565b5b6020026020010190600281111562001dea5762001de962003ad7565b5b9081600281111562001e015762001e0062003ad7565b5b815250508060010160029054906101000a900473ffffffffffffffffffffffffffffffffffffffff1683838151811062001e405762001e3f62004ca5565b5b602002602001019073ffffffffffffffffffffffffffffffffffffffff16908173ffffffffffffffffffffffffffffffffffffffff168152505050808062001e889062004d31565b91505062001c5d565b50828282955095509550505050909192565b60606004805480602002602001604051908101604052809291908181526020016000905b8282101562001f7d57838290600052602060002001805462001ee99062004f1d565b80601f016020809104026020016040519081016040528092919081815260200182805462001f179062004f1d565b801562001f685780601f1062001f3c5761010080835404028352916020019162001f68565b820191906000526020600020905b81548152906001019060200180831162001f4a57829003601f168201915b50505050508152602001906001019062001ec7565b50505050905090565b600080600090505b60048054905081101562002036578260405160200162001faf919062004f95565b604051602081830303815290604052805190602001206004828154811062001fdc5762001fdb62004ca5565b5b9060005260206000200160405160200162001ff891906200504e565b604051602081830303815290604052805190602001201415620020205760019150506200203c565b80806200202d9062004d31565b91505062001f8e565b50600090505b919050565b6200204c336200097d565b6200208e576040517f08c379a0000000000000000000000000000000000000000000000000000000008152600401620020859062004a49565b60405180910390fd5b62002099816200357d565b50565b600081600380549050118015620020b35750600082115b9050919050565b60606003805480602002602001604051908101604052809291908181526020016000905b8282101562002194578382906000526020600020018054620021009062004f1d565b80601f01602080910402602001604051908101604052809291908181526020018280546200212e9062004f1d565b80156200217f5780601f1062002153576101008083540402835291602001916200217f565b820191906000526020600020905b8154815290600101906020018083116200216157829003601f168201915b505050505081526020019060010190620020de565b50505050905090565b60008060009054906101000a900473ffffffffffffffffffffffffffffffffffffffff16905090565b60008060009054906101000a900473ffffffffffffffffffffffffffffffffffffffff1673ffffffffffffffffffffffffffffffffffffffff163373ffffffffffffffffffffffffffffffffffffffff1614905090565b60606200222b6001620035d9565b905090565b60606004828154811062002249576200224862004ca5565b5b906000526020600020018054620022609062004f1d565b80601f01602080910402602001604051908101604052809291908181526020018280546200228e9062004f1d565b8015620022df5780601f10620022b357610100808354040283529160200191620022df565b820191906000526020600020905b815481529060010190602001808311620022c157829003601f168201915b50505050509050919050565b60606003828154811062002304576200230362004ca5565b5b9060005260206000200180546200231b9062004f1d565b80601f0160208091040260200160405190810160405280929190818152602001828054620023499062004f1d565b80156200239a5780601f106200236e576101008083540402835291602001916200239a565b820191906000526020600020905b8154815290600101906020018083116200237c57829003601f168201915b50505050509050919050565b6000620023b2620021c6565b620023f4576040517f08c379a0000000000000000000000000000000000000000000000000000000008152600401620023eb90620048d5565b60405180910390fd5b6003829080600181540180825580915050600190039060005260206000200160009091909190915090805190602001906200243192919062003909565b50600160038054905062002446919062004998565b7f775f0bedea302366da4f840798b787d49a486af6d7a75c52d8b306a50e681268836040516200247791906200457b565b60405180910390a26003805490509050919050565b600062002499336200097d565b620024db576040517f08c379a0000000000000000000000000000000000000000000000000000000008152600401620024d29062004a49565b60405180910390fd5b60011515620024f1836020015160ff166200209c565b15151462002536576040517f08c379a00000000000000000000000000000000000000000000000000000000081526004016200252d90620050b7565b60405180910390fd5b600115156200254c836040015160ff16620006ff565b15151462002591576040517f08c379a0000000000000000000000000000000000000000000000000000000008152600401620025889062005129565b60405180910390fd5b600760003373ffffffffffffffffffffffffffffffffffffffff1673ffffffffffffffffffffffffffffffffffffffff16815260200190815260200160002060010160019054906101000a900460ff1662002623576040517f08c379a00000000000000000000000000000000000000000000000000000000081526004016200261a906200519b565b60405180910390fd5b60008260405162002634906200399a565b62002640919062003be3565b604051809103906000f0801580156200265d573d6000803e3d6000fd5b5090506000819050600660008154809291906200267a9062004d31565b919050555060405180604001604052808273ffffffffffffffffffffffffffffffffffffffff1681526020013373ffffffffffffffffffffffffffffffffffffffff1681525060056000600654815260200190815260200160002060008201518160000160006101000a81548173ffffffffffffffffffffffffffffffffffffffff021916908373ffffffffffffffffffffffffffffffffffffffff16021790555060208201518160010160006101000a81548173ffffffffffffffffffffffffffffffffffffffff021916908373ffffffffffffffffffffffffffffffffffffffff1602179055509050508073ffffffffffffffffffffffffffffffffffffffff167f783cf24cc63271a871f797878968f8784c1f4681dffdf376e0d4398df2b4025c60405160405180910390a28092505050919050565b620027bd620039a8565b600760008373ffffffffffffffffffffffffffffffffffffffff1673ffffffffffffffffffffffffffffffffffffffff168152602001908152602001600020604051806080016040529081600082018054620028199062004f1d565b80601f0160208091040260200160405190810160405280929190818152602001828054620028479062004f1d565b8015620028985780601f106200286c5761010080835404028352916020019162002898565b820191906000526020600020905b8154815290600101906020018083116200287a57829003601f168201915b505050505081526020016001820160009054906101000a900460ff166002811115620028c957620028c862003ad7565b5b6002811115620028de57620028dd62003ad7565b5b81526020016001820160019054906101000a900460ff161515151581526020016001820160029054906101000a900473ffffffffffffffffffffffffffffffffffffffff1673ffffffffffffffffffffffffffffffffffffffff1673ffffffffffffffffffffffffffffffffffffffff16815250509050919050565b62002964620021c6565b620029a6576040517f08c379a00000000000000000000000000000000000000000000000000000000081526004016200299d90620048d5565b60405180910390fd5b600073ffffffffffffffffffffffffffffffffffffffff168273ffffffffffffffffffffffffffffffffffffffff16141562002a19576040517f08c379a000000000000000000000000000000000000000000000000000000000815260040162002a109062005233565b60405180910390fd5b600760008373ffffffffffffffffffffffffffffffffffffffff1673ffffffffffffffffffffffffffffffffffffffff16815260200190815260200160002060010160019054906101000a900460ff161562002aac576040517f08c379a000000000000000000000000000000000000000000000000000000000815260040162002aa390620052a5565b60405180910390fd5b6000600760008473ffffffffffffffffffffffffffffffffffffffff1673ffffffffffffffffffffffffffffffffffffffff16815260200190815260200160002090508181600001908051906020019062002b0992919062003909565b5060008160010160006101000a81548160ff0219169083600281111562002b355762002b3462003ad7565b5b021790555060018160010160016101000a81548160ff021916908315150217905550828160010160026101000a81548173ffffffffffffffffffffffffffffffffffffffff021916908373ffffffffffffffffffffffffffffffffffffffff1602179055506008839080600181540180825580915050600190039060005260206000200160009091909190916101000a81548173ffffffffffffffffffffffffffffffffffffffff021916908373ffffffffffffffffffffffffffffffffffffffff1602179055508273ffffffffffffffffffffffffffffffffffffffff167f85fab8e92bf0510a5cb6805fc4c546db423a5700b84984f94e2ddb727b132b658360405162002c4591906200457b565b60405180910390a2505050565b606080606080606080600080600090505b60065481101562002d0e573373ffffffffffffffffffffffffffffffffffffffff166005600060018462002c98919062004cd4565b815260200190815260200160002060010160009054906101000a900473ffffffffffffffffffffffffffffffffffffffff1673ffffffffffffffffffffffffffffffffffffffff16141562002cf857818062002cf49062004d31565b9250505b808062002d059062004d31565b91505062002c63565b5060008167ffffffffffffffff81111562002d2e5762002d2d62003c1b565b5b60405190808252806020026020018201604052801562002d5d5781602001602082028036833780820191505090505b50905060008267ffffffffffffffff81111562002d7f5762002d7e62003c1b565b5b60405190808252806020026020018201604052801562002dae5781602001602082028036833780820191505090505b50905060008367ffffffffffffffff81111562002dd05762002dcf62003c1b565b5b60405190808252806020026020018201604052801562002e0557816020015b606081526020019060019003908162002def5790505b50905060008467ffffffffffffffff81111562002e275762002e2662003c1b565b5b60405190808252806020026020018201604052801562002e5c57816020015b606081526020019060019003908162002e465790505b50905060008567ffffffffffffffff81111562002e7e5762002e7d62003c1b565b5b60405190808252806020026020018201604052801562002ead5781602001602082028036833780820191505090505b50905060008667ffffffffffffffff81111562002ecf5762002ece62003c1b565b5b60405190808252806020026020018201604052801562002efe5781602001602082028036833780820191505090505b509050600080600090505b6006548110156200321f573373ffffffffffffffffffffffffffffffffffffffff166005600060018462002f3e919062004cd4565b815260200190815260200160002060010160009054906101000a900473ffffffffffffffffffffffffffffffffffffffff1673ffffffffffffffffffffffffffffffffffffffff1614156200320957600062002fde6005600060018562002fa6919062004cd4565b815260200190815260200160002060000160009054906101000a900473ffffffffffffffffffffffffffffffffffffffff1662003355565b73ffffffffffffffffffffffffffffffffffffffff1663a7ff89d76040518163ffffffff1660e01b8152600401608060405180830381865afa15801562003029573d6000803e3d6000fd5b505050506040513d601f19601f820116820180604052508101906200304f919062004853565b905060018262003060919062004cd4565b89848151811062003076576200307562004ca5565b5b60200260200101818152505062003094816020015160ff16620022eb565b878481518110620030aa57620030a962004ca5565b5b60200260200101819052508060000151858481518110620030d057620030cf62004ca5565b5b60200260200101906005811115620030ed57620030ec62003ad7565b5b9081600581111562003104576200310362003ad7565b5b815250506200311a816040015160ff1662002230565b86848151811062003130576200312f62004ca5565b5b6020026020010181905250806060015184848151811062003156576200315562004ca5565b5b6020026020010181815250506005600060018462003175919062004cd4565b815260200190815260200160002060010160009054906101000a900473ffffffffffffffffffffffffffffffffffffffff16888481518110620031bd57620031bc62004ca5565b5b602002602001019073ffffffffffffffffffffffffffffffffffffffff16908173ffffffffffffffffffffffffffffffffffffffff16815250508280620032049062004d31565b935050505b8080620032169062004d31565b91505062002f09565b508686868686869d509d509d509d509d509d505050505050505050909192939495565b6200324e828262003432565b1562003291576040517f08c379a0000000000000000000000000000000000000000000000000000000008152600401620032889062005317565b60405180910390fd5b81600101819080600181540180825580915050600190039060005260206000200160009091909190916101000a81548173ffffffffffffffffffffffffffffffffffffffff021916908373ffffffffffffffffffffffffffffffffffffffff160217905550600182600101805490506200330c919062004998565b8260000160008373ffffffffffffffffffffffffffffffffffffffff1673ffffffffffffffffffffffffffffffffffffffff168152602001908152602001600020819055505050565b60008082905080915050919050565b3373ffffffffffffffffffffffffffffffffffffffff168173ffffffffffffffffffffffffffffffffffffffff161415620033d6576040517f08c379a0000000000000000000000000000000000000000000000000000000008152600401620033cd9062005389565b60405180910390fd5b620033ec8160016200366d90919063ffffffff16565b8073ffffffffffffffffffffffffffffffffffffffff167fa3b62bc36326052d97ea62d63c3d60308ed4c3ea8ac079dd8499f1e9c4f80c0f60405160405180910390a250565b60008073ffffffffffffffffffffffffffffffffffffffff168273ffffffffffffffffffffffffffffffffffffffff161415620034a6576040517f08c379a00000000000000000000000000000000000000000000000000000000081526004016200349d9062005421565b60405180910390fd5b600083600101805490501415620034c1576000905062003577565b8173ffffffffffffffffffffffffffffffffffffffff16836001018460000160008573ffffffffffffffffffffffffffffffffffffffff1673ffffffffffffffffffffffffffffffffffffffff168152602001908152602001600020548154811062003532576200353162004ca5565b5b9060005260206000200160009054906101000a900473ffffffffffffffffffffffffffffffffffffffff1673ffffffffffffffffffffffffffffffffffffffff161490505b92915050565b620035938160016200324290919063ffffffff16565b8073ffffffffffffffffffffffffffffffffffffffff167f44d6d25963f097ad14f29f06854a01f575648a1ef82f30e562ccd3889717e33960405160405180910390a250565b6060816001018054806020026020016040519081016040528092919081815260200182805480156200366157602002820191906000526020600020905b8160009054906101000a900473ffffffffffffffffffffffffffffffffffffffff1673ffffffffffffffffffffffffffffffffffffffff168152602001906001019080831162003616575b50505050509050919050565b62003679828262003432565b620036bb576040517f08c379a0000000000000000000000000000000000000000000000000000000008152600401620036b290620054b9565b60405180910390fd5b6000826001016001620036ce85620038b5565b620036da919062004998565b81548110620036ee57620036ed62004ca5565b5b9060005260206000200160009054906101000a900473ffffffffffffffffffffffffffffffffffffffff16905060008360000160008473ffffffffffffffffffffffffffffffffffffffff1673ffffffffffffffffffffffffffffffffffffffff168152602001908152602001600020549050808460000160008473ffffffffffffffffffffffffffffffffffffffff1673ffffffffffffffffffffffffffffffffffffffff1681526020019081526020016000208190555081846001018281548110620037c157620037c062004ca5565b5b9060005260206000200160006101000a81548173ffffffffffffffffffffffffffffffffffffffff021916908373ffffffffffffffffffffffffffffffffffffffff1602179055508360000160008473ffffffffffffffffffffffffffffffffffffffff1673ffffffffffffffffffffffffffffffffffffffff1681526020019081526020016000206000905560006001856001018054905062003866919062004998565b905084600101818154811062003881576200388062004ca5565b5b9060005260206000200160006101000a81549073ffffffffffffffffffffffffffffffffffffffff02191690555050505050565b600081600101805490509050919050565b604051806080016040528060006005811115620038e857620038e762003ad7565b5b8152602001600060ff168152602001600060ff168152602001600081525090565b828054620039179062004f1d565b90600052602060002090601f0160209004810192826200393b576000855562003987565b82601f106200395657805160ff191683800117855562003987565b8280016001018555821562003987579182015b828111156200398657825182559160200191906001019062003969565b5b509050620039969190620039fd565b5090565b610a7580620054dc83390190565b60405180608001604052806060815260200160006002811115620039d157620039d062003ad7565b5b8152602001600015158152602001600073ffffffffffffffffffffffffffffffffffffffff1681525090565b5b8082111562003a18576000816000905550600101620039fe565b5090565b6000604051905090565b600080fd5b600080fd5b6000819050919050565b62003a458162003a30565b811462003a5157600080fd5b50565b60008135905062003a658162003a3a565b92915050565b60006020828403121562003a845762003a8362003a26565b5b600062003a948482850162003a54565b91505092915050565b60008115159050919050565b62003ab48162003a9d565b82525050565b600060208201905062003ad1600083018462003aa9565b92915050565b7f4e487b7100000000000000000000000000000000000000000000000000000000600052602160045260246000fd5b6006811062003b1a5762003b1962003ad7565b5b50565b600081905062003b2d8262003b06565b919050565b600062003b3f8262003b1d565b9050919050565b62003b518162003b32565b82525050565b600060ff82169050919050565b62003b6f8162003b57565b82525050565b62003b808162003a30565b82525050565b60808201600082015162003b9e600085018262003b46565b50602082015162003bb3602085018262003b64565b50604082015162003bc8604085018262003b64565b50606082015162003bdd606085018262003b75565b50505050565b600060808201905062003bfa600083018462003b86565b92915050565b600080fd5b600080fd5b6000601f19601f8301169050919050565b7f4e487b7100000000000000000000000000000000000000000000000000000000600052604160045260246000fd5b62003c558262003c0a565b810181811067ffffffffffffffff8211171562003c775762003c7662003c1b565b5b80604052505050565b600062003c8c62003a1c565b905062003c9a828262003c4a565b919050565b600067ffffffffffffffff82111562003cbd5762003cbc62003c1b565b5b62003cc88262003c0a565b9050602081019050919050565b82818337600083830152505050565b600062003cfb62003cf58462003c9f565b62003c80565b90508281526020810184848401111562003d1a5762003d1962003c05565b5b62003d2784828562003cd5565b509392505050565b600082601f83011262003d475762003d4662003c00565b5b813562003d5984826020860162003ce4565b91505092915050565b60006020828403121562003d7b5762003d7a62003a26565b5b600082013567ffffffffffffffff81111562003d9c5762003d9b62003a2b565b5b62003daa8482850162003d2f565b91505092915050565b62003dbe8162003a30565b82525050565b600060208201905062003ddb600083018462003db3565b92915050565b600073ffffffffffffffffffffffffffffffffffffffff82169050919050565b600062003e0e8262003de1565b9050919050565b62003e208162003e01565b811462003e2c57600080fd5b50565b60008135905062003e408162003e15565b92915050565b60006020828403121562003e5f5762003e5e62003a26565b5b600062003e6f8482850162003e2f565b91505092915050565b6000806040838503121562003e925762003e9162003a26565b5b600062003ea28582860162003a54565b925050602062003eb58582860162003a54565b9150509250929050565b62003eca8162003b57565b811462003ed657600080fd5b50565b60008135905062003eea8162003ebf565b92915050565b60006020828403121562003f095762003f0862003a26565b5b600062003f198482850162003ed9565b91505092915050565b600081519050919050565b600082825260208201905092915050565b6000819050602082019050919050565b600062003f5c838362003b75565b60208301905092915050565b6000602082019050919050565b600062003f828262003f22565b62003f8e818562003f2d565b935062003f9b8362003f3e565b8060005b8381101562003fd257815162003fb6888262003f4e565b975062003fc38362003f68565b92505060018101905062003f9f565b5085935050505092915050565b600081519050919050565b600082825260208201905092915050565b6000819050602082019050919050565b620040168162003e01565b82525050565b60006200402a83836200400b565b60208301905092915050565b6000602082019050919050565b6000620040508262003fdf565b6200405c818562003fea565b9350620040698362003ffb565b8060005b83811015620040a05781516200408488826200401c565b9750620040918362004036565b9250506001810190506200406d565b5085935050505092915050565b600081519050919050565b600082825260208201905092915050565b6000819050602082019050919050565b600081519050919050565b600082825260208201905092915050565b60005b8381101562004115578082015181840152602081019050620040f8565b8381111562004125576000848401525b50505050565b60006200413882620040d9565b620041448185620040e4565b935062004156818560208601620040f5565b620041618162003c0a565b840191505092915050565b60006200417a83836200412b565b905092915050565b6000602082019050919050565b60006200419c82620040ad565b620041a88185620040b8565b935083602082028501620041bc85620040c9565b8060005b85811015620041fe5784840389528151620041dc85826200416c565b9450620041e98362004182565b925060208a01995050600181019050620041c0565b50829750879550505050505092915050565b600081519050919050565b600082825260208201905092915050565b6000819050602082019050919050565b60006200424a838362003b46565b60208301905092915050565b6000602082019050919050565b6000620042708262004210565b6200427c81856200421b565b935062004289836200422c565b8060005b83811015620042c0578151620042a488826200423c565b9750620042b18362004256565b9250506001810190506200428d565b5085935050505092915050565b600060c0820190508181036000830152620042e9818962003f75565b90508181036020830152620042ff818862004043565b905081810360408301526200431581876200418f565b905081810360608301526200432b81866200418f565b9050818103608083015262004341818562004263565b905081810360a083015262004357818462003f75565b9050979650505050505050565b600081519050919050565b6000819050602082019050919050565b6003811062004393576200439262003ad7565b5b50565b6000819050620043a6826200437f565b919050565b6000620043b88262004396565b9050919050565b620043ca81620043ab565b82525050565b6000620043de8383620043bf565b60208301905092915050565b6000602082019050919050565b6000620044048262004364565b6200441081856200421b565b93506200441d836200436f565b8060005b8381101562004454578151620044388882620043d0565b97506200444583620043ea565b92505060018101905062004421565b5085935050505092915050565b600060608201905081810360008301526200447d81866200418f565b90508181036020830152620044938185620043f7565b90508181036040830152620044a9818462004043565b9050949350505050565b60006020820190508181036000830152620044cf81846200418f565b905092915050565b620044e28162003e01565b82525050565b6000602082019050620044ff6000830184620044d7565b92915050565b6000602082019050818103600083015262004521818462004043565b905092915050565b600082825260208201905092915050565b60006200454782620040d9565b62004553818562004529565b935062004565818560208601620040f5565b620045708162003c0a565b840191505092915050565b600060208201905081810360008301526200459781846200453a565b905092915050565b600080fd5b60068110620045b257600080fd5b50565b600081359050620045c681620045a4565b92915050565b600060808284031215620045e557620045e46200459f565b5b620045f1608062003c80565b905060006200460384828501620045b5565b6000830152506020620046198482850162003ed9565b60208301525060406200462f8482850162003ed9565b6040830152506060620046458482850162003a54565b60608301525092915050565b6000608082840312156200466a576200466962003a26565b5b60006200467a84828501620045cc565b91505092915050565b6200468e8162003a9d565b82525050565b60006080830160008301518482036000860152620046b382826200412b565b9150506020830151620046ca6020860182620043bf565b506040830151620046df604086018262004683565b506060830151620046f460608601826200400b565b508091505092915050565b600060208201905081810360008301526200471b818462004694565b905092915050565b600080604083850312156200473d576200473c62003a26565b5b60006200474d8582860162003e2f565b925050602083013567ffffffffffffffff81111562004771576200477062003a2b565b5b6200477f8582860162003d2f565b9150509250929050565b6000815190506200479a81620045a4565b92915050565b600081519050620047b18162003ebf565b92915050565b600081519050620047c88162003a3a565b92915050565b600060808284031215620047e757620047e66200459f565b5b620047f3608062003c80565b90506000620048058482850162004789565b60008301525060206200481b84828501620047a0565b60208301525060406200483184828501620047a0565b60408301525060606200484784828501620047b7565b60608301525092915050565b6000608082840312156200486c576200486b62003a26565b5b60006200487c84828501620047ce565b91505092915050565b7f43616c6c6572206973206e6f7420746865206f776e6572000000000000000000600082015250565b6000620048bd60178362004529565b9150620048ca8262004885565b602082019050919050565b60006020820190508181036000830152620048f081620048ae565b9050919050565b7f436f6c6f7220616c726561647920657869737400000000000000000000000000600082015250565b60006200492f60138362004529565b91506200493c82620048f7565b602082019050919050565b60006020820190508181036000830152620049628162004920565b9050919050565b7f4e487b7100000000000000000000000000000000000000000000000000000000600052601160045260246000fd5b6000620049a58262003a30565b9150620049b28362003a30565b925082821015620049c857620049c762004969565b5b828203905092915050565b7f43616c6c657220646f6573206e6f742068617665207468652061646d696e207260008201527f6f6c650000000000000000000000000000000000000000000000000000000000602082015250565b600062004a3160238362004529565b915062004a3e82620049d3565b604082019050919050565b6000602082019050818103600083015262004a648162004a22565b9050919050565b7f42696b65206e6f7420666f722053656c6c000000000000000000000000000000600082015250565b600062004aa360118362004529565b915062004ab08262004a6b565b602082019050919050565b6000602082019050818103600083015262004ad68162004a94565b9050919050565b7f4f776e6572732042696b652063616e206e6f742062757920796f75722042696b60008201527f6500000000000000000000000000000000000000000000000000000000000000602082015250565b600062004b3b60218362004529565b915062004b488262004add565b604082019050919050565b6000602082019050818103600083015262004b6e8162004b2c565b9050919050565b7f496e737566696369656e74206f722077726f6e672076616c7565000000000000600082015250565b600062004bad601a8362004529565b915062004bba8262004b75565b602082019050919050565b6000602082019050818103600083015262004be08162004b9e565b9050919050565b600081905092915050565b50565b600062004c0460008362004be7565b915062004c118262004bf2565b600082019050919050565b600062004c298262004bf5565b9150819050919050565b7f4661696c656420746f2073656e64204574686572000000000000000000000000600082015250565b600062004c6b60148362004529565b915062004c788262004c33565b602082019050919050565b6000602082019050818103600083015262004c9e8162004c5c565b9050919050565b7f4e487b7100000000000000000000000000000000000000000000000000000000600052603260045260246000fd5b600062004ce18262003a30565b915062004cee8362003a30565b9250827fffffffffffffffffffffffffffffffffffffffffffffffffffffffffffffffff0382111562004d265762004d2562004969565b5b828201905092915050565b600062004d3e8262003a30565b91507fffffffffffffffffffffffffffffffffffffffffffffffffffffffffffffffff82141562004d745762004d7362004969565b5b600182019050919050565b7f4e487b7100000000000000000000000000000000000000000000000000000000600052603160045260246000fd5b600060408201905062004dc56000830185620044d7565b62004dd46020830184620044d7565b9392505050565b62004de68162003a9d565b811462004df257600080fd5b50565b60008151905062004e068162004ddb565b92915050565b60006020828403121562004e255762004e2462003a26565b5b600062004e358482850162004df5565b91505092915050565b7f4f6e6c79204f776e6572732042696b652063616e2073656c6c2042696b650000600082015250565b600062004e76601e8362004529565b915062004e838262004e3e565b602082019050919050565b6000602082019050818103600083015262004ea98162004e67565b9050919050565b62004ebb8162003b32565b82525050565b600060408201905062004ed8600083018562004eb0565b62004ee7602083018462003db3565b9392505050565b7f4e487b7100000000000000000000000000000000000000000000000000000000600052602260045260246000fd5b6000600282049050600182168062004f3657607f821691505b6020821081141562004f4d5762004f4c62004eee565b5b50919050565b600081905092915050565b600062004f6b82620040d9565b62004f77818562004f53565b935062004f89818560208601620040f5565b80840191505092915050565b600062004fa3828462004f5e565b915081905092915050565b60008190508160005260206000209050919050565b6000815462004fd28162004f1d565b62004fde818662004f53565b9450600182166000811462004ffc57600181146200500e5762005045565b60ff1983168652818601935062005045565b620050198562004fae565b60005b838110156200503d578154818901526001820191506020810190506200501c565b838801955050505b50505092915050565b60006200505c828462004fc3565b915081905092915050565b7f496e76616c696420547970652100000000000000000000000000000000000000600082015250565b60006200509f600d8362004529565b9150620050ac8262005067565b602082019050919050565b60006020820190508181036000830152620050d28162005090565b9050919050565b7f496e76616c696420436f6c6f7221000000000000000000000000000000000000600082015250565b600062005111600e8362004529565b91506200511e82620050d9565b602082019050919050565b60006020820190508181036000830152620051448162005102565b9050919050565b7f436f6d70616e792061646472657373206e6f7420657869737473000000000000600082015250565b600062005183601a8362004529565b915062005190826200514b565b602082019050919050565b60006020820190508181036000830152620051b68162005174565b9050919050565b7f43726561746520436f6d70616e793a206163636f756e7420616464726573732060008201527f6973206e6f742076616c69640000000000000000000000000000000000000000602082015250565b60006200521b602c8362004529565b91506200522882620051bd565b604082019050919050565b600060208201905081810360008301526200524e816200520c565b9050919050565b7f436f6d70616e79206164647265737320616c7265616479206578697374730000600082015250565b60006200528d601e8362004529565b91506200529a8262005255565b602082019050919050565b60006020820190508181036000830152620052c0816200527e565b9050919050565b7f526f6c65733a206163636f756e7420616c72656164792068617320726f6c6500600082015250565b6000620052ff601f8362004529565b91506200530c82620052c7565b602082019050919050565b600060208201905081810360008301526200533281620052f0565b9050919050565b7f43616c6c65722063616e206e6f742072656e6f756e636520697473656c660000600082015250565b600062005371601e8362004529565b91506200537e8262005339565b602082019050919050565b60006020820190508181036000830152620053a48162005362565b9050919050565b7f526f6c65733a206163636f756e742061646472657373206973206e6f7420766160008201527f6c69640000000000000000000000000000000000000000000000000000000000602082015250565b60006200540960238362004529565b91506200541682620053ab565b604082019050919050565b600060208201905081810360008301526200543c81620053fa565b9050919050565b7f526f6c65733a206163636f756e7420646f6573206e6f74206861766520726f6c60008201527f6500000000000000000000000000000000000000000000000000000000000000602082015250565b6000620054a160218362004529565b9150620054ae8262005443565b604082019050919050565b60006020820190508181036000830152620054d48162005492565b905091905056fe60806040523480156200001157600080fd5b5060405162000a7538038062000a75833981810160405281019062000037919062000302565b336000806101000a81548173ffffffffffffffffffffffffffffffffffffffff021916908373ffffffffffffffffffffffffffffffffffffffff16021790555080600160008201518160000160006101000a81548160ff02191690836005811115620000a857620000a762000334565b5b021790555060208201518160000160016101000a81548160ff021916908360ff16021790555060408201518160000160026101000a81548160ff021916908360ff1602179055506060820151816001015590505060018060000160006101000a81548160ff0219169083600581111562000127576200012662000334565b5b02179055505062000363565b6000604051905090565b600080fd5b600080fd5b6000601f19601f8301169050919050565b7f4e487b7100000000000000000000000000000000000000000000000000000000600052604160045260246000fd5b620001928262000147565b810181811067ffffffffffffffff82111715620001b457620001b362000158565b5b80604052505050565b6000620001c962000133565b9050620001d7828262000187565b919050565b60068110620001ea57600080fd5b50565b600081519050620001fe81620001dc565b92915050565b600060ff82169050919050565b6200021c8162000204565b81146200022857600080fd5b50565b6000815190506200023c8162000211565b92915050565b6000819050919050565b620002578162000242565b81146200026357600080fd5b50565b60008151905062000277816200024c565b92915050565b60006080828403121562000296576200029562000142565b5b620002a26080620001bd565b90506000620002b484828501620001ed565b6000830152506020620002ca848285016200022b565b6020830152506040620002e0848285016200022b565b6040830152506060620002f68482850162000266565b60608301525092915050565b6000608082840312156200031b576200031a6200013d565b5b60006200032b848285016200027d565b91505092915050565b7f4e487b7100000000000000000000000000000000000000000000000000000000600052602160045260246000fd5b61070280620003736000396000f3fe608060405234801561001057600080fd5b50600436106100575760003560e01c806311eb74a71461005c5780638da5cb5b1461008c5780638f32d59b146100aa57806392e42bdb146100c8578063a7ff89d7146100e6575b600080fd5b61007660048036038101906100719190610433565b610104565b604051610083919061048e565b60405180910390f35b6100946101c6565b6040516100a191906104ea565b60405180910390f35b6100b26101ef565b6040516100bf919061048e565b60405180910390f35b6100d0610246565b6040516100dd919061048e565b60405180910390f35b6100ee6102fa565b6040516100fb91906105fc565b60405180910390f35b600061010e6101ef565b61014d576040517f08c379a000000000000000000000000000000000000000000000000000000000815260040161014490610674565b60405180910390fd5b7f2b4fff9b3b10e63d10f1b0f92a6e2a5253cbb7ff5f3174f19aa0307e3469798b308460405161017e9291906106a3565b60405180910390a182600160000160006101000a81548160ff021916908360058111156101ae576101ad610505565b5b02179055508160018001819055506001905092915050565b60008060009054906101000a900473ffffffffffffffffffffffffffffffffffffffff16905090565b60008060009054906101000a900473ffffffffffffffffffffffffffffffffffffffff1673ffffffffffffffffffffffffffffffffffffffff163373ffffffffffffffffffffffffffffffffffffffff1614905090565b60006102506101ef565b61028f576040517f08c379a000000000000000000000000000000000000000000000000000000000815260040161028690610674565b60405180910390fd5b7f1a851104f348284dc5f6c828fb61506c7f757fdaebd11285b5667147d4774a78306040516102be91906104ea565b60405180910390a160018060000160006101000a81548160ff021916908360058111156102ee576102ed610505565b5b02179055506001905090565b610302610393565b60016040518060800160405290816000820160009054906101000a900460ff16600581111561033457610333610505565b5b600581111561034657610345610505565b5b81526020016000820160019054906101000a900460ff1660ff1660ff1681526020016000820160029054906101000a900460ff1660ff1660ff168152602001600182015481525050905090565b6040518060800160405280600060058111156103b2576103b1610505565b5b8152602001600060ff168152602001600060ff168152602001600081525090565b600080fd5b600681106103e557600080fd5b50565b6000813590506103f7816103d8565b92915050565b6000819050919050565b610410816103fd565b811461041b57600080fd5b50565b60008135905061042d81610407565b92915050565b6000806040838503121561044a576104496103d3565b5b6000610458858286016103e8565b92505060206104698582860161041e565b9150509250929050565b60008115159050919050565b61048881610473565b82525050565b60006020820190506104a3600083018461047f565b92915050565b600073ffffffffffffffffffffffffffffffffffffffff82169050919050565b60006104d4826104a9565b9050919050565b6104e4816104c9565b82525050565b60006020820190506104ff60008301846104db565b92915050565b7f4e487b7100000000000000000000000000000000000000000000000000000000600052602160045260246000fd5b6006811061054557610544610505565b5b50565b600081905061055682610534565b919050565b600061056682610548565b9050919050565b6105768161055b565b82525050565b600060ff82169050919050565b6105928161057c565b82525050565b6105a1816103fd565b82525050565b6080820160008201516105bd600085018261056d565b5060208201516105d06020850182610589565b5060408201516105e36040850182610589565b5060608201516105f66060850182610598565b50505050565b600060808201905061061160008301846105a7565b92915050565b600082825260208201905092915050565b7f43616c6c6572206973206e6f7420746865206f776e6572000000000000000000600082015250565b600061065e601783610617565b915061066982610628565b602082019050919050565b6000602082019050818103600083015261068d81610651565b9050919050565b61069d8161055b565b82525050565b60006040820190506106b860008301856104db565b6106c56020830184610694565b939250505056fea2646970667358221220bec45cd85b1726263480149527080463e288e2d0c0a0893100ff5b59c613479964736f6c634300080a0033a264697066735822122019ab3c380bebefb0aeffb9d5de060e2024ea154934f88ee9f18aea343a87ca0064736f6c634300080a0033",
  "immutableReferences": {},
  "source": "// SPDX-License-Identifier: GPL-3.0\npragma solidity >=0.8.0 <0.9.0;\n\nimport \"./access/roles/AdminRole.sol\";\nimport \"./bike/BikeModel.sol\";\nimport \"./Bike.sol\";\nimport \"./bike/BikeTypeModel.sol\";\nimport \"./bike/BikeColorModel.sol\";\nimport \"./company/CompanyModel.sol\";\n\ncontract BikeFactory is\nAdminRole,\n\n            BikeModel,\n            BikeTypeModel,\n            BikeColorModel,\n            CompanyModel {\n\n    struct BikeInstance {\n        address instanceAddress;\n        address instanceAddressOwner;\n    }\n\n    mapping(uint256 => BikeInstance) private _bikeInstanceMap;\n    uint private _bikeInstanceMapCounter; \n\n    mapping(address => CompanyModelStruct) private _companyMap;\n    address[] private _companyAddresses; \n\n    address[] private _bikeForSell;\n\n    event BikeGenerated(\n        address indexed instanceAddress\n    );\n    event BikePlacedToSell(\n        uint256 indexed bikeId\n    );\n    event TransferedBike(\n        address indexed bike,\n        address from,\n        address to\n    );\n    event CompanyCreated(\n        address indexed instanceAddress,\n        string name\n    );\n\n    constructor(){\n\n        addColor(\"White\");\n        addColor(\"Yellow\");\n        addColor(\"Blue\");\n        addColor(\"Greeen\");\n        addColor(\"Black\");\n        addColor(\"Red\");\n\n        addType(\"Urban\");\n        addType(\"Montain\");\n        addType(\"Electric\");\n        addType(\"Hybrid\");\n    }\n\n    function createCompany(address companyAddress, string memory name) public onlyOwner{\n     require(companyAddress != address(0), 'Create Company: account address is not valid');\n     require(\n         !_companyMap[companyAddress].Exist,\n         \"Company address already exists\"\n         );\n        CompanyModelStruct storage newCompany = _companyMap[companyAddress];\n        newCompany.Name = name;\n        newCompany.Status = StatusCompanyEnum.ACTIVE;\n        newCompany.Exist = true;\n        newCompany.Owner = companyAddress;\n        _companyAddresses.push(companyAddress);\n\n        emit CompanyCreated(\n            companyAddress,\n            name\n        );\n    }\n\n    function getCompanyByAddress(address companyAddress) public view returns (CompanyModelStruct memory company){\n        return _companyMap[companyAddress];\n    }\n\n    function getCompanyList() \n        public view \n        returns(string[] memory, StatusCompanyEnum[] memory, address[] memory){\n\n        string[] memory names = new string[](_companyAddresses.length);\n        StatusCompanyEnum[] memory status = new StatusCompanyEnum[](_companyAddresses.length);\n        address[] memory owners = new address[](_companyAddresses.length);\n\n        //CompanyModelStruct[] memory companyModelList = new CompanyModelStruct[](_companyAddresses.length);\n\n        for (uint i = 0; i < _companyAddresses.length; i++){\n             CompanyModelStruct storage company = _companyMap[_companyAddresses[i]];\n         names[i] = company.Name;\n         status[i] = company.Status;\n         owners[i] = company.Owner;\n        }\n        return (names, status, owners);\n    }\n\n    function generateBike(BikeModelStruct memory bikeModel) \n    public\n         onlyAdmin\n    returns(address  bikeAddress)\n    {\n        require(hasType(bikeModel.TypeId) == true, \"Invalid Type!\");\n        require(hasColorId(bikeModel.ColorId) == true, \"Invalid Color!\");\n        require(\n            _companyMap[msg.sender].Exist,\n            \"Company address not exists\"\n         );\n\n        // bikeModel.Type = getTypeById(bikeModel.TypeId);\n        // bikeModel.Color = getColorById(bikeModel.ColorId);\n\n        Bike instance = new Bike(\n            bikeModel\n        );\n\n        address instanceAddress = address(instance);\n        _bikeInstanceMapCounter++;\n        _bikeInstanceMap[_bikeInstanceMapCounter] = BikeInstance(\n            instanceAddress,\n            msg.sender\n        );\n        emit BikeGenerated(instanceAddress);\n        return instanceAddress;\n    }\n\n    function getBikeInstance(uint id) public view returns \n    (BikeModelStruct memory bike)\n    {\n      return getBase(_bikeInstanceMap[id].instanceAddress).getBike();\n    }\n\n    function getBikeList(uint8 scope) public view \n    returns (\n        uint256[] memory id,\n        address[] memory owner,\n        string[] memory bikeType,\n        string[] memory bikeColor,\n        StatusBikeEnum[] memory bikeStatus,\n        uint256[] memory WeiValue)\n        {\n            // 0 = Owner, 1 = All, 2 = For FOR_SALE\n       // uint  _bikeCounter = _bikeInstanceMapCounter; //(scope == 2 ? _bikeForSell.length : _bikeInstanceMapCounter );\n        uint256 _counterReturn; // = (scope == 2 ? _bikeForSell.length : _bikeInstanceMapCounter);\n\n        uint256[] memory ids = new uint256[](scope == 2 ? _bikeForSell.length : _bikeInstanceMapCounter);\n        address[] memory owners = new address[](scope == 2 ? _bikeForSell.length : _bikeInstanceMapCounter);\n        string[] memory types = new string[](scope == 2 ? _bikeForSell.length : _bikeInstanceMapCounter);\n        string[] memory colors = new string[](scope == 2 ? _bikeForSell.length : _bikeInstanceMapCounter);\n        StatusBikeEnum[] memory status = new StatusBikeEnum[](scope == 2 ? _bikeForSell.length : _bikeInstanceMapCounter);\n        uint256[] memory weiValues = new uint256[](scope == 2 ? _bikeForSell.length : _bikeInstanceMapCounter);\n        \n        for (uint256 i = 0; i < _bikeInstanceMapCounter; i++){\n            \n            // All\n            if (scope == 1){\n                ids[i] = i+1;\n                BikeModelStruct memory bike = getBase(_bikeInstanceMap[i+1].instanceAddress).getBike();\n                types[i] = getTypeById(bike.TypeId);\n                status[i] = bike.Status;\n                colors[i] = getColorById(bike.ColorId);\n                weiValues[i] = bike.WeiValue;\n                owners[i] = _bikeInstanceMap[i+1].instanceAddressOwner;\n            }\n            else { // For Sale\n                \n              //  BikeModelStruct memory bike = getBase(_bikeForSell[i]).getBike();\n                BikeModelStruct memory bike = getBase(_bikeInstanceMap[i+1].instanceAddress).getBike();\n                if (bike.Status == StatusBikeEnum.FOR_SALE){\n                    ids[_counterReturn] = i+1;\n                    types[_counterReturn] = getTypeById(bike.TypeId);\n                    status[_counterReturn] = bike.Status;\n                    colors[_counterReturn] = getColorById(bike.ColorId);\n                    weiValues[_counterReturn] = bike.WeiValue;\n                    owners[_counterReturn] = _bikeInstanceMap[i+1].instanceAddressOwner;\n                    _counterReturn++;\n                }\n\n            }\n        }\n        return (ids, owners, types, colors, status, weiValues);\n        \n    }\n\n    function putBikeToSell(uint id, uint weiValue) public returns (bool result){\n        require(\n            _bikeInstanceMap[id].instanceAddressOwner == msg.sender, \n            \"Only Owners Bike can sell Bike\"\n            );\n        _bikeForSell.push(_bikeInstanceMap[id].instanceAddress);\n        emit BikePlacedToSell(id);\n        \n        return getBase(_bikeInstanceMap[id].instanceAddress).setBikeStatus(StatusBikeEnum.FOR_SALE, weiValue);\n\n    }\n\n    // function getBikeToSellList() public view returns (BikeModelStruct[] memory bikeList){\n    //     BikeModelStruct[] memory bikeModelList = new BikeModelStruct[](_bikeForSell.length);\n    //     for (uint i = 0; i < _bikeForSell.length; i++){\n    //         bikeModelList[i] = getBase(_bikeForSell[i]).getBike();\n    //     }\n    //     return bikeModelList;\n    // }\n    // function GetBikeListByOwner() public view returns (BikeModelStruct[] memory bikeList)\n    // {\n    //     BikeModelStruct[] memory bikeModelList = new BikeModelStruct[](_bikeInstanceMapCounter);\n\n    //     for (uint i = 1; i <= _bikeInstanceMapCounter; i++){\n    //         if (_bikeInstanceMap[i].instanceAddressOwner == msg.sender){\n    //             bikeModelList[i-1] = getBase(_bikeInstanceMap[i].instanceAddress).getBike();\n    //         }\n    //     }\n    //     return bikeModelList;\n    // }\nfunction getBikeListByOwner() public view \n    returns (\n            uint256[] memory id,\n            address[] memory owner,\n            string[] memory bikeType,\n            string[] memory bikeColor,\n            StatusBikeEnum[] memory bikeStatus,\n            uint256[] memory WeiValue)\n    {\n        uint ownerCounter;\n        for (uint i = 0; i < _bikeInstanceMapCounter; i++){\n                if (_bikeInstanceMap[i+1].instanceAddressOwner == msg.sender)\n                    ownerCounter++;\n        }\n        uint256[] memory ids = new uint256[](ownerCounter);\n        address[] memory owners = new address[](ownerCounter);\n        string[] memory types = new string[](ownerCounter);\n        string[] memory colors = new string[](ownerCounter);\n        StatusBikeEnum[] memory status = new StatusBikeEnum[](ownerCounter);\n        uint256[] memory weiValues = new uint256[](ownerCounter);\n\n           // BikeModelStruct[] memory bikeModelList = new BikeModelStruct[](_bikeInstanceMapCounter);\n            uint counter;\n            for (uint i = 0; i < _bikeInstanceMapCounter; i++){\n                if (_bikeInstanceMap[i+1].instanceAddressOwner == msg.sender){\n                   // bikeModelList[i] = getBase(_bikeInstanceMap[i+1].instanceAddress).getBike();\n                    BikeModelStruct memory bike = getBase(_bikeInstanceMap[i+1].instanceAddress).getBike();\n                    ids[counter] = i+1;\n                    types[counter] = getTypeById(bike.TypeId);\n                    status[counter] = bike.Status;\n                    colors[counter] = getColorById(bike.ColorId);\n                    weiValues[counter] = bike.WeiValue;\n                    owners[counter] = _bikeInstanceMap[i+1].instanceAddressOwner;\n                    counter++;\n                }\n            }\n\n            return (ids, owners, types, colors, status, weiValues);\n\n    }\n\n    function buyBike(uint id) public payable returns (bool result){\n        require(\n            getBase(_bikeInstanceMap[id].instanceAddress).getBike().Status == StatusBikeEnum.FOR_SALE,\n            \n            \"Bike not for Sell\"\n            \n        );\n        address _to = _bikeInstanceMap[id].instanceAddressOwner; \n        require(\n            _to != msg.sender, \n            \"Owners Bike can not buy your Bike\"\n        );\n\n        require(\n            msg.value == getBase(_bikeInstanceMap[id].instanceAddress).getBike().WeiValue,\n            \"Insuficient or wrong value\"\n        );\n\n        (bool sent, ) = _to.call{ value: msg.value }(\"\");\n        require(sent, \"Failed to send Ether\");\n        \n        address from = _bikeInstanceMap[id].instanceAddressOwner;\n        _bikeInstanceMap[id].instanceAddressOwner = msg.sender;\n\n        for (uint i = 0; i < _bikeForSell.length; i++){\n            if (_bikeForSell[i] == _bikeInstanceMap[id].instanceAddress) {\n                for (uint j = i; j < _bikeForSell.length-1; j++){\n                    _bikeForSell[j] = _bikeForSell[j+1];\n                }\n                _bikeForSell.pop();\n            }\n        }\n        emit TransferedBike(\n            _bikeInstanceMap[id].instanceAddress,\n            from,\n            msg.sender\n        );\n        return getBase(_bikeInstanceMap[id].instanceAddress).transferBike();\n    }\n\n    function getBase(address _baseAddress) internal pure returns(Bike){\n        Bike baseContract = Bike(_baseAddress);\n        return baseContract;\n    }\n\n}",
  "sourcePath": "/mnt/c/Users/ptars/Learn/Blockchain/Consensys/Bootcamp2021/Final Project/code/ptarso.bike.factory/contracts/BikeFactory.sol",
  "compiler": {
    "name": "solc",
    "version": "0.8.10+commit.fc410830.Emscripten.clang"
  },
  "schemaVersion": "3.4.4",
  "updatedAt": "2022-01-14T14:42:27.334Z",
  "devdoc": {
    "kind": "dev",
    "methods": {},
    "version": 1
  },
  "userdoc": {
    "kind": "user",
    "methods": {},
    "version": 1
  }
}