{
  "contractName": "BikeFactory",
  "abi": [
    {
      "inputs": [],
      "stateMutability": "nonpayable",
      "type": "constructor"
    },
    {
      "anonymous": false,
      "inputs": [
        {
          "indexed": true,
          "internalType": "uint256",
          "name": "_bikeColor",
          "type": "uint256"
        },
        {
          "indexed": false,
          "internalType": "string",
          "name": "color",
          "type": "string"
        }
      ],
      "name": "AddedBikeColor",
      "type": "event"
    },
    {
      "anonymous": false,
      "inputs": [
        {
          "indexed": true,
          "internalType": "uint256",
          "name": "bikeType",
          "type": "uint256"
        },
        {
          "indexed": false,
          "internalType": "string",
          "name": "_type",
          "type": "string"
        }
      ],
      "name": "AddedBikeType",
      "type": "event"
    },
    {
      "anonymous": false,
      "inputs": [
        {
          "indexed": true,
          "internalType": "address",
          "name": "account",
          "type": "address"
        }
      ],
      "name": "AdminAdded",
      "type": "event"
    },
    {
      "anonymous": false,
      "inputs": [
        {
          "indexed": true,
          "internalType": "address",
          "name": "account",
          "type": "address"
        }
      ],
      "name": "AdminRemoved",
      "type": "event"
    },
    {
      "anonymous": false,
      "inputs": [
        {
          "indexed": true,
          "internalType": "address",
          "name": "instancecAddress",
          "type": "address"
        }
      ],
      "name": "BikeGenerated",
      "type": "event"
    },
    {
      "anonymous": false,
      "inputs": [
        {
          "indexed": true,
          "internalType": "address",
          "name": "instanceAddress",
          "type": "address"
        },
        {
          "indexed": false,
          "internalType": "string",
          "name": "name",
          "type": "string"
        }
      ],
      "name": "CompanyCreated",
      "type": "event"
    },
    {
      "anonymous": false,
      "inputs": [
        {
          "indexed": true,
          "internalType": "address",
          "name": "bike",
          "type": "address"
        },
        {
          "indexed": false,
          "internalType": "address",
          "name": "from",
          "type": "address"
        },
        {
          "indexed": false,
          "internalType": "address",
          "name": "to",
          "type": "address"
        }
      ],
      "name": "TransferedBike",
      "type": "event"
    },
    {
      "inputs": [
        {
          "internalType": "uint256",
          "name": "",
          "type": "uint256"
        }
      ],
      "name": "_bikeForSell",
      "outputs": [
        {
          "internalType": "address",
          "name": "",
          "type": "address"
        }
      ],
      "stateMutability": "view",
      "type": "function"
    },
    {
      "inputs": [
        {
          "internalType": "address",
          "name": "_account",
          "type": "address"
        }
      ],
      "name": "addAdmin",
      "outputs": [],
      "stateMutability": "nonpayable",
      "type": "function"
    },
    {
      "inputs": [
        {
          "internalType": "string",
          "name": "color",
          "type": "string"
        }
      ],
      "name": "addColor",
      "outputs": [
        {
          "internalType": "uint256",
          "name": "id",
          "type": "uint256"
        }
      ],
      "stateMutability": "nonpayable",
      "type": "function"
    },
    {
      "inputs": [
        {
          "internalType": "string",
          "name": "bikeType",
          "type": "string"
        }
      ],
      "name": "addType",
      "outputs": [
        {
          "internalType": "uint256",
          "name": "id",
          "type": "uint256"
        }
      ],
      "stateMutability": "nonpayable",
      "type": "function"
    },
    {
      "inputs": [],
      "name": "admins",
      "outputs": [
        {
          "internalType": "address[]",
          "name": "",
          "type": "address[]"
        }
      ],
      "stateMutability": "view",
      "type": "function"
    },
    {
      "inputs": [
        {
          "internalType": "uint256",
          "name": "id",
          "type": "uint256"
        }
      ],
      "name": "getColorById",
      "outputs": [
        {
          "internalType": "string",
          "name": "name",
          "type": "string"
        }
      ],
      "stateMutability": "view",
      "type": "function"
    },
    {
      "inputs": [
        {
          "internalType": "uint256",
          "name": "id",
          "type": "uint256"
        }
      ],
      "name": "getTypeById",
      "outputs": [
        {
          "internalType": "string",
          "name": "name",
          "type": "string"
        }
      ],
      "stateMutability": "view",
      "type": "function"
    },
    {
      "inputs": [
        {
          "internalType": "uint256",
          "name": "bikeColor",
          "type": "uint256"
        }
      ],
      "name": "hasColorId",
      "outputs": [
        {
          "internalType": "bool",
          "name": "has",
          "type": "bool"
        }
      ],
      "stateMutability": "view",
      "type": "function"
    },
    {
      "inputs": [
        {
          "internalType": "string",
          "name": "bikeColor",
          "type": "string"
        }
      ],
      "name": "hasColorName",
      "outputs": [
        {
          "internalType": "bool",
          "name": "has",
          "type": "bool"
        }
      ],
      "stateMutability": "view",
      "type": "function"
    },
    {
      "inputs": [
        {
          "internalType": "uint256",
          "name": "bikeType",
          "type": "uint256"
        }
      ],
      "name": "hasType",
      "outputs": [
        {
          "internalType": "bool",
          "name": "has",
          "type": "bool"
        }
      ],
      "stateMutability": "view",
      "type": "function"
    },
    {
      "inputs": [
        {
          "internalType": "address",
          "name": "_account",
          "type": "address"
        }
      ],
      "name": "isAdmin",
      "outputs": [
        {
          "internalType": "bool",
          "name": "",
          "type": "bool"
        }
      ],
      "stateMutability": "view",
      "type": "function"
    },
    {
      "inputs": [],
      "name": "isOwner",
      "outputs": [
        {
          "internalType": "bool",
          "name": "",
          "type": "bool"
        }
      ],
      "stateMutability": "view",
      "type": "function"
    },
    {
      "inputs": [],
      "name": "owner",
      "outputs": [
        {
          "internalType": "address",
          "name": "",
          "type": "address"
        }
      ],
      "stateMutability": "view",
      "type": "function"
    },
    {
      "inputs": [
        {
          "internalType": "address",
          "name": "_account",
          "type": "address"
        }
      ],
      "name": "removeAdmin",
      "outputs": [],
      "stateMutability": "nonpayable",
      "type": "function"
    },
    {
      "inputs": [
        {
          "internalType": "address",
          "name": "companyAddress",
          "type": "address"
        },
        {
          "internalType": "string",
          "name": "name",
          "type": "string"
        }
      ],
      "name": "createCompany",
      "outputs": [],
      "stateMutability": "nonpayable",
      "type": "function"
    },
    {
      "inputs": [
        {
          "internalType": "address",
          "name": "companyAddress",
          "type": "address"
        }
      ],
      "name": "getCompanyByAddress",
      "outputs": [
        {
          "components": [
            {
              "internalType": "string",
              "name": "Name",
              "type": "string"
            },
            {
              "internalType": "enum CompanyModel.StatusCompanyEnum",
              "name": "Status",
              "type": "uint8"
            },
            {
              "internalType": "bool",
              "name": "Exist",
              "type": "bool"
            },
            {
              "internalType": "address",
              "name": "Owner",
              "type": "address"
            }
          ],
          "internalType": "struct CompanyModel.CompanyModelStruct",
          "name": "company",
          "type": "tuple"
        }
      ],
      "stateMutability": "view",
      "type": "function"
    },
    {
      "inputs": [],
      "name": "getCompanyList",
      "outputs": [
        {
          "components": [
            {
              "internalType": "string",
              "name": "Name",
              "type": "string"
            },
            {
              "internalType": "enum CompanyModel.StatusCompanyEnum",
              "name": "Status",
              "type": "uint8"
            },
            {
              "internalType": "bool",
              "name": "Exist",
              "type": "bool"
            },
            {
              "internalType": "address",
              "name": "Owner",
              "type": "address"
            }
          ],
          "internalType": "struct CompanyModel.CompanyModelStruct[]",
          "name": "companyList",
          "type": "tuple[]"
        }
      ],
      "stateMutability": "view",
      "type": "function"
    },
    {
      "inputs": [
        {
          "components": [
            {
              "internalType": "uint256",
              "name": "CreateDate",
              "type": "uint256"
            },
            {
              "internalType": "uint256",
              "name": "EndDate",
              "type": "uint256"
            },
            {
              "internalType": "uint256",
              "name": "WeiValue",
              "type": "uint256"
            },
            {
              "internalType": "enum BikeModel.StatusBikeEnum",
              "name": "Status",
              "type": "uint8"
            },
            {
              "internalType": "uint8",
              "name": "TypeId",
              "type": "uint8"
            },
            {
              "internalType": "uint8",
              "name": "ColorId",
              "type": "uint8"
            },
            {
              "internalType": "string",
              "name": "Type",
              "type": "string"
            },
            {
              "internalType": "string",
              "name": "Color",
              "type": "string"
            }
          ],
          "internalType": "struct BikeModel.BikeModelStruct",
          "name": "bikeModel",
          "type": "tuple"
        }
      ],
      "name": "generateBike",
      "outputs": [],
      "stateMutability": "nonpayable",
      "type": "function"
    },
    {
      "inputs": [
        {
          "internalType": "uint256",
          "name": "id",
          "type": "uint256"
        }
      ],
      "name": "getBikeInstance",
      "outputs": [
        {
          "components": [
            {
              "internalType": "uint256",
              "name": "CreateDate",
              "type": "uint256"
            },
            {
              "internalType": "uint256",
              "name": "EndDate",
              "type": "uint256"
            },
            {
              "internalType": "uint256",
              "name": "WeiValue",
              "type": "uint256"
            },
            {
              "internalType": "enum BikeModel.StatusBikeEnum",
              "name": "Status",
              "type": "uint8"
            },
            {
              "internalType": "uint8",
              "name": "TypeId",
              "type": "uint8"
            },
            {
              "internalType": "uint8",
              "name": "ColorId",
              "type": "uint8"
            },
            {
              "internalType": "string",
              "name": "Type",
              "type": "string"
            },
            {
              "internalType": "string",
              "name": "Color",
              "type": "string"
            }
          ],
          "internalType": "struct BikeModel.BikeModelStruct",
          "name": "bike",
          "type": "tuple"
        }
      ],
      "stateMutability": "view",
      "type": "function"
    },
    {
      "inputs": [],
      "name": "getBikeList",
      "outputs": [
        {
          "components": [
            {
              "internalType": "uint256",
              "name": "CreateDate",
              "type": "uint256"
            },
            {
              "internalType": "uint256",
              "name": "EndDate",
              "type": "uint256"
            },
            {
              "internalType": "uint256",
              "name": "WeiValue",
              "type": "uint256"
            },
            {
              "internalType": "enum BikeModel.StatusBikeEnum",
              "name": "Status",
              "type": "uint8"
            },
            {
              "internalType": "uint8",
              "name": "TypeId",
              "type": "uint8"
            },
            {
              "internalType": "uint8",
              "name": "ColorId",
              "type": "uint8"
            },
            {
              "internalType": "string",
              "name": "Type",
              "type": "string"
            },
            {
              "internalType": "string",
              "name": "Color",
              "type": "string"
            }
          ],
          "internalType": "struct BikeModel.BikeModelStruct[]",
          "name": "bikeList",
          "type": "tuple[]"
        }
      ],
      "stateMutability": "view",
      "type": "function"
    },
    {
      "inputs": [
        {
          "internalType": "uint256",
          "name": "id",
          "type": "uint256"
        },
        {
          "internalType": "uint256",
          "name": "weiValue",
          "type": "uint256"
        }
      ],
      "name": "putBikeToSell",
      "outputs": [
        {
          "internalType": "bool",
          "name": "result",
          "type": "bool"
        }
      ],
      "stateMutability": "nonpayable",
      "type": "function"
    },
    {
      "inputs": [],
      "name": "getBikeToSellList",
      "outputs": [
        {
          "components": [
            {
              "internalType": "uint256",
              "name": "CreateDate",
              "type": "uint256"
            },
            {
              "internalType": "uint256",
              "name": "EndDate",
              "type": "uint256"
            },
            {
              "internalType": "uint256",
              "name": "WeiValue",
              "type": "uint256"
            },
            {
              "internalType": "enum BikeModel.StatusBikeEnum",
              "name": "Status",
              "type": "uint8"
            },
            {
              "internalType": "uint8",
              "name": "TypeId",
              "type": "uint8"
            },
            {
              "internalType": "uint8",
              "name": "ColorId",
              "type": "uint8"
            },
            {
              "internalType": "string",
              "name": "Type",
              "type": "string"
            },
            {
              "internalType": "string",
              "name": "Color",
              "type": "string"
            }
          ],
          "internalType": "struct BikeModel.BikeModelStruct[]",
          "name": "bikeList",
          "type": "tuple[]"
        }
      ],
      "stateMutability": "view",
      "type": "function"
    },
    {
      "inputs": [],
      "name": "GetBikeListByOwner",
      "outputs": [
        {
          "components": [
            {
              "internalType": "uint256",
              "name": "CreateDate",
              "type": "uint256"
            },
            {
              "internalType": "uint256",
              "name": "EndDate",
              "type": "uint256"
            },
            {
              "internalType": "uint256",
              "name": "WeiValue",
              "type": "uint256"
            },
            {
              "internalType": "enum BikeModel.StatusBikeEnum",
              "name": "Status",
              "type": "uint8"
            },
            {
              "internalType": "uint8",
              "name": "TypeId",
              "type": "uint8"
            },
            {
              "internalType": "uint8",
              "name": "ColorId",
              "type": "uint8"
            },
            {
              "internalType": "string",
              "name": "Type",
              "type": "string"
            },
            {
              "internalType": "string",
              "name": "Color",
              "type": "string"
            }
          ],
          "internalType": "struct BikeModel.BikeModelStruct[]",
          "name": "bikeList",
          "type": "tuple[]"
        }
      ],
      "stateMutability": "view",
      "type": "function"
    },
    {
      "inputs": [
        {
          "internalType": "uint256",
          "name": "id",
          "type": "uint256"
        }
      ],
      "name": "buyBike",
      "outputs": [
        {
          "internalType": "bool",
          "name": "result",
          "type": "bool"
        }
      ],
      "stateMutability": "payable",
      "type": "function"
    },
    {
      "inputs": [
        {
          "internalType": "address",
          "name": "_baseAddress",
          "type": "address"
        }
      ],
      "name": "getBase",
      "outputs": [
        {
          "internalType": "contract Bike",
          "name": "",
          "type": "address"
        }
      ],
      "stateMutability": "pure",
      "type": "function"
    }
  ],
  "bytecode": "0x60806040523480156200001157600080fd5b50336000806101000a81548173ffffffffffffffffffffffffffffffffffffffff021916908373ffffffffffffffffffffffffffffffffffffffff16021790555062000063336200040f60201b60201c565b600380600181540180825580915050600190039060005260206000200160006040518060400160405280600981526020017f556e646566696e6564000000000000000000000000000000000000000000000081525090919091509080519060200190620000d292919062000a20565b50600480600181540180825580915050600190039060005260206000200160006040518060400160405280600481526020017f4e6f6e6500000000000000000000000000000000000000000000000000000000815250909190915090805190602001906200014292919062000a20565b50620001896040518060400160405280600581526020017f57686974650000000000000000000000000000000000000000000000000000008152506200047060201b60201c565b50620001d06040518060400160405280600681526020017f59656c6c6f7700000000000000000000000000000000000000000000000000008152506200047060201b60201c565b50620002176040518060400160405280600481526020017f426c7565000000000000000000000000000000000000000000000000000000008152506200047060201b60201c565b506200025e6040518060400160405280600681526020017f47726565656e00000000000000000000000000000000000000000000000000008152506200047060201b60201c565b50620002a56040518060400160405280600581526020017f426c61636b0000000000000000000000000000000000000000000000000000008152506200047060201b60201c565b50620002ec6040518060400160405280600381526020017f52656400000000000000000000000000000000000000000000000000000000008152506200047060201b60201c565b50620003336040518060400160405280600581526020017f557262616e000000000000000000000000000000000000000000000000000000815250620005be60201b60201c565b506200037a6040518060400160405280600781526020017f4d6f6e7461696e00000000000000000000000000000000000000000000000000815250620005be60201b60201c565b50620003c16040518060400160405280600881526020017f456c656374726963000000000000000000000000000000000000000000000000815250620005be60201b60201c565b50620004086040518060400160405280600681526020017f4879627269640000000000000000000000000000000000000000000000000000815250620005be60201b60201c565b5062000ff0565b6200042a816001620006aa60201b6200271d1790919060201c565b8073ffffffffffffffffffffffffffffffffffffffff167f44d6d25963f097ad14f29f06854a01f575648a1ef82f30e562ccd3889717e33960405160405180910390a250565b600062000482620007c360201b60201c565b620004c4576040517f08c379a0000000000000000000000000000000000000000000000000000000008152600401620004bb9062000b31565b60405180910390fd5b620004d5826200081a60201b60201c565b1562000518576040517f08c379a00000000000000000000000000000000000000000000000000000000081526004016200050f9062000ba3565b60405180910390fd5b6004829080600181540180825580915050600190039060005260206000200160009091909190915090805190602001906200055592919062000a20565b5060016004805490506200056a919062000bfe565b7fe8f2d5e1077776dd49f0c41eff64cc2d666891f43bf743709a06752331647fd9836040516200059b919062000ccc565b60405180910390a26001600480549050620005b7919062000bfe565b9050919050565b6000620005d0620007c360201b60201c565b62000612576040517f08c379a0000000000000000000000000000000000000000000000000000000008152600401620006099062000b31565b60405180910390fd5b6003829080600181540180825580915050600190039060005260206000200160009091909190915090805190602001906200064f92919062000a20565b50600160038054905062000664919062000bfe565b7f775f0bedea302366da4f840798b787d49a486af6d7a75c52d8b306a50e6812688360405162000695919062000ccc565b60405180910390a26003805490509050919050565b620006bc8282620008d560201b60201c565b15620006ff576040517f08c379a0000000000000000000000000000000000000000000000000000000008152600401620006f69062000d40565b60405180910390fd5b81600101819080600181540180825580915050600190039060005260206000200160009091909190916101000a81548173ffffffffffffffffffffffffffffffffffffffff021916908373ffffffffffffffffffffffffffffffffffffffff160217905550600182600101805490506200077a919062000bfe565b8260000160008373ffffffffffffffffffffffffffffffffffffffff1673ffffffffffffffffffffffffffffffffffffffff168152602001908152602001600020819055505050565b60008060009054906101000a900473ffffffffffffffffffffffffffffffffffffffff1673ffffffffffffffffffffffffffffffffffffffff163373ffffffffffffffffffffffffffffffffffffffff1614905090565b600080600090505b600480549050811015620008ca578260405160200162000843919062000da4565b604051602081830303815290604052805190602001206004828154811062000870576200086f62000dbd565b5b906000526020600020016040516020016200088c919062000ef1565b604051602081830303815290604052805190602001201415620008b4576001915050620008d0565b8080620008c19062000f0a565b91505062000822565b50600090505b919050565b60008073ffffffffffffffffffffffffffffffffffffffff168273ffffffffffffffffffffffffffffffffffffffff16141562000949576040517f08c379a0000000000000000000000000000000000000000000000000000000008152600401620009409062000fce565b60405180910390fd5b60008360010180549050141562000964576000905062000a1a565b8173ffffffffffffffffffffffffffffffffffffffff16836001018460000160008573ffffffffffffffffffffffffffffffffffffffff1673ffffffffffffffffffffffffffffffffffffffff1681526020019081526020016000205481548110620009d557620009d462000dbd565b5b9060005260206000200160009054906101000a900473ffffffffffffffffffffffffffffffffffffffff1673ffffffffffffffffffffffffffffffffffffffff161490505b92915050565b82805462000a2e9062000e1b565b90600052602060002090601f01602090048101928262000a52576000855562000a9e565b82601f1062000a6d57805160ff191683800117855562000a9e565b8280016001018555821562000a9e579182015b8281111562000a9d57825182559160200191906001019062000a80565b5b50905062000aad919062000ab1565b5090565b5b8082111562000acc57600081600090555060010162000ab2565b5090565b600082825260208201905092915050565b7f4f776e61626c653a2063616c6c6572206973206e6f7420746865206f776e6572600082015250565b600062000b1960208362000ad0565b915062000b268262000ae1565b602082019050919050565b6000602082019050818103600083015262000b4c8162000b0a565b9050919050565b7f436f6c6f7220616c726561647920657869737400000000000000000000000000600082015250565b600062000b8b60138362000ad0565b915062000b988262000b53565b602082019050919050565b6000602082019050818103600083015262000bbe8162000b7c565b9050919050565b6000819050919050565b7f4e487b7100000000000000000000000000000000000000000000000000000000600052601160045260246000fd5b600062000c0b8262000bc5565b915062000c188362000bc5565b92508282101562000c2e5762000c2d62000bcf565b5b828203905092915050565b600081519050919050565b60005b8381101562000c6457808201518184015260208101905062000c47565b8381111562000c74576000848401525b50505050565b6000601f19601f8301169050919050565b600062000c988262000c39565b62000ca4818562000ad0565b935062000cb681856020860162000c44565b62000cc18162000c7a565b840191505092915050565b6000602082019050818103600083015262000ce8818462000c8b565b905092915050565b7f526f6c65733a206163636f756e7420616c72656164792068617320726f6c6500600082015250565b600062000d28601f8362000ad0565b915062000d358262000cf0565b602082019050919050565b6000602082019050818103600083015262000d5b8162000d19565b9050919050565b600081905092915050565b600062000d7a8262000c39565b62000d86818562000d62565b935062000d9881856020860162000c44565b80840191505092915050565b600062000db2828462000d6d565b915081905092915050565b7f4e487b7100000000000000000000000000000000000000000000000000000000600052603260045260246000fd5b7f4e487b7100000000000000000000000000000000000000000000000000000000600052602260045260246000fd5b6000600282049050600182168062000e3457607f821691505b6020821081141562000e4b5762000e4a62000dec565b5b50919050565b60008190508160005260206000209050919050565b6000815462000e758162000e1b565b62000e81818662000d62565b9450600182166000811462000e9f576001811462000eb15762000ee8565b60ff1983168652818601935062000ee8565b62000ebc8562000e51565b60005b8381101562000ee05781548189015260018201915060208101905062000ebf565b838801955050505b50505092915050565b600062000eff828462000e66565b915081905092915050565b600062000f178262000bc5565b91507fffffffffffffffffffffffffffffffffffffffffffffffffffffffffffffffff82141562000f4d5762000f4c62000bcf565b5b600182019050919050565b7f526f6c65733a206163636f756e742061646472657373206973206e6f7420766160008201527f6c69640000000000000000000000000000000000000000000000000000000000602082015250565b600062000fb660238362000ad0565b915062000fc38262000f58565b604082019050919050565b6000602082019050818103600083015262000fe98162000fa7565b9050919050565b615c6080620010006000396000f3fe608060405260043610620001885760003560e01c8063722cb0c311620000e5578063ae0aad251162000097578063bb141dc3116200006d578063bb141dc31462000659578063e7f08e691462000689578063f117dd5b14620006cd578063f3ab7f9914620007115762000188565b8063ae0aad2514620005a1578063ae44a32614620005e5578063b6aa991614620006155762000188565b8063722cb0c314620004595780638da5cb5b146200049d5780638f32d59b14620004cd57806393b7ece714620004fd57806395ffef52146200052d578063a5de361914620005715762000188565b806345a464c6116200013f57806345a464c61462000301578063472f576e14620003455780635433a42b146200037357806369358e2e14620003b75780636c5a105814620003e757806370480275146200042b5762000188565b8063077ebe1c146200018d5780630d1ef6ee14620001d157806315341f2b14620002155780631785f53c146200025957806324d7806c146200028757806330f59f0f14620002cb575b600080fd5b3480156200019a57600080fd5b50620001b96004803603810190620001b3919062002f54565b6200073f565b604051620001c8919062002fa3565b60405180910390f35b348015620001de57600080fd5b50620001fd6004803603810190620001f7919062002f54565b6200075d565b6040516200020c9190620031da565b60405180910390f35b3480156200022257600080fd5b506200024160048036038101906200023b91906200334f565b62000825565b604051620002509190620033b1565b60405180910390f35b3480156200026657600080fd5b506200028560048036038101906200027f919062003433565b62000967565b005b3480156200029457600080fd5b50620002b36004803603810190620002ad919062003433565b620009c2565b604051620002c2919062002fa3565b60405180910390f35b620002e96004803603810190620002e3919062002f54565b620009e1565b604051620002f8919062002fa3565b60405180910390f35b3480156200030e57600080fd5b506200032d600480360381019062000327919062003465565b62001149565b6040516200033c919062002fa3565b60405180910390f35b3480156200035257600080fd5b506200037160048036038101906200036b91906200362c565b62001357565b005b3480156200038057600080fd5b506200039f600480360381019062000399919062002f54565b620016ab565b604051620003ae91906200368e565b60405180910390f35b348015620003c457600080fd5b50620003cf620016eb565b604051620003de919062003859565b60405180910390f35b348015620003f457600080fd5b506200041360048036038101906200040d91906200334f565b62001978565b60405162000422919062002fa3565b60405180910390f35b3480156200043857600080fd5b5062000457600480360381019062000451919062003433565b62001a33565b005b3480156200046657600080fd5b506200048560048036038101906200047f919062002f54565b62001a8e565b60405162000494919062002fa3565b60405180910390f35b348015620004aa57600080fd5b50620004b562001aac565b604051620004c491906200368e565b60405180910390f35b348015620004da57600080fd5b50620004e562001ad5565b604051620004f4919062002fa3565b60405180910390f35b3480156200050a57600080fd5b506200051562001b2c565b60405162000524919062003a14565b60405180910390f35b3480156200053a57600080fd5b5062000559600480360381019062000553919062003433565b62001ca4565b60405162000568919062003aa3565b60405180910390f35b3480156200057e57600080fd5b506200058962001cb3565b60405162000598919062003b7d565b60405180910390f35b348015620005ae57600080fd5b50620005cd6004803603810190620005c7919062002f54565b62001cc6565b604051620005dc919062003bf3565b60405180910390f35b348015620005f257600080fd5b50620005fd62001d81565b6040516200060c919062003a14565b60405180910390f35b3480156200062257600080fd5b506200064160048036038101906200063b919062002f54565b62001ef9565b60405162000650919062003bf3565b60405180910390f35b3480156200066657600080fd5b506200067162001fb4565b60405162000680919062003a14565b60405180910390f35b3480156200069657600080fd5b50620006b56004803603810190620006af91906200334f565b62002198565b604051620006c49190620033b1565b60405180910390f35b348015620006da57600080fd5b50620006f96004803603810190620006f3919062003433565b6200227e565b60405162000708919062003c82565b60405180910390f35b3480156200071e57600080fd5b506200073d600480360381019062000737919062003ca6565b62002425565b005b600081600480549050118015620007565750600082115b9050919050565b6200076762002d92565b620007a86005600084815260200190815260200160002060000160009054906101000a900473ffffffffffffffffffffffffffffffffffffffff1662001ca4565b73ffffffffffffffffffffffffffffffffffffffff1663a7ff89d76040518163ffffffff1660e01b8152600401600060405180830381865afa158015620007f3573d6000803e3d6000fd5b505050506040513d6000823e3d601f19601f820116820180604052508101906200081e919062003eec565b9050919050565b60006200083162001ad5565b62000873576040517f08c379a00000000000000000000000000000000000000000000000000000000081526004016200086a9062003f8d565b60405180910390fd5b6200087e8262001978565b15620008c1576040517f08c379a0000000000000000000000000000000000000000000000000000000008152600401620008b89062003fff565b60405180910390fd5b600482908060018154018082558091505060019003906000526020600020016000909190919091509080519060200190620008fe92919062002df2565b50600160048054905062000913919062004050565b7fe8f2d5e1077776dd49f0c41eff64cc2d666891f43bf743709a06752331647fd98360405162000944919062003bf3565b60405180910390a2600160048054905062000960919062004050565b9050919050565b6200097233620009c2565b620009b4576040517f08c379a0000000000000000000000000000000000000000000000000000000008152600401620009ab9062004101565b60405180910390fd5b620009bf8162002830565b50565b6000620009da826001620028fe90919063ffffffff16565b9050919050565b600060026005811115620009fa57620009f962002fd1565b5b62000a3b6005600085815260200190815260200160002060000160009054906101000a900473ffffffffffffffffffffffffffffffffffffffff1662001ca4565b73ffffffffffffffffffffffffffffffffffffffff1663a7ff89d76040518163ffffffff1660e01b8152600401600060405180830381865afa15801562000a86573d6000803e3d6000fd5b505050506040513d6000823e3d601f19601f8201168201806040525081019062000ab1919062003eec565b60600151600581111562000aca5762000ac962002fd1565b5b1462000b0d576040517f08c379a000000000000000000000000000000000000000000000000000000000815260040162000b049062004173565b60405180910390fd5b60006005600084815260200190815260200160002060010160009054906101000a900473ffffffffffffffffffffffffffffffffffffffff1690503373ffffffffffffffffffffffffffffffffffffffff168173ffffffffffffffffffffffffffffffffffffffff16141562000bba576040517f08c379a000000000000000000000000000000000000000000000000000000000815260040162000bb1906200420b565b60405180910390fd5b62000bfb6005600085815260200190815260200160002060000160009054906101000a900473ffffffffffffffffffffffffffffffffffffffff1662001ca4565b73ffffffffffffffffffffffffffffffffffffffff1663a7ff89d76040518163ffffffff1660e01b8152600401600060405180830381865afa15801562000c46573d6000803e3d6000fd5b505050506040513d6000823e3d601f19601f8201168201806040525081019062000c71919062003eec565b60400151341462000cb9576040517f08c379a000000000000000000000000000000000000000000000000000000000815260040162000cb090620042a3565b60405180910390fd5b60008173ffffffffffffffffffffffffffffffffffffffff163460405162000ce190620042fa565b60006040518083038185875af1925050503d806000811462000d20576040519150601f19603f3d011682016040523d82523d6000602084013e62000d25565b606091505b505090508062000d6c576040517f08c379a000000000000000000000000000000000000000000000000000000000815260040162000d639062004361565b60405180910390fd5b60006005600086815260200190815260200160002060010160009054906101000a900473ffffffffffffffffffffffffffffffffffffffff169050336005600087815260200190815260200160002060010160006101000a81548173ffffffffffffffffffffffffffffffffffffffff021916908373ffffffffffffffffffffffffffffffffffffffff16021790555060005b60098054905081101562001002576005600087815260200190815260200160002060000160009054906101000a900473ffffffffffffffffffffffffffffffffffffffff1673ffffffffffffffffffffffffffffffffffffffff166009828154811062000e715762000e7062004383565b5b9060005260206000200160009054906101000a900473ffffffffffffffffffffffffffffffffffffffff1673ffffffffffffffffffffffffffffffffffffffff16141562000fec5760008190505b600160098054905062000ed3919062004050565b81101562000fa057600960018262000eec9190620043b2565b8154811062000f005762000eff62004383565b5b9060005260206000200160009054906101000a900473ffffffffffffffffffffffffffffffffffffffff166009828154811062000f425762000f4162004383565b5b9060005260206000200160006101000a81548173ffffffffffffffffffffffffffffffffffffffff021916908373ffffffffffffffffffffffffffffffffffffffff160217905550808062000f97906200440f565b91505062000ebf565b50600980548062000fb65762000fb56200445d565b5b6001900381819060005260206000200160006101000a81549073ffffffffffffffffffffffffffffffffffffffff021916905590555b808062000ff9906200440f565b91505062000dff565b506005600086815260200190815260200160002060000160009054906101000a900473ffffffffffffffffffffffffffffffffffffffff1673ffffffffffffffffffffffffffffffffffffffff167f353ce1acabf7053ab5d4da9d9392aefeaf63c4e7d6f531bff8c13e674f5bc22b8233604051620010839291906200448c565b60405180910390a2620010cc6005600087815260200190815260200160002060000160009054906101000a900473ffffffffffffffffffffffffffffffffffffffff1662001ca4565b73ffffffffffffffffffffffffffffffffffffffff166392e42bdb6040518163ffffffff1660e01b81526004016020604051808303816000875af115801562001119573d6000803e3d6000fd5b505050506040513d601f19601f820116820180604052508101906200113f9190620044ea565b9350505050919050565b60003373ffffffffffffffffffffffffffffffffffffffff166005600085815260200190815260200160002060010160009054906101000a900473ffffffffffffffffffffffffffffffffffffffff1673ffffffffffffffffffffffffffffffffffffffff1614620011f2576040517f08c379a0000000000000000000000000000000000000000000000000000000008152600401620011e9906200456c565b60405180910390fd5b60096005600085815260200190815260200160002060000160009054906101000a900473ffffffffffffffffffffffffffffffffffffffff169080600181540180825580915050600190039060005260206000200160009091909190916101000a81548173ffffffffffffffffffffffffffffffffffffffff021916908373ffffffffffffffffffffffffffffffffffffffff160217905550620012cc6005600085815260200190815260200160002060000160009054906101000a900473ffffffffffffffffffffffffffffffffffffffff1662001ca4565b73ffffffffffffffffffffffffffffffffffffffff166311eb74a76002846040518363ffffffff1660e01b8152600401620013099291906200459f565b6020604051808303816000875af115801562001329573d6000803e3d6000fd5b505050506040513d601f19601f820116820180604052508101906200134f9190620044ea565b905092915050565b6200136233620009c2565b620013a4576040517f08c379a00000000000000000000000000000000000000000000000000000000081526004016200139b9062004101565b60405180910390fd5b60011515620013ba826080015160ff1662001a8e565b151514620013ff576040517f08c379a0000000000000000000000000000000000000000000000000000000008152600401620013f6906200461c565b60405180910390fd5b60011515620014158260a0015160ff166200073f565b1515146200145a576040517f08c379a000000000000000000000000000000000000000000000000000000000815260040162001451906200468e565b60405180910390fd5b600760003373ffffffffffffffffffffffffffffffffffffffff1673ffffffffffffffffffffffffffffffffffffffff16815260200190815260200160002060010160019054906101000a900460ff16620014ec576040517f08c379a0000000000000000000000000000000000000000000000000000000008152600401620014e39062004700565b60405180910390fd5b620014fe816080015160ff1662001ef9565b8160c00181905250620015188160a0015160ff1662001cc6565b8160e00181905250600081604051620015319062002e83565b6200153d9190620031da565b604051809103906000f0801580156200155a573d6000803e3d6000fd5b50905060008190506006600081548092919062001577906200440f565b919050555060405180604001604052808273ffffffffffffffffffffffffffffffffffffffff1681526020013373ffffffffffffffffffffffffffffffffffffffff1681525060056000600654815260200190815260200160002060008201518160000160006101000a81548173ffffffffffffffffffffffffffffffffffffffff021916908373ffffffffffffffffffffffffffffffffffffffff16021790555060208201518160010160006101000a81548173ffffffffffffffffffffffffffffffffffffffff021916908373ffffffffffffffffffffffffffffffffffffffff1602179055509050508073ffffffffffffffffffffffffffffffffffffffff167f783cf24cc63271a871f797878968f8784c1f4681dffdf376e0d4398df2b4025c60405160405180910390a2505050565b60098181548110620016bc57600080fd5b906000526020600020016000915054906101000a900473ffffffffffffffffffffffffffffffffffffffff1681565b6060600060088054905067ffffffffffffffff81111562001711576200171062003208565b5b6040519080825280602002602001820160405280156200174e57816020015b6200173a62002e91565b815260200190600190039081620017305790505b50905060005b600880549050811015620019705760076000600883815481106200177d576200177c62004383565b5b9060005260206000200160009054906101000a900473ffffffffffffffffffffffffffffffffffffffff1673ffffffffffffffffffffffffffffffffffffffff1673ffffffffffffffffffffffffffffffffffffffff168152602001908152602001600020604051806080016040529081600082018054620017ff9062004751565b80601f01602080910402602001604051908101604052809291908181526020018280546200182d9062004751565b80156200187e5780601f1062001852576101008083540402835291602001916200187e565b820191906000526020600020905b8154815290600101906020018083116200186057829003601f168201915b505050505081526020016001820160009054906101000a900460ff166002811115620018af57620018ae62002fd1565b5b6002811115620018c457620018c362002fd1565b5b81526020016001820160019054906101000a900460ff161515151581526020016001820160029054906101000a900473ffffffffffffffffffffffffffffffffffffffff1673ffffffffffffffffffffffffffffffffffffffff1673ffffffffffffffffffffffffffffffffffffffff16815250508282815181106200194f576200194e62004383565b5b6020026020010181905250808062001967906200440f565b91505062001754565b508091505090565b600080600090505b60048054905081101562001a285782604051602001620019a19190620047c9565b6040516020818303038152906040528051906020012060048281548110620019ce57620019cd62004383565b5b90600052602060002001604051602001620019ea919062004882565b60405160208183030381529060405280519060200120141562001a1257600191505062001a2e565b808062001a1f906200440f565b91505062001980565b50600090505b919050565b62001a3e33620009c2565b62001a80576040517f08c379a000000000000000000000000000000000000000000000000000000000815260040162001a779062004101565b60405180910390fd5b62001a8b8162002a49565b50565b60008160038054905011801562001aa55750600082115b9050919050565b60008060009054906101000a900473ffffffffffffffffffffffffffffffffffffffff16905090565b60008060009054906101000a900473ffffffffffffffffffffffffffffffffffffffff1673ffffffffffffffffffffffffffffffffffffffff163373ffffffffffffffffffffffffffffffffffffffff1614905090565b6060600060065467ffffffffffffffff81111562001b4f5762001b4e62003208565b5b60405190808252806020026020018201604052801562001b8c57816020015b62001b7862002d92565b81526020019060019003908162001b6e5790505b5090506000600190505b600654811162001c9c5762001be16005600083815260200190815260200160002060000160009054906101000a900473ffffffffffffffffffffffffffffffffffffffff1662001ca4565b73ffffffffffffffffffffffffffffffffffffffff1663a7ff89d76040518163ffffffff1660e01b8152600401600060405180830381865afa15801562001c2c573d6000803e3d6000fd5b505050506040513d6000823e3d601f19601f8201168201806040525081019062001c57919062003eec565b8260018362001c67919062004050565b8151811062001c7b5762001c7a62004383565b5b6020026020010181905250808062001c93906200440f565b91505062001b96565b508091505090565b60008082905080915050919050565b606062001cc1600162002aa5565b905090565b60606004828154811062001cdf5762001cde62004383565b5b90600052602060002001805462001cf69062004751565b80601f016020809104026020016040519081016040528092919081815260200182805462001d249062004751565b801562001d755780601f1062001d495761010080835404028352916020019162001d75565b820191906000526020600020905b81548152906001019060200180831162001d5757829003601f168201915b50505050509050919050565b6060600060098054905067ffffffffffffffff81111562001da75762001da662003208565b5b60405190808252806020026020018201604052801562001de457816020015b62001dd062002d92565b81526020019060019003908162001dc65790505b50905060005b60098054905081101562001ef15762001e446009828154811062001e135762001e1262004383565b5b9060005260206000200160009054906101000a900473ffffffffffffffffffffffffffffffffffffffff1662001ca4565b73ffffffffffffffffffffffffffffffffffffffff1663a7ff89d76040518163ffffffff1660e01b8152600401600060405180830381865afa15801562001e8f573d6000803e3d6000fd5b505050506040513d6000823e3d601f19601f8201168201806040525081019062001eba919062003eec565b82828151811062001ed05762001ecf62004383565b5b6020026020010181905250808062001ee8906200440f565b91505062001dea565b508091505090565b60606003828154811062001f125762001f1162004383565b5b90600052602060002001805462001f299062004751565b80601f016020809104026020016040519081016040528092919081815260200182805462001f579062004751565b801562001fa85780601f1062001f7c5761010080835404028352916020019162001fa8565b820191906000526020600020905b81548152906001019060200180831162001f8a57829003601f168201915b50505050509050919050565b6060600060065467ffffffffffffffff81111562001fd75762001fd662003208565b5b6040519080825280602002602001820160405280156200201457816020015b6200200062002d92565b81526020019060019003908162001ff65790505b5090506000600190505b600654811162002190573373ffffffffffffffffffffffffffffffffffffffff166005600083815260200190815260200160002060010160009054906101000a900473ffffffffffffffffffffffffffffffffffffffff1673ffffffffffffffffffffffffffffffffffffffff1614156200217a57620020d46005600083815260200190815260200160002060000160009054906101000a900473ffffffffffffffffffffffffffffffffffffffff1662001ca4565b73ffffffffffffffffffffffffffffffffffffffff1663a7ff89d76040518163ffffffff1660e01b8152600401600060405180830381865afa1580156200211f573d6000803e3d6000fd5b505050506040513d6000823e3d601f19601f820116820180604052508101906200214a919062003eec565b826001836200215a919062004050565b815181106200216e576200216d62004383565b5b60200260200101819052505b808062002187906200440f565b9150506200201e565b508091505090565b6000620021a462001ad5565b620021e6576040517f08c379a0000000000000000000000000000000000000000000000000000000008152600401620021dd9062003f8d565b60405180910390fd5b6003829080600181540180825580915050600190039060005260206000200160009091909190915090805190602001906200222392919062002df2565b50600160038054905062002238919062004050565b7f775f0bedea302366da4f840798b787d49a486af6d7a75c52d8b306a50e6812688360405162002269919062003bf3565b60405180910390a26003805490509050919050565b6200228862002e91565b600760008373ffffffffffffffffffffffffffffffffffffffff1673ffffffffffffffffffffffffffffffffffffffff168152602001908152602001600020604051806080016040529081600082018054620022e49062004751565b80601f0160208091040260200160405190810160405280929190818152602001828054620023129062004751565b8015620023635780601f10620023375761010080835404028352916020019162002363565b820191906000526020600020905b8154815290600101906020018083116200234557829003601f168201915b505050505081526020016001820160009054906101000a900460ff16600281111562002394576200239362002fd1565b5b6002811115620023a957620023a862002fd1565b5b81526020016001820160019054906101000a900460ff161515151581526020016001820160029054906101000a900473ffffffffffffffffffffffffffffffffffffffff1673ffffffffffffffffffffffffffffffffffffffff1673ffffffffffffffffffffffffffffffffffffffff16815250509050919050565b6200242f62001ad5565b62002471576040517f08c379a0000000000000000000000000000000000000000000000000000000008152600401620024689062003f8d565b60405180910390fd5b600073ffffffffffffffffffffffffffffffffffffffff168273ffffffffffffffffffffffffffffffffffffffff161415620024e4576040517f08c379a0000000000000000000000000000000000000000000000000000000008152600401620024db9062004911565b60405180910390fd5b600760008373ffffffffffffffffffffffffffffffffffffffff1673ffffffffffffffffffffffffffffffffffffffff16815260200190815260200160002060010160019054906101000a900460ff161562002577576040517f08c379a00000000000000000000000000000000000000000000000000000000081526004016200256e9062004983565b60405180910390fd5b6000600760008473ffffffffffffffffffffffffffffffffffffffff1673ffffffffffffffffffffffffffffffffffffffff168152602001908152602001600020905081816000019080519060200190620025d492919062002df2565b5060008160010160006101000a81548160ff021916908360028111156200260057620025ff62002fd1565b5b021790555060018160010160016101000a81548160ff021916908315150217905550828160010160026101000a81548173ffffffffffffffffffffffffffffffffffffffff021916908373ffffffffffffffffffffffffffffffffffffffff1602179055506008839080600181540180825580915050600190039060005260206000200160009091909190916101000a81548173ffffffffffffffffffffffffffffffffffffffff021916908373ffffffffffffffffffffffffffffffffffffffff1602179055508273ffffffffffffffffffffffffffffffffffffffff167f85fab8e92bf0510a5cb6805fc4c546db423a5700b84984f94e2ddb727b132b658360405162002710919062003bf3565b60405180910390a2505050565b620027298282620028fe565b156200276c576040517f08c379a00000000000000000000000000000000000000000000000000000000081526004016200276390620049f5565b60405180910390fd5b81600101819080600181540180825580915050600190039060005260206000200160009091909190916101000a81548173ffffffffffffffffffffffffffffffffffffffff021916908373ffffffffffffffffffffffffffffffffffffffff16021790555060018260010180549050620027e7919062004050565b8260000160008373ffffffffffffffffffffffffffffffffffffffff1673ffffffffffffffffffffffffffffffffffffffff168152602001908152602001600020819055505050565b3373ffffffffffffffffffffffffffffffffffffffff168173ffffffffffffffffffffffffffffffffffffffff161415620028a2576040517f08c379a0000000000000000000000000000000000000000000000000000000008152600401620028999062004a8d565b60405180910390fd5b620028b881600162002b3990919063ffffffff16565b8073ffffffffffffffffffffffffffffffffffffffff167fa3b62bc36326052d97ea62d63c3d60308ed4c3ea8ac079dd8499f1e9c4f80c0f60405160405180910390a250565b60008073ffffffffffffffffffffffffffffffffffffffff168273ffffffffffffffffffffffffffffffffffffffff16141562002972576040517f08c379a0000000000000000000000000000000000000000000000000000000008152600401620029699062004b25565b60405180910390fd5b6000836001018054905014156200298d576000905062002a43565b8173ffffffffffffffffffffffffffffffffffffffff16836001018460000160008573ffffffffffffffffffffffffffffffffffffffff1673ffffffffffffffffffffffffffffffffffffffff1681526020019081526020016000205481548110620029fe57620029fd62004383565b5b9060005260206000200160009054906101000a900473ffffffffffffffffffffffffffffffffffffffff1673ffffffffffffffffffffffffffffffffffffffff161490505b92915050565b62002a5f8160016200271d90919063ffffffff16565b8073ffffffffffffffffffffffffffffffffffffffff167f44d6d25963f097ad14f29f06854a01f575648a1ef82f30e562ccd3889717e33960405160405180910390a250565b60608160010180548060200260200160405190810160405280929190818152602001828054801562002b2d57602002820191906000526020600020905b8160009054906101000a900473ffffffffffffffffffffffffffffffffffffffff1673ffffffffffffffffffffffffffffffffffffffff168152602001906001019080831162002ae2575b50505050509050919050565b62002b458282620028fe565b62002b87576040517f08c379a000000000000000000000000000000000000000000000000000000000815260040162002b7e9062004bbd565b60405180910390fd5b600082600101600162002b9a8562002d81565b62002ba6919062004050565b8154811062002bba5762002bb962004383565b5b9060005260206000200160009054906101000a900473ffffffffffffffffffffffffffffffffffffffff16905060008360000160008473ffffffffffffffffffffffffffffffffffffffff1673ffffffffffffffffffffffffffffffffffffffff168152602001908152602001600020549050808460000160008473ffffffffffffffffffffffffffffffffffffffff1673ffffffffffffffffffffffffffffffffffffffff168152602001908152602001600020819055508184600101828154811062002c8d5762002c8c62004383565b5b9060005260206000200160006101000a81548173ffffffffffffffffffffffffffffffffffffffff021916908373ffffffffffffffffffffffffffffffffffffffff1602179055508360000160008473ffffffffffffffffffffffffffffffffffffffff1673ffffffffffffffffffffffffffffffffffffffff1681526020019081526020016000206000905560006001856001018054905062002d32919062004050565b905084600101818154811062002d4d5762002d4c62004383565b5b9060005260206000200160006101000a81549073ffffffffffffffffffffffffffffffffffffffff02191690555050505050565b600081600101805490509050919050565b6040518061010001604052806000815260200160008152602001600081526020016000600581111562002dca5762002dc962002fd1565b5b8152602001600060ff168152602001600060ff16815260200160608152602001606081525090565b82805462002e009062004751565b90600052602060002090601f01602090048101928262002e24576000855562002e70565b82601f1062002e3f57805160ff191683800117855562002e70565b8280016001018555821562002e70579182015b8281111562002e6f57825182559160200191906001019062002e52565b5b50905062002e7f919062002ee6565b5090565b61104b8062004be083390190565b6040518060800160405280606081526020016000600281111562002eba5762002eb962002fd1565b5b8152602001600015158152602001600073ffffffffffffffffffffffffffffffffffffffff1681525090565b5b8082111562002f0157600081600090555060010162002ee7565b5090565b6000604051905090565b600080fd5b600080fd5b6000819050919050565b62002f2e8162002f19565b811462002f3a57600080fd5b50565b60008135905062002f4e8162002f23565b92915050565b60006020828403121562002f6d5762002f6c62002f0f565b5b600062002f7d8482850162002f3d565b91505092915050565b60008115159050919050565b62002f9d8162002f86565b82525050565b600060208201905062002fba600083018462002f92565b92915050565b62002fcb8162002f19565b82525050565b7f4e487b7100000000000000000000000000000000000000000000000000000000600052602160045260246000fd5b6006811062003014576200301362002fd1565b5b50565b6000819050620030278262003000565b919050565b6000620030398262003017565b9050919050565b6200304b816200302c565b82525050565b600060ff82169050919050565b620030698162003051565b82525050565b600081519050919050565b600082825260208201905092915050565b60005b83811015620030ab5780820151818401526020810190506200308e565b83811115620030bb576000848401525b50505050565b6000601f19601f8301169050919050565b6000620030df826200306f565b620030eb81856200307a565b9350620030fd8185602086016200308b565b6200310881620030c1565b840191505092915050565b6000610100830160008301516200312e600086018262002fc0565b50602083015162003143602086018262002fc0565b50604083015162003158604086018262002fc0565b5060608301516200316d606086018262003040565b5060808301516200318260808601826200305e565b5060a08301516200319760a08601826200305e565b5060c083015184820360c0860152620031b18282620030d2565b91505060e083015184820360e0860152620031cd8282620030d2565b9150508091505092915050565b60006020820190508181036000830152620031f6818462003113565b905092915050565b600080fd5b600080fd5b7f4e487b7100000000000000000000000000000000000000000000000000000000600052604160045260246000fd5b6200324282620030c1565b810181811067ffffffffffffffff8211171562003264576200326362003208565b5b80604052505050565b60006200327962002f05565b905062003287828262003237565b919050565b600067ffffffffffffffff821115620032aa57620032a962003208565b5b620032b582620030c1565b9050602081019050919050565b82818337600083830152505050565b6000620032e8620032e2846200328c565b6200326d565b90508281526020810184848401111562003307576200330662003203565b5b62003314848285620032c2565b509392505050565b600082601f830112620033345762003333620031fe565b5b813562003346848260208601620032d1565b91505092915050565b60006020828403121562003368576200336762002f0f565b5b600082013567ffffffffffffffff81111562003389576200338862002f14565b5b62003397848285016200331c565b91505092915050565b620033ab8162002f19565b82525050565b6000602082019050620033c86000830184620033a0565b92915050565b600073ffffffffffffffffffffffffffffffffffffffff82169050919050565b6000620033fb82620033ce565b9050919050565b6200340d81620033ee565b81146200341957600080fd5b50565b6000813590506200342d8162003402565b92915050565b6000602082840312156200344c576200344b62002f0f565b5b60006200345c848285016200341c565b91505092915050565b600080604083850312156200347f576200347e62002f0f565b5b60006200348f8582860162002f3d565b9250506020620034a28582860162002f3d565b9150509250929050565b600080fd5b600080fd5b60068110620034c457600080fd5b50565b600081359050620034d881620034b6565b92915050565b620034e98162003051565b8114620034f557600080fd5b50565b6000813590506200350981620034de565b92915050565b60006101008284031215620035295762003528620034ac565b5b620035366101006200326d565b90506000620035488482850162002f3d565b60008301525060206200355e8482850162002f3d565b6020830152506040620035748482850162002f3d565b60408301525060606200358a84828501620034c7565b6060830152506080620035a084828501620034f8565b60808301525060a0620035b684828501620034f8565b60a08301525060c082013567ffffffffffffffff811115620035dd57620035dc620034b1565b5b620035eb848285016200331c565b60c08301525060e082013567ffffffffffffffff811115620036125762003611620034b1565b5b62003620848285016200331c565b60e08301525092915050565b60006020828403121562003645576200364462002f0f565b5b600082013567ffffffffffffffff81111562003666576200366562002f14565b5b62003674848285016200350f565b91505092915050565b6200368881620033ee565b82525050565b6000602082019050620036a560008301846200367d565b92915050565b600081519050919050565b600082825260208201905092915050565b6000819050602082019050919050565b60038110620036eb57620036ea62002fd1565b5b50565b6000819050620036fe82620036d7565b919050565b60006200371082620036ee565b9050919050565b620037228162003703565b82525050565b620037338162002f86565b82525050565b6200374481620033ee565b82525050565b60006080830160008301518482036000860152620037698282620030d2565b915050602083015162003780602086018262003717565b50604083015162003795604086018262003728565b506060830151620037aa606086018262003739565b508091505092915050565b6000620037c383836200374a565b905092915050565b6000602082019050919050565b6000620037e582620036ab565b620037f18185620036b6565b9350836020820285016200380585620036c7565b8060005b85811015620038475784840389528151620038258582620037b5565b94506200383283620037cb565b925060208a0199505060018101905062003809565b50829750879550505050505092915050565b60006020820190508181036000830152620038758184620037d8565b905092915050565b600081519050919050565b600082825260208201905092915050565b6000819050602082019050919050565b600061010083016000830151620038c4600086018262002fc0565b506020830151620038d9602086018262002fc0565b506040830151620038ee604086018262002fc0565b50606083015162003903606086018262003040565b5060808301516200391860808601826200305e565b5060a08301516200392d60a08601826200305e565b5060c083015184820360c0860152620039478282620030d2565b91505060e083015184820360e0860152620039638282620030d2565b9150508091505092915050565b60006200397e8383620038a9565b905092915050565b6000602082019050919050565b6000620039a0826200387d565b620039ac818562003888565b935083602082028501620039c08562003899565b8060005b8581101562003a025784840389528151620039e0858262003970565b9450620039ed8362003986565b925060208a01995050600181019050620039c4565b50829750879550505050505092915050565b6000602082019050818103600083015262003a30818462003993565b905092915050565b6000819050919050565b600062003a6362003a5d62003a5784620033ce565b62003a38565b620033ce565b9050919050565b600062003a778262003a42565b9050919050565b600062003a8b8262003a6a565b9050919050565b62003a9d8162003a7e565b82525050565b600060208201905062003aba600083018462003a92565b92915050565b600081519050919050565b600082825260208201905092915050565b6000819050602082019050919050565b600062003afa838362003739565b60208301905092915050565b6000602082019050919050565b600062003b208262003ac0565b62003b2c818562003acb565b935062003b398362003adc565b8060005b8381101562003b7057815162003b54888262003aec565b975062003b618362003b06565b92505060018101905062003b3d565b5085935050505092915050565b6000602082019050818103600083015262003b99818462003b13565b905092915050565b600082825260208201905092915050565b600062003bbf826200306f565b62003bcb818562003ba1565b935062003bdd8185602086016200308b565b62003be881620030c1565b840191505092915050565b6000602082019050818103600083015262003c0f818462003bb2565b905092915050565b6000608083016000830151848203600086015262003c368282620030d2565b915050602083015162003c4d602086018262003717565b50604083015162003c62604086018262003728565b50606083015162003c77606086018262003739565b508091505092915050565b6000602082019050818103600083015262003c9e818462003c17565b905092915050565b6000806040838503121562003cc05762003cbf62002f0f565b5b600062003cd0858286016200341c565b925050602083013567ffffffffffffffff81111562003cf45762003cf362002f14565b5b62003d02858286016200331c565b9150509250929050565b60008151905062003d1d8162002f23565b92915050565b60008151905062003d3481620034b6565b92915050565b60008151905062003d4b81620034de565b92915050565b600062003d6862003d62846200328c565b6200326d565b90508281526020810184848401111562003d875762003d8662003203565b5b62003d948482856200308b565b509392505050565b600082601f83011262003db45762003db3620031fe565b5b815162003dc684826020860162003d51565b91505092915050565b6000610100828403121562003de95762003de8620034ac565b5b62003df66101006200326d565b9050600062003e088482850162003d0c565b600083015250602062003e1e8482850162003d0c565b602083015250604062003e348482850162003d0c565b604083015250606062003e4a8482850162003d23565b606083015250608062003e608482850162003d3a565b60808301525060a062003e768482850162003d3a565b60a08301525060c082015167ffffffffffffffff81111562003e9d5762003e9c620034b1565b5b62003eab8482850162003d9c565b60c08301525060e082015167ffffffffffffffff81111562003ed25762003ed1620034b1565b5b62003ee08482850162003d9c565b60e08301525092915050565b60006020828403121562003f055762003f0462002f0f565b5b600082015167ffffffffffffffff81111562003f265762003f2562002f14565b5b62003f348482850162003dcf565b91505092915050565b7f4f776e61626c653a2063616c6c6572206973206e6f7420746865206f776e6572600082015250565b600062003f7560208362003ba1565b915062003f828262003f3d565b602082019050919050565b6000602082019050818103600083015262003fa88162003f66565b9050919050565b7f436f6c6f7220616c726561647920657869737400000000000000000000000000600082015250565b600062003fe760138362003ba1565b915062003ff48262003faf565b602082019050919050565b600060208201905081810360008301526200401a8162003fd8565b9050919050565b7f4e487b7100000000000000000000000000000000000000000000000000000000600052601160045260246000fd5b60006200405d8262002f19565b91506200406a8362002f19565b92508282101562004080576200407f62004021565b5b828203905092915050565b7f41646d696e526f6c653a2063616c6c657220646f6573206e6f7420686176652060008201527f7468652061646d696e20726f6c65000000000000000000000000000000000000602082015250565b6000620040e9602e8362003ba1565b9150620040f6826200408b565b604082019050919050565b600060208201905081810360008301526200411c81620040da565b9050919050565b7f62757942696b653a2042696b65206e6f7420666f722053656c6c000000000000600082015250565b60006200415b601a8362003ba1565b9150620041688262004123565b602082019050919050565b600060208201905081810360008301526200418e816200414c565b9050919050565b7f4f776e657227732042696b652063616e206e6f742062757920796f757220426960008201527f6b65000000000000000000000000000000000000000000000000000000000000602082015250565b6000620041f360228362003ba1565b9150620042008262004195565b604082019050919050565b600060208201905081810360008301526200422681620041e4565b9050919050565b7f62757942696b653a20496e737566696369656e74206f722077726f6e6720766160008201527f6c75650000000000000000000000000000000000000000000000000000000000602082015250565b60006200428b60238362003ba1565b915062004298826200422d565b604082019050919050565b60006020820190508181036000830152620042be816200427c565b9050919050565b600081905092915050565b50565b6000620042e2600083620042c5565b9150620042ef82620042d0565b600082019050919050565b60006200430782620042d3565b9150819050919050565b7f4661696c656420746f2073656e64204574686572000000000000000000000000600082015250565b60006200434960148362003ba1565b9150620043568262004311565b602082019050919050565b600060208201905081810360008301526200437c816200433a565b9050919050565b7f4e487b7100000000000000000000000000000000000000000000000000000000600052603260045260246000fd5b6000620043bf8262002f19565b9150620043cc8362002f19565b9250827fffffffffffffffffffffffffffffffffffffffffffffffffffffffffffffffff0382111562004404576200440362004021565b5b828201905092915050565b60006200441c8262002f19565b91507fffffffffffffffffffffffffffffffffffffffffffffffffffffffffffffffff82141562004452576200445162004021565b5b600182019050919050565b7f4e487b7100000000000000000000000000000000000000000000000000000000600052603160045260246000fd5b6000604082019050620044a360008301856200367d565b620044b260208301846200367d565b9392505050565b620044c48162002f86565b8114620044d057600080fd5b50565b600081519050620044e481620044b9565b92915050565b60006020828403121562004503576200450262002f0f565b5b60006200451384828501620044d3565b91505092915050565b7f4f6e6c79204f776e657227732042696b652063616e2073656c6c2042696b6500600082015250565b600062004554601f8362003ba1565b915062004561826200451c565b602082019050919050565b60006020820190508181036000830152620045878162004545565b9050919050565b62004599816200302c565b82525050565b6000604082019050620045b660008301856200458e565b620045c56020830184620033a0565b9392505050565b7f496e76616c696420547970652100000000000000000000000000000000000000600082015250565b600062004604600d8362003ba1565b91506200461182620045cc565b602082019050919050565b600060208201905081810360008301526200463781620045f5565b9050919050565b7f496e76616c696420436f6c6f7221000000000000000000000000000000000000600082015250565b600062004676600e8362003ba1565b915062004683826200463e565b602082019050919050565b60006020820190508181036000830152620046a98162004667565b9050919050565b7f436f6d70616e792061646472657373206e6f7420657869737473000000000000600082015250565b6000620046e8601a8362003ba1565b9150620046f582620046b0565b602082019050919050565b600060208201905081810360008301526200471b81620046d9565b9050919050565b7f4e487b7100000000000000000000000000000000000000000000000000000000600052602260045260246000fd5b600060028204905060018216806200476a57607f821691505b6020821081141562004781576200478062004722565b5b50919050565b600081905092915050565b60006200479f826200306f565b620047ab818562004787565b9350620047bd8185602086016200308b565b80840191505092915050565b6000620047d7828462004792565b915081905092915050565b60008190508160005260206000209050919050565b60008154620048068162004751565b62004812818662004787565b94506001821660008114620048305760018114620048425762004879565b60ff1983168652818601935062004879565b6200484d85620047e2565b60005b83811015620048715781548189015260018201915060208101905062004850565b838801955050505b50505092915050565b6000620048908284620047f7565b915081905092915050565b7f43726561746520436f6d70616e793a206163636f756e7420616464726573732060008201527f6973206e6f742076616c69640000000000000000000000000000000000000000602082015250565b6000620048f9602c8362003ba1565b915062004906826200489b565b604082019050919050565b600060208201905081810360008301526200492c81620048ea565b9050919050565b7f436f6d70616e79206164647265737320616c7265616479206578697374730000600082015250565b60006200496b601e8362003ba1565b9150620049788262004933565b602082019050919050565b600060208201905081810360008301526200499e816200495c565b9050919050565b7f526f6c65733a206163636f756e7420616c72656164792068617320726f6c6500600082015250565b6000620049dd601f8362003ba1565b9150620049ea82620049a5565b602082019050919050565b6000602082019050818103600083015262004a1081620049ce565b9050919050565b7f41646d696e526f6c653a2063616c6c65722063616e206e6f742072656e6f756e60008201527f636520697473656c660000000000000000000000000000000000000000000000602082015250565b600062004a7560298362003ba1565b915062004a828262004a17565b604082019050919050565b6000602082019050818103600083015262004aa88162004a66565b9050919050565b7f526f6c65733a206163636f756e742061646472657373206973206e6f7420766160008201527f6c69640000000000000000000000000000000000000000000000000000000000602082015250565b600062004b0d60238362003ba1565b915062004b1a8262004aaf565b604082019050919050565b6000602082019050818103600083015262004b408162004afe565b9050919050565b7f526f6c65733a206163636f756e7420646f6573206e6f74206861766520726f6c60008201527f6500000000000000000000000000000000000000000000000000000000000000602082015250565b600062004ba560218362003ba1565b915062004bb28262004b47565b604082019050919050565b6000602082019050818103600083015262004bd88162004b96565b905091905056fe60806040523480156200001157600080fd5b506040516200104b3803806200104b83398181016040528101906200003791906200059a565b336000806101000a81548173ffffffffffffffffffffffffffffffffffffffff021916908373ffffffffffffffffffffffffffffffffffffffff16021790555080600160008201518160000155602082015181600101556040820151816002015560608201518160030160006101000a81548160ff02191690836005811115620000c657620000c5620005eb565b5b021790555060808201518160030160016101000a81548160ff021916908360ff16021790555060a08201518160030160026101000a81548160ff021916908360ff16021790555060c08201518160040190805190602001906200012b92919062000185565b5060e08201518160050190805190602001906200014a92919062000185565b5090505060018060030160006101000a81548160ff02191690836005811115620001795762000178620005eb565b5b0217905550506200067f565b828054620001939062000649565b90600052602060002090601f016020900481019282620001b7576000855562000203565b82601f10620001d257805160ff191683800117855562000203565b8280016001018555821562000203579182015b8281111562000202578251825591602001919060010190620001e5565b5b50905062000212919062000216565b5090565b5b808211156200023157600081600090555060010162000217565b5090565b6000604051905090565b600080fd5b600080fd5b600080fd5b6000601f19601f8301169050919050565b7f4e487b7100000000000000000000000000000000000000000000000000000000600052604160045260246000fd5b62000299826200024e565b810181811067ffffffffffffffff82111715620002bb57620002ba6200025f565b5b80604052505050565b6000620002d062000235565b9050620002de82826200028e565b919050565b600080fd5b6000819050919050565b620002fd81620002e8565b81146200030957600080fd5b50565b6000815190506200031d81620002f2565b92915050565b600681106200033157600080fd5b50565b600081519050620003458162000323565b92915050565b600060ff82169050919050565b62000363816200034b565b81146200036f57600080fd5b50565b600081519050620003838162000358565b92915050565b600080fd5b600080fd5b600067ffffffffffffffff821115620003b157620003b06200025f565b5b620003bc826200024e565b9050602081019050919050565b60005b83811015620003e9578082015181840152602081019050620003cc565b83811115620003f9576000848401525b50505050565b600062000416620004108462000393565b620002c4565b9050828152602081018484840111156200043557620004346200038e565b5b62000442848285620003c9565b509392505050565b600082601f83011262000462576200046162000389565b5b815162000474848260208601620003ff565b91505092915050565b6000610100828403121562000497576200049662000249565b5b620004a4610100620002c4565b90506000620004b6848285016200030c565b6000830152506020620004cc848285016200030c565b6020830152506040620004e2848285016200030c565b6040830152506060620004f88482850162000334565b60608301525060806200050e8482850162000372565b60808301525060a0620005248482850162000372565b60a08301525060c082015167ffffffffffffffff8111156200054b576200054a620002e3565b5b62000559848285016200044a565b60c08301525060e082015167ffffffffffffffff81111562000580576200057f620002e3565b5b6200058e848285016200044a565b60e08301525092915050565b600060208284031215620005b357620005b26200023f565b5b600082015167ffffffffffffffff811115620005d457620005d362000244565b5b620005e2848285016200047d565b91505092915050565b7f4e487b7100000000000000000000000000000000000000000000000000000000600052602160045260246000fd5b7f4e487b7100000000000000000000000000000000000000000000000000000000600052602260045260246000fd5b600060028204905060018216806200066257607f821691505b602082108114156200067957620006786200061a565b5b50919050565b6109bc806200068f6000396000f3fe608060405234801561001057600080fd5b50600436106100575760003560e01c806311eb74a71461005c5780638da5cb5b1461008c5780638f32d59b146100aa57806392e42bdb146100c8578063a7ff89d7146100e6575b600080fd5b6100766004803603810190610071919061058a565b610104565b60405161008391906105e5565b60405180910390f35b6100946101c7565b6040516100a19190610641565b60405180910390f35b6100b26101f0565b6040516100bf91906105e5565b60405180910390f35b6100d0610247565b6040516100dd91906105e5565b60405180910390f35b6100ee6102fb565b6040516100fb919061084e565b60405180910390f35b600061010e6101f0565b61014d576040517f08c379a0000000000000000000000000000000000000000000000000000000008152600401610144906108cd565b60405180910390fd5b7f2b4fff9b3b10e63d10f1b0f92a6e2a5253cbb7ff5f3174f19aa0307e3469798b308460405161017e9291906108fc565b60405180910390a182600160030160006101000a81548160ff021916908360058111156101ae576101ad61066b565b5b0217905550816001600201819055506001905092915050565b60008060009054906101000a900473ffffffffffffffffffffffffffffffffffffffff16905090565b60008060009054906101000a900473ffffffffffffffffffffffffffffffffffffffff1673ffffffffffffffffffffffffffffffffffffffff163373ffffffffffffffffffffffffffffffffffffffff1614905090565b60006102516101f0565b610290576040517f08c379a0000000000000000000000000000000000000000000000000000000008152600401610287906108cd565b60405180910390fd5b7f1a851104f348284dc5f6c828fb61506c7f757fdaebd11285b5667147d4774a78306040516102bf9190610641565b60405180910390a160018060030160006101000a81548160ff021916908360058111156102ef576102ee61066b565b5b02179055506001905090565b6103036104cd565b6001604051806101000160405290816000820154815260200160018201548152602001600282015481526020016003820160009054906101000a900460ff1660058111156103545761035361066b565b5b60058111156103665761036561066b565b5b81526020016003820160019054906101000a900460ff1660ff1660ff1681526020016003820160029054906101000a900460ff1660ff1660ff1681526020016004820180546103b490610954565b80601f01602080910402602001604051908101604052809291908181526020018280546103e090610954565b801561042d5780601f106104025761010080835404028352916020019161042d565b820191906000526020600020905b81548152906001019060200180831161041057829003601f168201915b5050505050815260200160058201805461044690610954565b80601f016020809104026020016040519081016040528092919081815260200182805461047290610954565b80156104bf5780601f10610494576101008083540402835291602001916104bf565b820191906000526020600020905b8154815290600101906020018083116104a257829003601f168201915b505050505081525050905090565b604051806101000160405280600081526020016000815260200160008152602001600060058111156105025761050161066b565b5b8152602001600060ff168152602001600060ff16815260200160608152602001606081525090565b600080fd5b6006811061053c57600080fd5b50565b60008135905061054e8161052f565b92915050565b6000819050919050565b61056781610554565b811461057257600080fd5b50565b6000813590506105848161055e565b92915050565b600080604083850312156105a1576105a061052a565b5b60006105af8582860161053f565b92505060206105c085828601610575565b9150509250929050565b60008115159050919050565b6105df816105ca565b82525050565b60006020820190506105fa60008301846105d6565b92915050565b600073ffffffffffffffffffffffffffffffffffffffff82169050919050565b600061062b82610600565b9050919050565b61063b81610620565b82525050565b60006020820190506106566000830184610632565b92915050565b61066581610554565b82525050565b7f4e487b7100000000000000000000000000000000000000000000000000000000600052602160045260246000fd5b600681106106ab576106aa61066b565b5b50565b60008190506106bc8261069a565b919050565b60006106cc826106ae565b9050919050565b6106dc816106c1565b82525050565b600060ff82169050919050565b6106f8816106e2565b82525050565b600081519050919050565b600082825260208201905092915050565b60005b8381101561073857808201518184015260208101905061071d565b83811115610747576000848401525b50505050565b6000601f19601f8301169050919050565b6000610769826106fe565b6107738185610709565b935061078381856020860161071a565b61078c8161074d565b840191505092915050565b6000610100830160008301516107b0600086018261065c565b5060208301516107c3602086018261065c565b5060408301516107d6604086018261065c565b5060608301516107e960608601826106d3565b5060808301516107fc60808601826106ef565b5060a083015161080f60a08601826106ef565b5060c083015184820360c0860152610827828261075e565b91505060e083015184820360e0860152610841828261075e565b9150508091505092915050565b600060208201905081810360008301526108688184610797565b905092915050565b600082825260208201905092915050565b7f4f776e61626c653a2063616c6c6572206973206e6f7420746865206f776e6572600082015250565b60006108b7602083610870565b91506108c282610881565b602082019050919050565b600060208201905081810360008301526108e6816108aa565b9050919050565b6108f6816106c1565b82525050565b60006040820190506109116000830185610632565b61091e60208301846108ed565b9392505050565b7f4e487b7100000000000000000000000000000000000000000000000000000000600052602260045260246000fd5b6000600282049050600182168061096c57607f821691505b602082108114156109805761097f610925565b5b5091905056fea2646970667358221220022c8188363cd8dd27d795417ff1dc7396d6718be1abdf29ec69544358c7820764736f6c634300080a0033a2646970667358221220313eaa09598c78f461f5c34080ffc31b185b0c9cf67c5771eee2cd74ffb8088564736f6c634300080a0033",
  "immutableReferences": {},
  "source": "// SPDX-License-Identifier: GPL-3.0\npragma solidity >=0.8.0 <0.9.0;\n\nimport \"./access/roles/AdminRole.sol\";\nimport \"./bike/BikeModel.sol\";\nimport \"./Bike.sol\";\nimport \"./bike/BikeTypeModel.sol\";\nimport \"./bike/BikeColorModel.sol\";\nimport \"./company/CompanyModel.sol\";\n\ncontract BikeFactory is \n           AdminRole\n            ,BikeModel\n            ,BikeTypeModel\n            ,BikeColorModel\n            ,CompanyModel \n            {\n\n    struct BikeInstance {\n        address instanceAddress;\n        address instanceAddressOwner;\n    }\n\n    mapping(uint256 => BikeInstance) private _bikeInstanceMap;\n    uint private _bikeInstanceMapCounter; \n\n    mapping(address => CompanyModelStruct) private _companyMap;\n    address[] private _companyAddresses; \n\n    address[] public _bikeForSell;\n    \n    event BikeGenerated(\n        address indexed instancecAddress\n    );\n    event TransferedBike(\n        address indexed bike,\n        address from,\n        address to\n    );\n    event CompanyCreated(\n        address indexed instanceAddress,\n        string name\n    );\n\n    constructor(){\n        addColor(\"White\");\n        addColor(\"Yellow\");\n        addColor(\"Blue\");\n        addColor(\"Greeen\");\n        addColor(\"Black\");\n        addColor(\"Red\");\n\n        addType(\"Urban\");\n        addType(\"Montain\");\n        addType(\"Electric\");\n        addType(\"Hybrid\");\n    }\n\n    function \n        createCompany(address companyAddress, string memory name) \n    public \n        onlyOwner\n    {\n        require(companyAddress != address(0), 'Create Company: account address is not valid');\n        require(\n            !_companyMap[companyAddress].Exist,\n            \"Company address already exists\"\n            );\n        CompanyModelStruct storage newCompany = _companyMap[companyAddress];\n        newCompany.Name = name;\n        newCompany.Status = StatusCompanyEnum.ACTIVE;\n        newCompany.Exist = true;\n        newCompany.Owner = companyAddress;\n        _companyAddresses.push(companyAddress);\n\n        emit CompanyCreated(\n            companyAddress,\n            name\n        );\n    }\n\n    function getCompanyByAddress(address companyAddress) public view returns (CompanyModelStruct memory company){\n        return _companyMap[companyAddress];\n    }\n\n    function getCompanyList() public view returns(CompanyModelStruct[] memory companyList){\n        CompanyModelStruct[] memory companyModelList = new CompanyModelStruct[](_companyAddresses.length);\n\n        for (uint i = 0; i < _companyAddresses.length; i++){\n            companyModelList[i] = _companyMap[_companyAddresses[i]];\n        }\n        return companyModelList;\n    }\n\n    function generateBike(BikeModelStruct memory bikeModel) \n    public\n         onlyAdmin\n    {\n        require(hasType(bikeModel.TypeId) == true, \"Invalid Type!\");\n        require(hasColorId(bikeModel.ColorId) == true, \"Invalid Color!\");\n        require(\n            _companyMap[msg.sender].Exist,\n            \"Company address not exists\"\n         );\n\n        bikeModel.Type = getTypeById(bikeModel.TypeId);\n        bikeModel.Color = getColorById(bikeModel.ColorId);\n\n        Bike instance = new Bike(\n            bikeModel\n        );\n\n        address instanceAddress = address(instance);\n        _bikeInstanceMapCounter++;\n        _bikeInstanceMap[_bikeInstanceMapCounter] = BikeInstance(\n            instanceAddress,\n            msg.sender\n        );\n        emit BikeGenerated(instanceAddress);\n    }\n\n    function getBikeInstance(uint id) public view returns \n    (BikeModelStruct memory bike)\n    {\n      return getBase(_bikeInstanceMap[id].instanceAddress).getBike();\n    }\n\n    function getBikeList() public view returns (BikeModelStruct[] memory bikeList){\n        BikeModelStruct[] memory bikeModelList = new BikeModelStruct[](_bikeInstanceMapCounter);\n\n        for (uint i = 1; i <= _bikeInstanceMapCounter; i++){\n            bikeModelList[i-1] = getBase(_bikeInstanceMap[i].instanceAddress).getBike();\n        }\n        return bikeModelList;\n    }\n\n    function putBikeToSell(uint id, uint weiValue) public returns (bool result){\n        require(\n            _bikeInstanceMap[id].instanceAddressOwner == msg.sender, \n            \"Only Owner's Bike can sell Bike\"\n            );\n        _bikeForSell.push(_bikeInstanceMap[id].instanceAddress);\n        return getBase(_bikeInstanceMap[id].instanceAddress).setBikeStatus(StatusBikeEnum.FOR_SALE, weiValue);\n\n    }\n\n    function getBikeToSellList() public view returns (BikeModelStruct[] memory bikeList){\n        BikeModelStruct[] memory bikeModelList = new BikeModelStruct[](_bikeForSell.length);\n        for (uint i = 0; i < _bikeForSell.length; i++){\n            bikeModelList[i] = getBase(_bikeForSell[i]).getBike();\n        }\n        return bikeModelList;\n    }\n    function GetBikeListByOwner() public view returns (BikeModelStruct[] memory bikeList)\n    {\n        BikeModelStruct[] memory bikeModelList = new BikeModelStruct[](_bikeInstanceMapCounter);\n\n        for (uint i = 1; i <= _bikeInstanceMapCounter; i++){\n            if (_bikeInstanceMap[i].instanceAddressOwner == msg.sender){\n                bikeModelList[i-1] = getBase(_bikeInstanceMap[i].instanceAddress).getBike();\n            }\n        }\n        return bikeModelList;\n    }\n\n    function buyBike(uint id) public payable returns (bool result){\n        require(\n            getBase(_bikeInstanceMap[id].instanceAddress).getBike().Status == StatusBikeEnum.FOR_SALE,\n            \n            \"buyBike: Bike not for Sell\"\n            \n        );\n        address _to = _bikeInstanceMap[id].instanceAddressOwner; \n        require(\n            _to != msg.sender, \n            \"Owner's Bike can not buy your Bike\"\n        );\n\n        require(\n            msg.value == getBase(_bikeInstanceMap[id].instanceAddress).getBike().WeiValue,\n            \"buyBike: Insuficient or wrong value\"\n        );\n\n        (bool sent, ) = _to.call{value: msg.value}(\"\");\n        require(sent, \"Failed to send Ether\");\n        \n        address from = _bikeInstanceMap[id].instanceAddressOwner;\n        _bikeInstanceMap[id].instanceAddressOwner = msg.sender;\n\n        for (uint i = 0; i < _bikeForSell.length; i++){\n            if (_bikeForSell[i] == _bikeInstanceMap[id].instanceAddress) {\n                for (uint j = i; j < _bikeForSell.length-1; j++){\n                    _bikeForSell[j] = _bikeForSell[j+1];\n                }\n                _bikeForSell.pop();\n            }\n        }\n\n        emit TransferedBike(\n            _bikeInstanceMap[id].instanceAddress,\n            from,\n            msg.sender\n        );\n        return getBase(_bikeInstanceMap[id].instanceAddress).transferBike();\n    }\n\n    function getBase(address _baseAddress) public pure returns(Bike){\n        Bike baseContract = Bike(_baseAddress);\n        return baseContract;\n    }\n\n}",
  "sourcePath": "/mnt/c/Users/ptars/Learn/Blockchain/Consensys/Bootcamp2021/Final Project/code/ptarso.bike.factory/contracts/BikeFactory.sol",
  "compiler": {
    "name": "solc",
    "version": "0.8.10+commit.fc410830.Emscripten.clang"
  },
  "schemaVersion": "3.4.4",
  "updatedAt": "2022-01-08T19:25:15.380Z",
  "devdoc": {
    "kind": "dev",
    "methods": {},
    "version": 1
  },
  "userdoc": {
    "kind": "user",
    "methods": {},
    "version": 1
  }
}