{
  "contractName": "Bike",
  "abi": [
    {
      "inputs": [
        {
          "components": [
            {
              "internalType": "enum BikeModel.StatusBikeEnum",
              "name": "Status",
              "type": "uint8"
            },
            {
              "internalType": "uint8",
              "name": "TypeId",
              "type": "uint8"
            },
            {
              "internalType": "uint8",
              "name": "ColorId",
              "type": "uint8"
            },
            {
              "internalType": "uint256",
              "name": "WeiValue",
              "type": "uint256"
            }
          ],
          "internalType": "struct BikeModel.BikeModelStruct",
          "name": "bikeModelStruct",
          "type": "tuple"
        }
      ],
      "stateMutability": "nonpayable",
      "type": "constructor"
    },
    {
      "anonymous": false,
      "inputs": [
        {
          "indexed": false,
          "internalType": "address",
          "name": "bike",
          "type": "address"
        },
        {
          "indexed": false,
          "internalType": "enum BikeModel.StatusBikeEnum",
          "name": "status",
          "type": "uint8"
        }
      ],
      "name": "BikeStatusUpdated",
      "type": "event"
    },
    {
      "anonymous": false,
      "inputs": [
        {
          "indexed": false,
          "internalType": "address",
          "name": "bike",
          "type": "address"
        }
      ],
      "name": "BikeTransfered",
      "type": "event"
    },
    {
      "inputs": [],
      "name": "isOwner",
      "outputs": [
        {
          "internalType": "bool",
          "name": "",
          "type": "bool"
        }
      ],
      "stateMutability": "view",
      "type": "function"
    },
    {
      "inputs": [],
      "name": "owner",
      "outputs": [
        {
          "internalType": "address",
          "name": "",
          "type": "address"
        }
      ],
      "stateMutability": "view",
      "type": "function"
    },
    {
      "inputs": [],
      "name": "getBike",
      "outputs": [
        {
          "components": [
            {
              "internalType": "enum BikeModel.StatusBikeEnum",
              "name": "Status",
              "type": "uint8"
            },
            {
              "internalType": "uint8",
              "name": "TypeId",
              "type": "uint8"
            },
            {
              "internalType": "uint8",
              "name": "ColorId",
              "type": "uint8"
            },
            {
              "internalType": "uint256",
              "name": "WeiValue",
              "type": "uint256"
            }
          ],
          "internalType": "struct BikeModel.BikeModelStruct",
          "name": "bike",
          "type": "tuple"
        }
      ],
      "stateMutability": "view",
      "type": "function"
    },
    {
      "inputs": [
        {
          "internalType": "enum BikeModel.StatusBikeEnum",
          "name": "status",
          "type": "uint8"
        },
        {
          "internalType": "uint256",
          "name": "weiValue",
          "type": "uint256"
        }
      ],
      "name": "setBikeStatus",
      "outputs": [
        {
          "internalType": "bool",
          "name": "result",
          "type": "bool"
        }
      ],
      "stateMutability": "nonpayable",
      "type": "function"
    },
    {
      "inputs": [],
      "name": "transferBike",
      "outputs": [
        {
          "internalType": "bool",
          "name": "result",
          "type": "bool"
        }
      ],
      "stateMutability": "nonpayable",
      "type": "function"
    }
  ],
  "bytecode": "0x60806040523480156200001157600080fd5b5060405162000a7538038062000a75833981810160405281019062000037919062000302565b336000806101000a81548173ffffffffffffffffffffffffffffffffffffffff021916908373ffffffffffffffffffffffffffffffffffffffff16021790555080600160008201518160000160006101000a81548160ff02191690836005811115620000a857620000a762000334565b5b021790555060208201518160000160016101000a81548160ff021916908360ff16021790555060408201518160000160026101000a81548160ff021916908360ff1602179055506060820151816001015590505060018060000160006101000a81548160ff0219169083600581111562000127576200012662000334565b5b02179055505062000363565b6000604051905090565b600080fd5b600080fd5b6000601f19601f8301169050919050565b7f4e487b7100000000000000000000000000000000000000000000000000000000600052604160045260246000fd5b620001928262000147565b810181811067ffffffffffffffff82111715620001b457620001b362000158565b5b80604052505050565b6000620001c962000133565b9050620001d7828262000187565b919050565b60068110620001ea57600080fd5b50565b600081519050620001fe81620001dc565b92915050565b600060ff82169050919050565b6200021c8162000204565b81146200022857600080fd5b50565b6000815190506200023c8162000211565b92915050565b6000819050919050565b620002578162000242565b81146200026357600080fd5b50565b60008151905062000277816200024c565b92915050565b60006080828403121562000296576200029562000142565b5b620002a26080620001bd565b90506000620002b484828501620001ed565b6000830152506020620002ca848285016200022b565b6020830152506040620002e0848285016200022b565b6040830152506060620002f68482850162000266565b60608301525092915050565b6000608082840312156200031b576200031a6200013d565b5b60006200032b848285016200027d565b91505092915050565b7f4e487b7100000000000000000000000000000000000000000000000000000000600052602160045260246000fd5b61070280620003736000396000f3fe608060405234801561001057600080fd5b50600436106100575760003560e01c806311eb74a71461005c5780638da5cb5b1461008c5780638f32d59b146100aa57806392e42bdb146100c8578063a7ff89d7146100e6575b600080fd5b61007660048036038101906100719190610433565b610104565b604051610083919061048e565b60405180910390f35b6100946101c6565b6040516100a191906104ea565b60405180910390f35b6100b26101ef565b6040516100bf919061048e565b60405180910390f35b6100d0610246565b6040516100dd919061048e565b60405180910390f35b6100ee6102fa565b6040516100fb91906105fc565b60405180910390f35b600061010e6101ef565b61014d576040517f08c379a000000000000000000000000000000000000000000000000000000000815260040161014490610674565b60405180910390fd5b7f2b4fff9b3b10e63d10f1b0f92a6e2a5253cbb7ff5f3174f19aa0307e3469798b308460405161017e9291906106a3565b60405180910390a182600160000160006101000a81548160ff021916908360058111156101ae576101ad610505565b5b02179055508160018001819055506001905092915050565b60008060009054906101000a900473ffffffffffffffffffffffffffffffffffffffff16905090565b60008060009054906101000a900473ffffffffffffffffffffffffffffffffffffffff1673ffffffffffffffffffffffffffffffffffffffff163373ffffffffffffffffffffffffffffffffffffffff1614905090565b60006102506101ef565b61028f576040517f08c379a000000000000000000000000000000000000000000000000000000000815260040161028690610674565b60405180910390fd5b7f1a851104f348284dc5f6c828fb61506c7f757fdaebd11285b5667147d4774a78306040516102be91906104ea565b60405180910390a160018060000160006101000a81548160ff021916908360058111156102ee576102ed610505565b5b02179055506001905090565b610302610393565b60016040518060800160405290816000820160009054906101000a900460ff16600581111561033457610333610505565b5b600581111561034657610345610505565b5b81526020016000820160019054906101000a900460ff1660ff1660ff1681526020016000820160029054906101000a900460ff1660ff1660ff168152602001600182015481525050905090565b6040518060800160405280600060058111156103b2576103b1610505565b5b8152602001600060ff168152602001600060ff168152602001600081525090565b600080fd5b600681106103e557600080fd5b50565b6000813590506103f7816103d8565b92915050565b6000819050919050565b610410816103fd565b811461041b57600080fd5b50565b60008135905061042d81610407565b92915050565b6000806040838503121561044a576104496103d3565b5b6000610458858286016103e8565b92505060206104698582860161041e565b9150509250929050565b60008115159050919050565b61048881610473565b82525050565b60006020820190506104a3600083018461047f565b92915050565b600073ffffffffffffffffffffffffffffffffffffffff82169050919050565b60006104d4826104a9565b9050919050565b6104e4816104c9565b82525050565b60006020820190506104ff60008301846104db565b92915050565b7f4e487b7100000000000000000000000000000000000000000000000000000000600052602160045260246000fd5b6006811061054557610544610505565b5b50565b600081905061055682610534565b919050565b600061056682610548565b9050919050565b6105768161055b565b82525050565b600060ff82169050919050565b6105928161057c565b82525050565b6105a1816103fd565b82525050565b6080820160008201516105bd600085018261056d565b5060208201516105d06020850182610589565b5060408201516105e36040850182610589565b5060608201516105f66060850182610598565b50505050565b600060808201905061061160008301846105a7565b92915050565b600082825260208201905092915050565b7f4f776e61626c653a2063616c6c6572206973206e6f7420746865206f776e6572600082015250565b600061065e602083610617565b915061066982610628565b602082019050919050565b6000602082019050818103600083015261068d81610651565b9050919050565b61069d8161055b565b82525050565b60006040820190506106b860008301856104db565b6106c56020830184610694565b939250505056fea2646970667358221220d170f849be82e8351237bbd5dd8d13c97b64009f5dbaf466e113765a5f914a2064736f6c634300080a0033",
  "immutableReferences": {},
  "source": "// SPDX-License-Identifier: GPL-3.0\npragma solidity >=0.8.0 <0.9.0;\n\nimport \"./ownership/Ownable.sol\";\nimport \"./bike/BikeModel.sol\";\n\ncontract Bike is \n            BikeModel\n            ,Ownable\n                 {\n    BikeModelStruct private _bike;\n    event BikeStatusUpdated(address bike, StatusBikeEnum status);\n    event BikeTransfered(address bike);\n\n    constructor (BikeModelStruct memory bikeModelStruct)\n    {\n        _bike = bikeModelStruct;\n        _bike.Status = StatusBikeEnum.USED;\n    }\n\n    function getBike() public view returns (BikeModelStruct memory bike) {\n        return _bike; \n    }\n\n    function setBikeStatus(StatusBikeEnum status, uint weiValue) \n    public \n    onlyOwner\n    returns (bool result){\n\n        emit BikeStatusUpdated(address(this), status);\n        _bike.Status = status;\n        _bike.WeiValue = weiValue;\n        return true;\n    }\n\n    function transferBike() public onlyOwner returns (bool result) {\n        emit BikeTransfered(address(this));\n        _bike.Status = StatusBikeEnum.USED;\n        return true;\n    }\n\n}",
  "sourcePath": "/mnt/c/Users/ptars/Learn/Blockchain/Consensys/Bootcamp2021/Final Project/code/ptarso.bike.factory/contracts/Bike.sol",
  "compiler": {
    "name": "solc",
    "version": "0.8.10+commit.fc410830.Emscripten.clang"
  },
  "schemaVersion": "3.4.4",
  "updatedAt": "2022-01-10T22:12:58.520Z",
  "devdoc": {
    "kind": "dev",
    "methods": {},
    "version": 1
  },
  "userdoc": {
    "kind": "user",
    "methods": {},
    "version": 1
  }
}