{
  "contractName": "BikeTypeModel",
  "abi": [
    {
      "inputs": [],
      "stateMutability": "nonpayable",
      "type": "constructor"
    },
    {
      "anonymous": false,
      "inputs": [
        {
          "indexed": true,
          "internalType": "uint256",
          "name": "bikeType",
          "type": "uint256"
        },
        {
          "indexed": false,
          "internalType": "string",
          "name": "_type",
          "type": "string"
        }
      ],
      "name": "AddedBikeType",
      "type": "event"
    },
    {
      "inputs": [],
      "name": "isOwner",
      "outputs": [
        {
          "internalType": "bool",
          "name": "",
          "type": "bool"
        }
      ],
      "stateMutability": "view",
      "type": "function"
    },
    {
      "inputs": [],
      "name": "owner",
      "outputs": [
        {
          "internalType": "address",
          "name": "",
          "type": "address"
        }
      ],
      "stateMutability": "view",
      "type": "function"
    },
    {
      "inputs": [
        {
          "internalType": "string",
          "name": "bikeType",
          "type": "string"
        }
      ],
      "name": "addType",
      "outputs": [
        {
          "internalType": "uint256",
          "name": "id",
          "type": "uint256"
        }
      ],
      "stateMutability": "nonpayable",
      "type": "function"
    },
    {
      "inputs": [
        {
          "internalType": "uint256",
          "name": "id",
          "type": "uint256"
        }
      ],
      "name": "getTypeById",
      "outputs": [
        {
          "internalType": "string",
          "name": "name",
          "type": "string"
        }
      ],
      "stateMutability": "view",
      "type": "function"
    },
    {
      "inputs": [
        {
          "internalType": "uint256",
          "name": "bikeType",
          "type": "uint256"
        }
      ],
      "name": "hasType",
      "outputs": [
        {
          "internalType": "bool",
          "name": "has",
          "type": "bool"
        }
      ],
      "stateMutability": "view",
      "type": "function"
    },
    {
      "inputs": [],
      "name": "getBikeTypeList",
      "outputs": [
        {
          "internalType": "string[]",
          "name": "typeList",
          "type": "string[]"
        }
      ],
      "stateMutability": "view",
      "type": "function"
    }
  ],
  "bytecode": "0x608060405234801561001057600080fd5b50336000806101000a81548173ffffffffffffffffffffffffffffffffffffffff021916908373ffffffffffffffffffffffffffffffffffffffff160217905550600180600181540180825580915050600190039060005260206000200160006040518060400160405280600481526020017f4e6f6e6500000000000000000000000000000000000000000000000000000000815250909190915090805190602001906100be9291906100c4565b506101c8565b8280546100d090610196565b90600052602060002090601f0160209004810192826100f25760008555610139565b82601f1061010b57805160ff1916838001178555610139565b82800160010185558215610139579182015b8281111561013857825182559160200191906001019061011d565b5b509050610146919061014a565b5090565b5b8082111561016357600081600090555060010161014b565b5090565b7f4e487b7100000000000000000000000000000000000000000000000000000000600052602260045260246000fd5b600060028204905060018216806101ae57607f821691505b602082108114156101c2576101c1610167565b5b50919050565b610b23806101d76000396000f3fe608060405234801561001057600080fd5b50600436106100625760003560e01c8063722cb0c314610067578063882e7b67146100975780638da5cb5b146100b55780638f32d59b146100d3578063b6aa9916146100f1578063e7f08e6914610121575b600080fd5b610081600480360381019061007c919061053e565b610151565b60405161008e9190610586565b60405180910390f35b61009f61016e565b6040516100ac91906106fc565b60405180910390f35b6100bd610247565b6040516100ca919061075f565b60405180910390f35b6100db610270565b6040516100e89190610586565b60405180910390f35b61010b6004803603810190610106919061053e565b6102c7565b60405161011891906107c4565b60405180910390f35b61013b6004803603810190610136919061091b565b610377565b6040516101489190610973565b60405180910390f35b6000816001805490501180156101675750600082115b9050919050565b60606001805480602002602001604051908101604052809291908181526020016000905b8282101561023e5783829060005260206000200180546101b1906109bd565b80601f01602080910402602001604051908101604052809291908181526020018280546101dd906109bd565b801561022a5780601f106101ff5761010080835404028352916020019161022a565b820191906000526020600020905b81548152906001019060200180831161020d57829003601f168201915b505050505081526020019060010190610192565b50505050905090565b60008060009054906101000a900473ffffffffffffffffffffffffffffffffffffffff16905090565b60008060009054906101000a900473ffffffffffffffffffffffffffffffffffffffff1673ffffffffffffffffffffffffffffffffffffffff163373ffffffffffffffffffffffffffffffffffffffff1614905090565b6060600182815481106102dd576102dc6109ef565b5b9060005260206000200180546102f2906109bd565b80601f016020809104026020016040519081016040528092919081815260200182805461031e906109bd565b801561036b5780601f106103405761010080835404028352916020019161036b565b820191906000526020600020905b81548152906001019060200180831161034e57829003601f168201915b50505050509050919050565b6000610381610270565b6103c0576040517f08c379a00000000000000000000000000000000000000000000000000000000081526004016103b790610a6a565b60405180910390fd5b6001829080600181540180825580915050600190039060005260206000200160009091909190915090805190602001906103fb929190610451565b506001808054905061040d9190610ab9565b7f775f0bedea302366da4f840798b787d49a486af6d7a75c52d8b306a50e6812688360405161043c91906107c4565b60405180910390a26001805490509050919050565b82805461045d906109bd565b90600052602060002090601f01602090048101928261047f57600085556104c6565b82601f1061049857805160ff19168380011785556104c6565b828001600101855582156104c6579182015b828111156104c55782518255916020019190600101906104aa565b5b5090506104d391906104d7565b5090565b5b808211156104f05760008160009055506001016104d8565b5090565b6000604051905090565b600080fd5b600080fd5b6000819050919050565b61051b81610508565b811461052657600080fd5b50565b60008135905061053881610512565b92915050565b600060208284031215610554576105536104fe565b5b600061056284828501610529565b91505092915050565b60008115159050919050565b6105808161056b565b82525050565b600060208201905061059b6000830184610577565b92915050565b600081519050919050565b600082825260208201905092915050565b6000819050602082019050919050565b600081519050919050565b600082825260208201905092915050565b60005b838110156106075780820151818401526020810190506105ec565b83811115610616576000848401525b50505050565b6000601f19601f8301169050919050565b6000610638826105cd565b61064281856105d8565b93506106528185602086016105e9565b61065b8161061c565b840191505092915050565b6000610672838361062d565b905092915050565b6000602082019050919050565b6000610692826105a1565b61069c81856105ac565b9350836020820285016106ae856105bd565b8060005b858110156106ea57848403895281516106cb8582610666565b94506106d68361067a565b925060208a019950506001810190506106b2565b50829750879550505050505092915050565b600060208201905081810360008301526107168184610687565b905092915050565b600073ffffffffffffffffffffffffffffffffffffffff82169050919050565b60006107498261071e565b9050919050565b6107598161073e565b82525050565b60006020820190506107746000830184610750565b92915050565b600082825260208201905092915050565b6000610796826105cd565b6107a0818561077a565b93506107b08185602086016105e9565b6107b98161061c565b840191505092915050565b600060208201905081810360008301526107de818461078b565b905092915050565b600080fd5b600080fd5b7f4e487b7100000000000000000000000000000000000000000000000000000000600052604160045260246000fd5b6108288261061c565b810181811067ffffffffffffffff82111715610847576108466107f0565b5b80604052505050565b600061085a6104f4565b9050610866828261081f565b919050565b600067ffffffffffffffff821115610886576108856107f0565b5b61088f8261061c565b9050602081019050919050565b82818337600083830152505050565b60006108be6108b98461086b565b610850565b9050828152602081018484840111156108da576108d96107eb565b5b6108e584828561089c565b509392505050565b600082601f830112610902576109016107e6565b5b81356109128482602086016108ab565b91505092915050565b600060208284031215610931576109306104fe565b5b600082013567ffffffffffffffff81111561094f5761094e610503565b5b61095b848285016108ed565b91505092915050565b61096d81610508565b82525050565b60006020820190506109886000830184610964565b92915050565b7f4e487b7100000000000000000000000000000000000000000000000000000000600052602260045260246000fd5b600060028204905060018216806109d557607f821691505b602082108114156109e9576109e861098e565b5b50919050565b7f4e487b7100000000000000000000000000000000000000000000000000000000600052603260045260246000fd5b7f4f776e61626c653a2063616c6c6572206973206e6f7420746865206f776e6572600082015250565b6000610a5460208361077a565b9150610a5f82610a1e565b602082019050919050565b60006020820190508181036000830152610a8381610a47565b9050919050565b7f4e487b7100000000000000000000000000000000000000000000000000000000600052601160045260246000fd5b6000610ac482610508565b9150610acf83610508565b925082821015610ae257610ae1610a8a565b5b82820390509291505056fea264697066735822122001cdf257882bc95d38e9e6e6e51cad384a0330cf5b5d968dc9fb86d5ea1367d364736f6c634300080a0033",
  "immutableReferences": {},
  "source": "// SPDX-License-Identifier: GPL-3.0\r\npragma solidity >=0.8.0 <0.9.0;\r\n\r\nimport \"../ownership/Ownable.sol\";\r\ncontract BikeTypeModel is Ownable {\r\n\r\n    event AddedBikeType(uint indexed bikeType, string _type);\r\n\r\n    string[] private bikeTypeArray;\r\n    constructor(){\r\n        bikeTypeArray.push('None');\r\n    }\r\n\r\n    function addType(string memory bikeType) public onlyOwner returns (uint id){\r\n        bikeTypeArray.push(bikeType);\r\n        emit AddedBikeType(bikeTypeArray.length -1, bikeType);\r\n        return bikeTypeArray.length;\r\n    }\r\n\r\n    function getTypeById(uint id) public view returns (string memory name){\r\n        return bikeTypeArray[id];\r\n    }\r\n\r\n    function hasType(uint bikeType) public view returns (bool has){\r\n        return (bikeTypeArray.length > bikeType && bikeType > 0);\r\n    }\r\n\r\n    function getBikeTypeList() public view returns (string[] memory typeList){\r\n        return bikeTypeArray;\r\n    }\r\n}",
  "sourcePath": "/mnt/c/Users/ptars/Learn/Blockchain/Consensys/Bootcamp2021/Final Project/code/ptarso.bike.factory/contracts/bike/BikeTypeModel.sol",
  "compiler": {
    "name": "solc",
    "version": "0.8.10+commit.fc410830.Emscripten.clang"
  },
  "schemaVersion": "3.4.4",
  "updatedAt": "2022-01-10T22:12:58.678Z",
  "devdoc": {
    "kind": "dev",
    "methods": {},
    "version": 1
  },
  "userdoc": {
    "kind": "user",
    "methods": {},
    "version": 1
  }
}