{
  "contractName": "BikeFactory",
  "abi": [
    {
      "inputs": [],
      "stateMutability": "nonpayable",
      "type": "constructor"
    },
    {
      "anonymous": false,
      "inputs": [
        {
          "indexed": true,
          "internalType": "uint256",
          "name": "_bikeColor",
          "type": "uint256"
        },
        {
          "indexed": false,
          "internalType": "string",
          "name": "color",
          "type": "string"
        }
      ],
      "name": "AddedBikeColor",
      "type": "event"
    },
    {
      "anonymous": false,
      "inputs": [
        {
          "indexed": true,
          "internalType": "uint256",
          "name": "bikeType",
          "type": "uint256"
        },
        {
          "indexed": false,
          "internalType": "string",
          "name": "_type",
          "type": "string"
        }
      ],
      "name": "AddedBikeType",
      "type": "event"
    },
    {
      "anonymous": false,
      "inputs": [
        {
          "indexed": true,
          "internalType": "address",
          "name": "account",
          "type": "address"
        }
      ],
      "name": "AdminAdded",
      "type": "event"
    },
    {
      "anonymous": false,
      "inputs": [
        {
          "indexed": true,
          "internalType": "address",
          "name": "account",
          "type": "address"
        }
      ],
      "name": "AdminRemoved",
      "type": "event"
    },
    {
      "anonymous": false,
      "inputs": [
        {
          "indexed": true,
          "internalType": "address",
          "name": "instancecAddress",
          "type": "address"
        }
      ],
      "name": "BikeGenerated",
      "type": "event"
    },
    {
      "anonymous": false,
      "inputs": [
        {
          "indexed": true,
          "internalType": "address",
          "name": "instanceAddress",
          "type": "address"
        },
        {
          "indexed": false,
          "internalType": "string",
          "name": "name",
          "type": "string"
        }
      ],
      "name": "CompanyCreated",
      "type": "event"
    },
    {
      "anonymous": false,
      "inputs": [
        {
          "indexed": true,
          "internalType": "address",
          "name": "bike",
          "type": "address"
        },
        {
          "indexed": false,
          "internalType": "address",
          "name": "from",
          "type": "address"
        },
        {
          "indexed": false,
          "internalType": "address",
          "name": "to",
          "type": "address"
        }
      ],
      "name": "TransferedBike",
      "type": "event"
    },
    {
      "inputs": [
        {
          "internalType": "address",
          "name": "_account",
          "type": "address"
        }
      ],
      "name": "addAdmin",
      "outputs": [],
      "stateMutability": "nonpayable",
      "type": "function"
    },
    {
      "inputs": [
        {
          "internalType": "string",
          "name": "color",
          "type": "string"
        }
      ],
      "name": "addColor",
      "outputs": [
        {
          "internalType": "uint256",
          "name": "id",
          "type": "uint256"
        }
      ],
      "stateMutability": "nonpayable",
      "type": "function"
    },
    {
      "inputs": [
        {
          "internalType": "string",
          "name": "bikeType",
          "type": "string"
        }
      ],
      "name": "addType",
      "outputs": [
        {
          "internalType": "uint256",
          "name": "id",
          "type": "uint256"
        }
      ],
      "stateMutability": "nonpayable",
      "type": "function"
    },
    {
      "inputs": [],
      "name": "admins",
      "outputs": [
        {
          "internalType": "address[]",
          "name": "",
          "type": "address[]"
        }
      ],
      "stateMutability": "view",
      "type": "function"
    },
    {
      "inputs": [],
      "name": "getBikeColorList",
      "outputs": [
        {
          "internalType": "string[]",
          "name": "colorList",
          "type": "string[]"
        }
      ],
      "stateMutability": "view",
      "type": "function"
    },
    {
      "inputs": [],
      "name": "getBikeTypeList",
      "outputs": [
        {
          "internalType": "string[]",
          "name": "typeList",
          "type": "string[]"
        }
      ],
      "stateMutability": "view",
      "type": "function"
    },
    {
      "inputs": [
        {
          "internalType": "uint256",
          "name": "id",
          "type": "uint256"
        }
      ],
      "name": "getColorById",
      "outputs": [
        {
          "internalType": "string",
          "name": "name",
          "type": "string"
        }
      ],
      "stateMutability": "view",
      "type": "function"
    },
    {
      "inputs": [
        {
          "internalType": "uint256",
          "name": "id",
          "type": "uint256"
        }
      ],
      "name": "getTypeById",
      "outputs": [
        {
          "internalType": "string",
          "name": "name",
          "type": "string"
        }
      ],
      "stateMutability": "view",
      "type": "function"
    },
    {
      "inputs": [
        {
          "internalType": "uint256",
          "name": "bikeColor",
          "type": "uint256"
        }
      ],
      "name": "hasColorId",
      "outputs": [
        {
          "internalType": "bool",
          "name": "has",
          "type": "bool"
        }
      ],
      "stateMutability": "view",
      "type": "function"
    },
    {
      "inputs": [
        {
          "internalType": "string",
          "name": "bikeColor",
          "type": "string"
        }
      ],
      "name": "hasColorName",
      "outputs": [
        {
          "internalType": "bool",
          "name": "has",
          "type": "bool"
        }
      ],
      "stateMutability": "view",
      "type": "function"
    },
    {
      "inputs": [
        {
          "internalType": "uint256",
          "name": "bikeType",
          "type": "uint256"
        }
      ],
      "name": "hasType",
      "outputs": [
        {
          "internalType": "bool",
          "name": "has",
          "type": "bool"
        }
      ],
      "stateMutability": "view",
      "type": "function"
    },
    {
      "inputs": [
        {
          "internalType": "address",
          "name": "_account",
          "type": "address"
        }
      ],
      "name": "isAdmin",
      "outputs": [
        {
          "internalType": "bool",
          "name": "",
          "type": "bool"
        }
      ],
      "stateMutability": "view",
      "type": "function"
    },
    {
      "inputs": [],
      "name": "isOwner",
      "outputs": [
        {
          "internalType": "bool",
          "name": "",
          "type": "bool"
        }
      ],
      "stateMutability": "view",
      "type": "function"
    },
    {
      "inputs": [],
      "name": "owner",
      "outputs": [
        {
          "internalType": "address",
          "name": "",
          "type": "address"
        }
      ],
      "stateMutability": "view",
      "type": "function"
    },
    {
      "inputs": [
        {
          "internalType": "address",
          "name": "_account",
          "type": "address"
        }
      ],
      "name": "removeAdmin",
      "outputs": [],
      "stateMutability": "nonpayable",
      "type": "function"
    },
    {
      "inputs": [
        {
          "internalType": "address",
          "name": "companyAddress",
          "type": "address"
        },
        {
          "internalType": "string",
          "name": "name",
          "type": "string"
        }
      ],
      "name": "createCompany",
      "outputs": [],
      "stateMutability": "nonpayable",
      "type": "function"
    },
    {
      "inputs": [
        {
          "internalType": "address",
          "name": "companyAddress",
          "type": "address"
        }
      ],
      "name": "getCompanyByAddress",
      "outputs": [
        {
          "components": [
            {
              "internalType": "string",
              "name": "Name",
              "type": "string"
            },
            {
              "internalType": "enum CompanyModel.StatusCompanyEnum",
              "name": "Status",
              "type": "uint8"
            },
            {
              "internalType": "bool",
              "name": "Exist",
              "type": "bool"
            },
            {
              "internalType": "address",
              "name": "Owner",
              "type": "address"
            }
          ],
          "internalType": "struct CompanyModel.CompanyModelStruct",
          "name": "company",
          "type": "tuple"
        }
      ],
      "stateMutability": "view",
      "type": "function"
    },
    {
      "inputs": [],
      "name": "getCompanyList",
      "outputs": [
        {
          "internalType": "string[]",
          "name": "",
          "type": "string[]"
        },
        {
          "internalType": "enum CompanyModel.StatusCompanyEnum[]",
          "name": "",
          "type": "uint8[]"
        },
        {
          "internalType": "address[]",
          "name": "",
          "type": "address[]"
        }
      ],
      "stateMutability": "view",
      "type": "function"
    },
    {
      "inputs": [
        {
          "components": [
            {
              "internalType": "enum BikeModel.StatusBikeEnum",
              "name": "Status",
              "type": "uint8"
            },
            {
              "internalType": "uint8",
              "name": "TypeId",
              "type": "uint8"
            },
            {
              "internalType": "uint8",
              "name": "ColorId",
              "type": "uint8"
            },
            {
              "internalType": "uint256",
              "name": "WeiValue",
              "type": "uint256"
            }
          ],
          "internalType": "struct BikeModel.BikeModelStruct",
          "name": "bikeModel",
          "type": "tuple"
        }
      ],
      "name": "generateBike",
      "outputs": [
        {
          "internalType": "address",
          "name": "bikeAddress",
          "type": "address"
        }
      ],
      "stateMutability": "nonpayable",
      "type": "function"
    },
    {
      "inputs": [
        {
          "internalType": "uint256",
          "name": "id",
          "type": "uint256"
        }
      ],
      "name": "getBikeInstance",
      "outputs": [
        {
          "components": [
            {
              "internalType": "enum BikeModel.StatusBikeEnum",
              "name": "Status",
              "type": "uint8"
            },
            {
              "internalType": "uint8",
              "name": "TypeId",
              "type": "uint8"
            },
            {
              "internalType": "uint8",
              "name": "ColorId",
              "type": "uint8"
            },
            {
              "internalType": "uint256",
              "name": "WeiValue",
              "type": "uint256"
            }
          ],
          "internalType": "struct BikeModel.BikeModelStruct",
          "name": "bike",
          "type": "tuple"
        }
      ],
      "stateMutability": "view",
      "type": "function"
    },
    {
      "inputs": [
        {
          "internalType": "uint8",
          "name": "scope",
          "type": "uint8"
        }
      ],
      "name": "getBikeList",
      "outputs": [
        {
          "internalType": "uint256[]",
          "name": "id",
          "type": "uint256[]"
        },
        {
          "internalType": "address[]",
          "name": "owner",
          "type": "address[]"
        },
        {
          "internalType": "string[]",
          "name": "bikeType",
          "type": "string[]"
        },
        {
          "internalType": "string[]",
          "name": "bikeColor",
          "type": "string[]"
        },
        {
          "internalType": "enum BikeModel.StatusBikeEnum[]",
          "name": "bikeStatus",
          "type": "uint8[]"
        },
        {
          "internalType": "uint256[]",
          "name": "WeiValue",
          "type": "uint256[]"
        }
      ],
      "stateMutability": "view",
      "type": "function"
    },
    {
      "inputs": [
        {
          "internalType": "uint256",
          "name": "id",
          "type": "uint256"
        },
        {
          "internalType": "uint256",
          "name": "weiValue",
          "type": "uint256"
        }
      ],
      "name": "putBikeToSell",
      "outputs": [
        {
          "internalType": "bool",
          "name": "result",
          "type": "bool"
        }
      ],
      "stateMutability": "nonpayable",
      "type": "function"
    },
    {
      "inputs": [],
      "name": "getBikeListByOwner",
      "outputs": [
        {
          "internalType": "uint256[]",
          "name": "id",
          "type": "uint256[]"
        },
        {
          "internalType": "address[]",
          "name": "owner",
          "type": "address[]"
        },
        {
          "internalType": "string[]",
          "name": "bikeType",
          "type": "string[]"
        },
        {
          "internalType": "string[]",
          "name": "bikeColor",
          "type": "string[]"
        },
        {
          "internalType": "enum BikeModel.StatusBikeEnum[]",
          "name": "bikeStatus",
          "type": "uint8[]"
        },
        {
          "internalType": "uint256[]",
          "name": "WeiValue",
          "type": "uint256[]"
        }
      ],
      "stateMutability": "view",
      "type": "function"
    },
    {
      "inputs": [
        {
          "internalType": "uint256",
          "name": "id",
          "type": "uint256"
        }
      ],
      "name": "buyBike",
      "outputs": [
        {
          "internalType": "bool",
          "name": "result",
          "type": "bool"
        }
      ],
      "stateMutability": "payable",
      "type": "function"
    }
  ],
  "bytecode": "0x60806040523480156200001157600080fd5b50336000806101000a81548173ffffffffffffffffffffffffffffffffffffffff021916908373ffffffffffffffffffffffffffffffffffffffff16021790555062000063336200040f60201b60201c565b600380600181540180825580915050600190039060005260206000200160006040518060400160405280600481526020017f4e6f6e650000000000000000000000000000000000000000000000000000000081525090919091509080519060200190620000d292919062000a20565b50600480600181540180825580915050600190039060005260206000200160006040518060400160405280600481526020017f4e6f6e6500000000000000000000000000000000000000000000000000000000815250909190915090805190602001906200014292919062000a20565b50620001896040518060400160405280600581526020017f57686974650000000000000000000000000000000000000000000000000000008152506200047060201b60201c565b50620001d06040518060400160405280600681526020017f59656c6c6f7700000000000000000000000000000000000000000000000000008152506200047060201b60201c565b50620002176040518060400160405280600481526020017f426c7565000000000000000000000000000000000000000000000000000000008152506200047060201b60201c565b506200025e6040518060400160405280600681526020017f47726565656e00000000000000000000000000000000000000000000000000008152506200047060201b60201c565b50620002a56040518060400160405280600581526020017f426c61636b0000000000000000000000000000000000000000000000000000008152506200047060201b60201c565b50620002ec6040518060400160405280600381526020017f52656400000000000000000000000000000000000000000000000000000000008152506200047060201b60201c565b50620003336040518060400160405280600581526020017f557262616e000000000000000000000000000000000000000000000000000000815250620005be60201b60201c565b506200037a6040518060400160405280600781526020017f4d6f6e7461696e00000000000000000000000000000000000000000000000000815250620005be60201b60201c565b50620003c16040518060400160405280600881526020017f456c656374726963000000000000000000000000000000000000000000000000815250620005be60201b60201c565b50620004086040518060400160405280600681526020017f4879627269640000000000000000000000000000000000000000000000000000815250620005be60201b60201c565b5062000ff0565b6200042a816001620006aa60201b620032151790919060201c565b8073ffffffffffffffffffffffffffffffffffffffff167f44d6d25963f097ad14f29f06854a01f575648a1ef82f30e562ccd3889717e33960405160405180910390a250565b600062000482620007c360201b60201c565b620004c4576040517f08c379a0000000000000000000000000000000000000000000000000000000008152600401620004bb9062000b31565b60405180910390fd5b620004d5826200081a60201b60201c565b1562000518576040517f08c379a00000000000000000000000000000000000000000000000000000000081526004016200050f9062000ba3565b60405180910390fd5b6004829080600181540180825580915050600190039060005260206000200160009091909190915090805190602001906200055592919062000a20565b5060016004805490506200056a919062000bfe565b7fe8f2d5e1077776dd49f0c41eff64cc2d666891f43bf743709a06752331647fd9836040516200059b919062000ccc565b60405180910390a26001600480549050620005b7919062000bfe565b9050919050565b6000620005d0620007c360201b60201c565b62000612576040517f08c379a0000000000000000000000000000000000000000000000000000000008152600401620006099062000b31565b60405180910390fd5b6003829080600181540180825580915050600190039060005260206000200160009091909190915090805190602001906200064f92919062000a20565b50600160038054905062000664919062000bfe565b7f775f0bedea302366da4f840798b787d49a486af6d7a75c52d8b306a50e6812688360405162000695919062000ccc565b60405180910390a26003805490509050919050565b620006bc8282620008d560201b60201c565b15620006ff576040517f08c379a0000000000000000000000000000000000000000000000000000000008152600401620006f69062000d40565b60405180910390fd5b81600101819080600181540180825580915050600190039060005260206000200160009091909190916101000a81548173ffffffffffffffffffffffffffffffffffffffff021916908373ffffffffffffffffffffffffffffffffffffffff160217905550600182600101805490506200077a919062000bfe565b8260000160008373ffffffffffffffffffffffffffffffffffffffff1673ffffffffffffffffffffffffffffffffffffffff168152602001908152602001600020819055505050565b60008060009054906101000a900473ffffffffffffffffffffffffffffffffffffffff1673ffffffffffffffffffffffffffffffffffffffff163373ffffffffffffffffffffffffffffffffffffffff1614905090565b600080600090505b600480549050811015620008ca578260405160200162000843919062000da4565b604051602081830303815290604052805190602001206004828154811062000870576200086f62000dbd565b5b906000526020600020016040516020016200088c919062000ef1565b604051602081830303815290604052805190602001201415620008b4576001915050620008d0565b8080620008c19062000f0a565b91505062000822565b50600090505b919050565b60008073ffffffffffffffffffffffffffffffffffffffff168273ffffffffffffffffffffffffffffffffffffffff16141562000949576040517f08c379a0000000000000000000000000000000000000000000000000000000008152600401620009409062000fce565b60405180910390fd5b60008360010180549050141562000964576000905062000a1a565b8173ffffffffffffffffffffffffffffffffffffffff16836001018460000160008573ffffffffffffffffffffffffffffffffffffffff1673ffffffffffffffffffffffffffffffffffffffff1681526020019081526020016000205481548110620009d557620009d462000dbd565b5b9060005260206000200160009054906101000a900473ffffffffffffffffffffffffffffffffffffffff1673ffffffffffffffffffffffffffffffffffffffff161490505b92915050565b82805462000a2e9062000e1b565b90600052602060002090601f01602090048101928262000a52576000855562000a9e565b82601f1062000a6d57805160ff191683800117855562000a9e565b8280016001018555821562000a9e579182015b8281111562000a9d57825182559160200191906001019062000a80565b5b50905062000aad919062000ab1565b5090565b5b8082111562000acc57600081600090555060010162000ab2565b5090565b600082825260208201905092915050565b7f4f776e61626c653a2063616c6c6572206973206e6f7420746865206f776e6572600082015250565b600062000b1960208362000ad0565b915062000b268262000ae1565b602082019050919050565b6000602082019050818103600083015262000b4c8162000b0a565b9050919050565b7f436f6c6f7220616c726561647920657869737400000000000000000000000000600082015250565b600062000b8b60138362000ad0565b915062000b988262000b53565b602082019050919050565b6000602082019050818103600083015262000bbe8162000b7c565b9050919050565b6000819050919050565b7f4e487b7100000000000000000000000000000000000000000000000000000000600052601160045260246000fd5b600062000c0b8262000bc5565b915062000c188362000bc5565b92508282101562000c2e5762000c2d62000bcf565b5b828203905092915050565b600081519050919050565b60005b8381101562000c6457808201518184015260208101905062000c47565b8381111562000c74576000848401525b50505050565b6000601f19601f8301169050919050565b600062000c988262000c39565b62000ca4818562000ad0565b935062000cb681856020860162000c44565b62000cc18162000c7a565b840191505092915050565b6000602082019050818103600083015262000ce8818462000c8b565b905092915050565b7f526f6c65733a206163636f756e7420616c72656164792068617320726f6c6500600082015250565b600062000d28601f8362000ad0565b915062000d358262000cf0565b602082019050919050565b6000602082019050818103600083015262000d5b8162000d19565b9050919050565b600081905092915050565b600062000d7a8262000c39565b62000d86818562000d62565b935062000d9881856020860162000c44565b80840191505092915050565b600062000db2828462000d6d565b915081905092915050565b7f4e487b7100000000000000000000000000000000000000000000000000000000600052603260045260246000fd5b7f4e487b7100000000000000000000000000000000000000000000000000000000600052602260045260246000fd5b6000600282049050600182168062000e3457607f821691505b6020821081141562000e4b5762000e4a62000dec565b5b50919050565b60008190508160005260206000209050919050565b6000815462000e758162000e1b565b62000e81818662000d62565b9450600182166000811462000e9f576001811462000eb15762000ee8565b60ff1983168652818601935062000ee8565b62000ebc8562000e51565b60005b8381101562000ee05781548189015260018201915060208101905062000ebf565b838801955050505b50505092915050565b600062000eff828462000e66565b915081905092915050565b600062000f178262000bc5565b91507fffffffffffffffffffffffffffffffffffffffffffffffffffffffffffffffff82141562000f4d5762000f4c62000bcf565b5b600182019050919050565b7f526f6c65733a206163636f756e742061646472657373206973206e6f7420766160008201527f6c69640000000000000000000000000000000000000000000000000000000000602082015250565b600062000fb660238362000ad0565b915062000fc38262000f58565b604082019050919050565b6000602082019050818103600083015262000fe98162000fa7565b9050919050565b615f7f80620010006000396000f3fe6080604052600436106200016a5760003560e01c8063722cb0c311620000c7578063b6aa99161162000079578063b6aa9916146200058c578063e7f08e6914620005d0578063eece8a961462000614578063f117dd5b1462000658578063f3ab7f99146200069c578063f94ae9dc14620006ca576200016a565b8063722cb0c31462000444578063882e7b6714620004885780638da5cb5b14620004b85780638f32d59b14620004e8578063a5de36191462000518578063ae0aad251462000548576200016a565b806345a464c6116200012157806345a464c614620002e357806355762728146200032757806369358e2e14620003705780636a26407a14620003a25780636c5a105814620003d2578063704802751462000416576200016a565b8063077ebe1c146200016f5780630d1ef6ee14620001b357806315341f2b14620001f75780631785f53c146200023b57806324d7806c146200026957806330f59f0f14620002ad575b600080fd5b3480156200017c57600080fd5b506200019b600480360381019062000195919062003a3e565b620006ff565b604051620001aa919062003a8d565b60405180910390f35b348015620001c057600080fd5b50620001df6004803603810190620001d9919062003a3e565b6200071d565b604051620001ee919062003bb6565b60405180910390f35b3480156200020457600080fd5b506200022360048036038101906200021d919062003d35565b620007e0565b60405162000232919062003d97565b60405180910390f35b3480156200024857600080fd5b5062000267600480360381019062000261919062003e19565b62000922565b005b3480156200027657600080fd5b506200029560048036038101906200028f919062003e19565b6200097d565b604051620002a4919062003a8d565b60405180910390f35b620002cb6004803603810190620002c5919062003a3e565b6200099c565b604051620002da919062003a8d565b60405180910390f35b348015620002f057600080fd5b506200030f600480360381019062000309919062003e4b565b620010fa565b6040516200031e919062003a8d565b60405180910390f35b3480156200033457600080fd5b506200035360048036038101906200034d919062003ec3565b62001308565b6040516200036796959493929190620042a0565b60405180910390f35b3480156200037d57600080fd5b506200038862001b20565b604051620003999392919062004434565b60405180910390f35b348015620003af57600080fd5b50620003ba62001e76565b604051620003c9919062004486565b60405180910390f35b348015620003df57600080fd5b50620003fe6004803603810190620003f8919062003d35565b62001f59565b6040516200040d919062003a8d565b60405180910390f35b3480156200042357600080fd5b506200044260048036038101906200043c919062003e19565b62002014565b005b3480156200045157600080fd5b506200047060048036038101906200046a919062003a3e565b6200206f565b6040516200047f919062003a8d565b60405180910390f35b3480156200049557600080fd5b50620004a06200208d565b604051620004af919062004486565b60405180910390f35b348015620004c557600080fd5b50620004d062002170565b604051620004df9190620044bb565b60405180910390f35b348015620004f557600080fd5b506200050062002199565b6040516200050f919062003a8d565b60405180910390f35b3480156200052557600080fd5b5062000530620021f0565b6040516200053f9190620044d8565b60405180910390f35b3480156200055557600080fd5b506200057460048036038101906200056e919062003a3e565b62002203565b6040516200058391906200454e565b60405180910390f35b3480156200059957600080fd5b50620005b86004803603810190620005b2919062003a3e565b620022be565b604051620005c791906200454e565b60405180910390f35b348015620005dd57600080fd5b50620005fc6004803603810190620005f6919062003d35565b62002379565b6040516200060b919062003d97565b60405180910390f35b3480156200062157600080fd5b506200064060048036038101906200063a919062004624565b6200245f565b6040516200064f9190620044bb565b60405180910390f35b3480156200066557600080fd5b506200068460048036038101906200067e919062003e19565b62002786565b604051620006939190620046d2565b60405180910390f35b348015620006a957600080fd5b50620006c86004803603810190620006c29190620046f6565b6200292d565b005b348015620006d757600080fd5b50620006e262002c25565b604051620006f696959493929190620042a0565b60405180910390f35b600081600480549050118015620007165750600082115b9050919050565b6200072762003899565b620007686005600084815260200190815260200160002060000160009054906101000a900473ffffffffffffffffffffffffffffffffffffffff1662003328565b73ffffffffffffffffffffffffffffffffffffffff1663a7ff89d76040518163ffffffff1660e01b8152600401608060405180830381865afa158015620007b3573d6000803e3d6000fd5b505050506040513d601f19601f82011682018060405250810190620007d9919062004826565b9050919050565b6000620007ec62002199565b6200082e576040517f08c379a00000000000000000000000000000000000000000000000000000000081526004016200082590620048a8565b60405180910390fd5b620008398262001f59565b156200087c576040517f08c379a000000000000000000000000000000000000000000000000000000000815260040162000873906200491a565b60405180910390fd5b600482908060018154018082558091505060019003906000526020600020016000909190919091509080519060200190620008b9929190620038dc565b506001600480549050620008ce91906200496b565b7fe8f2d5e1077776dd49f0c41eff64cc2d666891f43bf743709a06752331647fd983604051620008ff91906200454e565b60405180910390a260016004805490506200091b91906200496b565b9050919050565b6200092d336200097d565b6200096f576040517f08c379a0000000000000000000000000000000000000000000000000000000008152600401620009669062004a1c565b60405180910390fd5b6200097a8162003337565b50565b6000620009958260016200340590919063ffffffff16565b9050919050565b600060026005811115620009b557620009b462003aaa565b5b620009f66005600085815260200190815260200160002060000160009054906101000a900473ffffffffffffffffffffffffffffffffffffffff1662003328565b73ffffffffffffffffffffffffffffffffffffffff1663a7ff89d76040518163ffffffff1660e01b8152600401608060405180830381865afa15801562000a41573d6000803e3d6000fd5b505050506040513d601f19601f8201168201806040525081019062000a67919062004826565b60000151600581111562000a805762000a7f62003aaa565b5b1462000ac3576040517f08c379a000000000000000000000000000000000000000000000000000000000815260040162000aba9062004a8e565b60405180910390fd5b60006005600084815260200190815260200160002060010160009054906101000a900473ffffffffffffffffffffffffffffffffffffffff1690503373ffffffffffffffffffffffffffffffffffffffff168173ffffffffffffffffffffffffffffffffffffffff16141562000b70576040517f08c379a000000000000000000000000000000000000000000000000000000000815260040162000b679062004b26565b60405180910390fd5b62000bb16005600085815260200190815260200160002060000160009054906101000a900473ffffffffffffffffffffffffffffffffffffffff1662003328565b73ffffffffffffffffffffffffffffffffffffffff1663a7ff89d76040518163ffffffff1660e01b8152600401608060405180830381865afa15801562000bfc573d6000803e3d6000fd5b505050506040513d601f19601f8201168201806040525081019062000c22919062004826565b60600151341462000c6a576040517f08c379a000000000000000000000000000000000000000000000000000000000815260040162000c619062004b98565b60405180910390fd5b60008173ffffffffffffffffffffffffffffffffffffffff163460405162000c929062004bef565b60006040518083038185875af1925050503d806000811462000cd1576040519150601f19603f3d011682016040523d82523d6000602084013e62000cd6565b606091505b505090508062000d1d576040517f08c379a000000000000000000000000000000000000000000000000000000000815260040162000d149062004c56565b60405180910390fd5b60006005600086815260200190815260200160002060010160009054906101000a900473ffffffffffffffffffffffffffffffffffffffff169050336005600087815260200190815260200160002060010160006101000a81548173ffffffffffffffffffffffffffffffffffffffff021916908373ffffffffffffffffffffffffffffffffffffffff16021790555060005b60098054905081101562000fb3576005600087815260200190815260200160002060000160009054906101000a900473ffffffffffffffffffffffffffffffffffffffff1673ffffffffffffffffffffffffffffffffffffffff166009828154811062000e225762000e2162004c78565b5b9060005260206000200160009054906101000a900473ffffffffffffffffffffffffffffffffffffffff1673ffffffffffffffffffffffffffffffffffffffff16141562000f9d5760008190505b600160098054905062000e8491906200496b565b81101562000f5157600960018262000e9d919062004ca7565b8154811062000eb15762000eb062004c78565b5b9060005260206000200160009054906101000a900473ffffffffffffffffffffffffffffffffffffffff166009828154811062000ef35762000ef262004c78565b5b9060005260206000200160006101000a81548173ffffffffffffffffffffffffffffffffffffffff021916908373ffffffffffffffffffffffffffffffffffffffff160217905550808062000f489062004d04565b91505062000e70565b50600980548062000f675762000f6662004d52565b5b6001900381819060005260206000200160006101000a81549073ffffffffffffffffffffffffffffffffffffffff021916905590555b808062000faa9062004d04565b91505062000db0565b506005600086815260200190815260200160002060000160009054906101000a900473ffffffffffffffffffffffffffffffffffffffff1673ffffffffffffffffffffffffffffffffffffffff167f353ce1acabf7053ab5d4da9d9392aefeaf63c4e7d6f531bff8c13e674f5bc22b82336040516200103492919062004d81565b60405180910390a26200107d6005600087815260200190815260200160002060000160009054906101000a900473ffffffffffffffffffffffffffffffffffffffff1662003328565b73ffffffffffffffffffffffffffffffffffffffff166392e42bdb6040518163ffffffff1660e01b81526004016020604051808303816000875af1158015620010ca573d6000803e3d6000fd5b505050506040513d601f19601f82011682018060405250810190620010f0919062004ddf565b9350505050919050565b60003373ffffffffffffffffffffffffffffffffffffffff166005600085815260200190815260200160002060010160009054906101000a900473ffffffffffffffffffffffffffffffffffffffff1673ffffffffffffffffffffffffffffffffffffffff1614620011a3576040517f08c379a00000000000000000000000000000000000000000000000000000000081526004016200119a9062004e61565b60405180910390fd5b60096005600085815260200190815260200160002060000160009054906101000a900473ffffffffffffffffffffffffffffffffffffffff169080600181540180825580915050600190039060005260206000200160009091909190916101000a81548173ffffffffffffffffffffffffffffffffffffffff021916908373ffffffffffffffffffffffffffffffffffffffff1602179055506200127d6005600085815260200190815260200160002060000160009054906101000a900473ffffffffffffffffffffffffffffffffffffffff1662003328565b73ffffffffffffffffffffffffffffffffffffffff166311eb74a76002846040518363ffffffff1660e01b8152600401620012ba92919062004e94565b6020604051808303816000875af1158015620012da573d6000803e3d6000fd5b505050506040513d601f19601f8201168201806040525081019062001300919062004ddf565b905092915050565b60608060608060608060008060028960ff1614620013295760065462001330565b6009805490505b67ffffffffffffffff8111156200134c576200134b62003bee565b5b6040519080825280602002602001820160405280156200137b5781602001602082028036833780820191505090505b509050600060028a60ff161462001395576006546200139c565b6009805490505b67ffffffffffffffff811115620013b857620013b762003bee565b5b604051908082528060200260200182016040528015620013e75781602001602082028036833780820191505090505b509050600060028b60ff1614620014015760065462001408565b6009805490505b67ffffffffffffffff81111562001424576200142362003bee565b5b6040519080825280602002602001820160405280156200145957816020015b6060815260200190600190039081620014435790505b509050600060028c60ff161462001473576006546200147a565b6009805490505b67ffffffffffffffff81111562001496576200149562003bee565b5b604051908082528060200260200182016040528015620014cb57816020015b6060815260200190600190039081620014b55790505b509050600060028d60ff1614620014e557600654620014ec565b6009805490505b67ffffffffffffffff81111562001508576200150762003bee565b5b604051908082528060200260200182016040528015620015375781602001602082028036833780820191505090505b509050600060028e60ff1614620015515760065462001558565b6009805490505b67ffffffffffffffff81111562001574576200157362003bee565b5b604051908082528060200260200182016040528015620015a35781602001602082028036833780820191505090505b50905060005b60065481101562001afd5760018f60ff1614156200183257600181620015d0919062004ca7565b878281518110620015e657620015e562004c78565b5b602002602001018181525050600062001643600560006001856200160b919062004ca7565b815260200190815260200160002060000160009054906101000a900473ffffffffffffffffffffffffffffffffffffffff1662003328565b73ffffffffffffffffffffffffffffffffffffffff1663a7ff89d76040518163ffffffff1660e01b8152600401608060405180830381865afa1580156200168e573d6000803e3d6000fd5b505050506040513d601f19601f82011682018060405250810190620016b4919062004826565b9050620016c8816020015160ff16620022be565b868381518110620016de57620016dd62004c78565b5b6020026020010181905250806000015184838151811062001704576200170362004c78565b5b6020026020010190600581111562001721576200172062003aaa565b5b9081600581111562001738576200173762003aaa565b5b815250506200174e816040015160ff1662002203565b85838151811062001764576200176362004c78565b5b602002602001018190525080606001518383815181106200178a576200178962004c78565b5b60200260200101818152505060056000600184620017a9919062004ca7565b815260200190815260200160002060010160009054906101000a900473ffffffffffffffffffffffffffffffffffffffff16878381518110620017f157620017f062004c78565b5b602002602001019073ffffffffffffffffffffffffffffffffffffffff16908173ffffffffffffffffffffffffffffffffffffffff16815250505062001ae7565b600062001883600560006001856200184b919062004ca7565b815260200190815260200160002060000160009054906101000a900473ffffffffffffffffffffffffffffffffffffffff1662003328565b73ffffffffffffffffffffffffffffffffffffffff1663a7ff89d76040518163ffffffff1660e01b8152600401608060405180830381865afa158015620018ce573d6000803e3d6000fd5b505050506040513d601f19601f82011682018060405250810190620018f4919062004826565b9050600260058111156200190d576200190c62003aaa565b5b8160000151600581111562001927576200192662003aaa565b5b141562001ae5576001826200193d919062004ca7565b888a8151811062001953576200195262004c78565b5b60200260200101818152505062001971816020015160ff16620022be565b868a8151811062001987576200198662004c78565b5b60200260200101819052508060000151848a81518110620019ad57620019ac62004c78565b5b60200260200101906005811115620019ca57620019c962003aaa565b5b90816005811115620019e157620019e062003aaa565b5b81525050620019f7816040015160ff1662002203565b858a8151811062001a0d5762001a0c62004c78565b5b60200260200101819052508060600151838a8151811062001a335762001a3262004c78565b5b6020026020010181815250506005600060018462001a52919062004ca7565b815260200190815260200160002060010160009054906101000a900473ffffffffffffffffffffffffffffffffffffffff16878a8151811062001a9a5762001a9962004c78565b5b602002602001019073ffffffffffffffffffffffffffffffffffffffff16908173ffffffffffffffffffffffffffffffffffffffff1681525050888062001ae19062004d04565b9950505b505b808062001af49062004d04565b915050620015a9565b508585858585859c509c509c509c509c509c505050505050505091939550919395565b6060806060600060088054905067ffffffffffffffff81111562001b495762001b4862003bee565b5b60405190808252806020026020018201604052801562001b7e57816020015b606081526020019060019003908162001b685790505b509050600060088054905067ffffffffffffffff81111562001ba55762001ba462003bee565b5b60405190808252806020026020018201604052801562001bd45781602001602082028036833780820191505090505b509050600060088054905067ffffffffffffffff81111562001bfb5762001bfa62003bee565b5b60405190808252806020026020018201604052801562001c2a5781602001602082028036833780820191505090505b50905060005b60088054905081101562001e64576000600760006008848154811062001c5b5762001c5a62004c78565b5b9060005260206000200160009054906101000a900473ffffffffffffffffffffffffffffffffffffffff1673ffffffffffffffffffffffffffffffffffffffff1673ffffffffffffffffffffffffffffffffffffffff168152602001908152602001600020905080600001805462001cd39062004ef0565b80601f016020809104026020016040519081016040528092919081815260200182805462001d019062004ef0565b801562001d525780601f1062001d265761010080835404028352916020019162001d52565b820191906000526020600020905b81548152906001019060200180831162001d3457829003601f168201915b505050505085838151811062001d6d5762001d6c62004c78565b5b60200260200101819052508060010160009054906101000a900460ff1684838151811062001da05762001d9f62004c78565b5b6020026020010190600281111562001dbd5762001dbc62003aaa565b5b9081600281111562001dd45762001dd362003aaa565b5b815250508060010160029054906101000a900473ffffffffffffffffffffffffffffffffffffffff1683838151811062001e135762001e1262004c78565b5b602002602001019073ffffffffffffffffffffffffffffffffffffffff16908173ffffffffffffffffffffffffffffffffffffffff168152505050808062001e5b9062004d04565b91505062001c30565b50828282955095509550505050909192565b60606004805480602002602001604051908101604052809291908181526020016000905b8282101562001f5057838290600052602060002001805462001ebc9062004ef0565b80601f016020809104026020016040519081016040528092919081815260200182805462001eea9062004ef0565b801562001f3b5780601f1062001f0f5761010080835404028352916020019162001f3b565b820191906000526020600020905b81548152906001019060200180831162001f1d57829003601f168201915b50505050508152602001906001019062001e9a565b50505050905090565b600080600090505b60048054905081101562002009578260405160200162001f82919062004f68565b604051602081830303815290604052805190602001206004828154811062001faf5762001fae62004c78565b5b9060005260206000200160405160200162001fcb919062005021565b60405160208183030381529060405280519060200120141562001ff35760019150506200200f565b8080620020009062004d04565b91505062001f61565b50600090505b919050565b6200201f336200097d565b62002061576040517f08c379a0000000000000000000000000000000000000000000000000000000008152600401620020589062004a1c565b60405180910390fd5b6200206c8162003550565b50565b600081600380549050118015620020865750600082115b9050919050565b60606003805480602002602001604051908101604052809291908181526020016000905b8282101562002167578382906000526020600020018054620020d39062004ef0565b80601f0160208091040260200160405190810160405280929190818152602001828054620021019062004ef0565b8015620021525780601f10620021265761010080835404028352916020019162002152565b820191906000526020600020905b8154815290600101906020018083116200213457829003601f168201915b505050505081526020019060010190620020b1565b50505050905090565b60008060009054906101000a900473ffffffffffffffffffffffffffffffffffffffff16905090565b60008060009054906101000a900473ffffffffffffffffffffffffffffffffffffffff1673ffffffffffffffffffffffffffffffffffffffff163373ffffffffffffffffffffffffffffffffffffffff1614905090565b6060620021fe6001620035ac565b905090565b6060600482815481106200221c576200221b62004c78565b5b906000526020600020018054620022339062004ef0565b80601f0160208091040260200160405190810160405280929190818152602001828054620022619062004ef0565b8015620022b25780601f106200228657610100808354040283529160200191620022b2565b820191906000526020600020905b8154815290600101906020018083116200229457829003601f168201915b50505050509050919050565b606060038281548110620022d757620022d662004c78565b5b906000526020600020018054620022ee9062004ef0565b80601f01602080910402602001604051908101604052809291908181526020018280546200231c9062004ef0565b80156200236d5780601f1062002341576101008083540402835291602001916200236d565b820191906000526020600020905b8154815290600101906020018083116200234f57829003601f168201915b50505050509050919050565b60006200238562002199565b620023c7576040517f08c379a0000000000000000000000000000000000000000000000000000000008152600401620023be90620048a8565b60405180910390fd5b60038290806001815401808255809150506001900390600052602060002001600090919091909150908051906020019062002404929190620038dc565b5060016003805490506200241991906200496b565b7f775f0bedea302366da4f840798b787d49a486af6d7a75c52d8b306a50e681268836040516200244a91906200454e565b60405180910390a26003805490509050919050565b60006200246c336200097d565b620024ae576040517f08c379a0000000000000000000000000000000000000000000000000000000008152600401620024a59062004a1c565b60405180910390fd5b60011515620024c4836020015160ff166200206f565b15151462002509576040517f08c379a000000000000000000000000000000000000000000000000000000000815260040162002500906200508a565b60405180910390fd5b600115156200251f836040015160ff16620006ff565b15151462002564576040517f08c379a00000000000000000000000000000000000000000000000000000000081526004016200255b90620050fc565b60405180910390fd5b600760003373ffffffffffffffffffffffffffffffffffffffff1673ffffffffffffffffffffffffffffffffffffffff16815260200190815260200160002060010160019054906101000a900460ff16620025f6576040517f08c379a0000000000000000000000000000000000000000000000000000000008152600401620025ed906200516e565b60405180910390fd5b60008260405162002607906200396d565b62002613919062003bb6565b604051809103906000f08015801562002630573d6000803e3d6000fd5b5090506000819050600660008154809291906200264d9062004d04565b919050555060405180604001604052808273ffffffffffffffffffffffffffffffffffffffff1681526020013373ffffffffffffffffffffffffffffffffffffffff1681525060056000600654815260200190815260200160002060008201518160000160006101000a81548173ffffffffffffffffffffffffffffffffffffffff021916908373ffffffffffffffffffffffffffffffffffffffff16021790555060208201518160010160006101000a81548173ffffffffffffffffffffffffffffffffffffffff021916908373ffffffffffffffffffffffffffffffffffffffff1602179055509050508073ffffffffffffffffffffffffffffffffffffffff167f783cf24cc63271a871f797878968f8784c1f4681dffdf376e0d4398df2b4025c60405160405180910390a28092505050919050565b620027906200397b565b600760008373ffffffffffffffffffffffffffffffffffffffff1673ffffffffffffffffffffffffffffffffffffffff168152602001908152602001600020604051806080016040529081600082018054620027ec9062004ef0565b80601f01602080910402602001604051908101604052809291908181526020018280546200281a9062004ef0565b80156200286b5780601f106200283f576101008083540402835291602001916200286b565b820191906000526020600020905b8154815290600101906020018083116200284d57829003601f168201915b505050505081526020016001820160009054906101000a900460ff1660028111156200289c576200289b62003aaa565b5b6002811115620028b157620028b062003aaa565b5b81526020016001820160019054906101000a900460ff161515151581526020016001820160029054906101000a900473ffffffffffffffffffffffffffffffffffffffff1673ffffffffffffffffffffffffffffffffffffffff1673ffffffffffffffffffffffffffffffffffffffff16815250509050919050565b6200293762002199565b62002979576040517f08c379a00000000000000000000000000000000000000000000000000000000081526004016200297090620048a8565b60405180910390fd5b600073ffffffffffffffffffffffffffffffffffffffff168273ffffffffffffffffffffffffffffffffffffffff161415620029ec576040517f08c379a0000000000000000000000000000000000000000000000000000000008152600401620029e39062005206565b60405180910390fd5b600760008373ffffffffffffffffffffffffffffffffffffffff1673ffffffffffffffffffffffffffffffffffffffff16815260200190815260200160002060010160019054906101000a900460ff161562002a7f576040517f08c379a000000000000000000000000000000000000000000000000000000000815260040162002a769062005278565b60405180910390fd5b6000600760008473ffffffffffffffffffffffffffffffffffffffff1673ffffffffffffffffffffffffffffffffffffffff16815260200190815260200160002090508181600001908051906020019062002adc929190620038dc565b5060008160010160006101000a81548160ff0219169083600281111562002b085762002b0762003aaa565b5b021790555060018160010160016101000a81548160ff021916908315150217905550828160010160026101000a81548173ffffffffffffffffffffffffffffffffffffffff021916908373ffffffffffffffffffffffffffffffffffffffff1602179055506008839080600181540180825580915050600190039060005260206000200160009091909190916101000a81548173ffffffffffffffffffffffffffffffffffffffff021916908373ffffffffffffffffffffffffffffffffffffffff1602179055508273ffffffffffffffffffffffffffffffffffffffff167f85fab8e92bf0510a5cb6805fc4c546db423a5700b84984f94e2ddb727b132b658360405162002c1891906200454e565b60405180910390a2505050565b606080606080606080600080600090505b60065481101562002ce1573373ffffffffffffffffffffffffffffffffffffffff166005600060018462002c6b919062004ca7565b815260200190815260200160002060010160009054906101000a900473ffffffffffffffffffffffffffffffffffffffff1673ffffffffffffffffffffffffffffffffffffffff16141562002ccb57818062002cc79062004d04565b9250505b808062002cd89062004d04565b91505062002c36565b5060008167ffffffffffffffff81111562002d015762002d0062003bee565b5b60405190808252806020026020018201604052801562002d305781602001602082028036833780820191505090505b50905060008267ffffffffffffffff81111562002d525762002d5162003bee565b5b60405190808252806020026020018201604052801562002d815781602001602082028036833780820191505090505b50905060008367ffffffffffffffff81111562002da35762002da262003bee565b5b60405190808252806020026020018201604052801562002dd857816020015b606081526020019060019003908162002dc25790505b50905060008467ffffffffffffffff81111562002dfa5762002df962003bee565b5b60405190808252806020026020018201604052801562002e2f57816020015b606081526020019060019003908162002e195790505b50905060008567ffffffffffffffff81111562002e515762002e5062003bee565b5b60405190808252806020026020018201604052801562002e805781602001602082028036833780820191505090505b50905060008667ffffffffffffffff81111562002ea25762002ea162003bee565b5b60405190808252806020026020018201604052801562002ed15781602001602082028036833780820191505090505b509050600080600090505b600654811015620031f2573373ffffffffffffffffffffffffffffffffffffffff166005600060018462002f11919062004ca7565b815260200190815260200160002060010160009054906101000a900473ffffffffffffffffffffffffffffffffffffffff1673ffffffffffffffffffffffffffffffffffffffff161415620031dc57600062002fb16005600060018562002f79919062004ca7565b815260200190815260200160002060000160009054906101000a900473ffffffffffffffffffffffffffffffffffffffff1662003328565b73ffffffffffffffffffffffffffffffffffffffff1663a7ff89d76040518163ffffffff1660e01b8152600401608060405180830381865afa15801562002ffc573d6000803e3d6000fd5b505050506040513d601f19601f8201168201806040525081019062003022919062004826565b905060018262003033919062004ca7565b89848151811062003049576200304862004c78565b5b60200260200101818152505062003067816020015160ff16620022be565b8784815181106200307d576200307c62004c78565b5b60200260200101819052508060000151858481518110620030a357620030a262004c78565b5b60200260200101906005811115620030c057620030bf62003aaa565b5b90816005811115620030d757620030d662003aaa565b5b81525050620030ed816040015160ff1662002203565b86848151811062003103576200310262004c78565b5b6020026020010181905250806060015184848151811062003129576200312862004c78565b5b6020026020010181815250506005600060018462003148919062004ca7565b815260200190815260200160002060010160009054906101000a900473ffffffffffffffffffffffffffffffffffffffff1688848151811062003190576200318f62004c78565b5b602002602001019073ffffffffffffffffffffffffffffffffffffffff16908173ffffffffffffffffffffffffffffffffffffffff16815250508280620031d79062004d04565b935050505b8080620031e99062004d04565b91505062002edc565b508686868686869d509d509d509d509d509d505050505050505050909192939495565b62003221828262003405565b1562003264576040517f08c379a00000000000000000000000000000000000000000000000000000000081526004016200325b90620052ea565b60405180910390fd5b81600101819080600181540180825580915050600190039060005260206000200160009091909190916101000a81548173ffffffffffffffffffffffffffffffffffffffff021916908373ffffffffffffffffffffffffffffffffffffffff16021790555060018260010180549050620032df91906200496b565b8260000160008373ffffffffffffffffffffffffffffffffffffffff1673ffffffffffffffffffffffffffffffffffffffff168152602001908152602001600020819055505050565b60008082905080915050919050565b3373ffffffffffffffffffffffffffffffffffffffff168173ffffffffffffffffffffffffffffffffffffffff161415620033a9576040517f08c379a0000000000000000000000000000000000000000000000000000000008152600401620033a09062005382565b60405180910390fd5b620033bf8160016200364090919063ffffffff16565b8073ffffffffffffffffffffffffffffffffffffffff167fa3b62bc36326052d97ea62d63c3d60308ed4c3ea8ac079dd8499f1e9c4f80c0f60405160405180910390a250565b60008073ffffffffffffffffffffffffffffffffffffffff168273ffffffffffffffffffffffffffffffffffffffff16141562003479576040517f08c379a000000000000000000000000000000000000000000000000000000000815260040162003470906200541a565b60405180910390fd5b6000836001018054905014156200349457600090506200354a565b8173ffffffffffffffffffffffffffffffffffffffff16836001018460000160008573ffffffffffffffffffffffffffffffffffffffff1673ffffffffffffffffffffffffffffffffffffffff168152602001908152602001600020548154811062003505576200350462004c78565b5b9060005260206000200160009054906101000a900473ffffffffffffffffffffffffffffffffffffffff1673ffffffffffffffffffffffffffffffffffffffff161490505b92915050565b620035668160016200321590919063ffffffff16565b8073ffffffffffffffffffffffffffffffffffffffff167f44d6d25963f097ad14f29f06854a01f575648a1ef82f30e562ccd3889717e33960405160405180910390a250565b6060816001018054806020026020016040519081016040528092919081815260200182805480156200363457602002820191906000526020600020905b8160009054906101000a900473ffffffffffffffffffffffffffffffffffffffff1673ffffffffffffffffffffffffffffffffffffffff1681526020019060010190808311620035e9575b50505050509050919050565b6200364c828262003405565b6200368e576040517f08c379a00000000000000000000000000000000000000000000000000000000081526004016200368590620054b2565b60405180910390fd5b6000826001016001620036a18562003888565b620036ad91906200496b565b81548110620036c157620036c062004c78565b5b9060005260206000200160009054906101000a900473ffffffffffffffffffffffffffffffffffffffff16905060008360000160008473ffffffffffffffffffffffffffffffffffffffff1673ffffffffffffffffffffffffffffffffffffffff168152602001908152602001600020549050808460000160008473ffffffffffffffffffffffffffffffffffffffff1673ffffffffffffffffffffffffffffffffffffffff168152602001908152602001600020819055508184600101828154811062003794576200379362004c78565b5b9060005260206000200160006101000a81548173ffffffffffffffffffffffffffffffffffffffff021916908373ffffffffffffffffffffffffffffffffffffffff1602179055508360000160008473ffffffffffffffffffffffffffffffffffffffff1673ffffffffffffffffffffffffffffffffffffffff168152602001908152602001600020600090556000600185600101805490506200383991906200496b565b905084600101818154811062003854576200385362004c78565b5b9060005260206000200160006101000a81549073ffffffffffffffffffffffffffffffffffffffff02191690555050505050565b600081600101805490509050919050565b604051806080016040528060006005811115620038bb57620038ba62003aaa565b5b8152602001600060ff168152602001600060ff168152602001600081525090565b828054620038ea9062004ef0565b90600052602060002090601f0160209004810192826200390e57600085556200395a565b82601f106200392957805160ff19168380011785556200395a565b828001600101855582156200395a579182015b82811115620039595782518255916020019190600101906200393c565b5b509050620039699190620039d0565b5090565b610a7580620054d583390190565b60405180608001604052806060815260200160006002811115620039a457620039a362003aaa565b5b8152602001600015158152602001600073ffffffffffffffffffffffffffffffffffffffff1681525090565b5b80821115620039eb576000816000905550600101620039d1565b5090565b6000604051905090565b600080fd5b600080fd5b6000819050919050565b62003a188162003a03565b811462003a2457600080fd5b50565b60008135905062003a388162003a0d565b92915050565b60006020828403121562003a575762003a56620039f9565b5b600062003a678482850162003a27565b91505092915050565b60008115159050919050565b62003a878162003a70565b82525050565b600060208201905062003aa4600083018462003a7c565b92915050565b7f4e487b7100000000000000000000000000000000000000000000000000000000600052602160045260246000fd5b6006811062003aed5762003aec62003aaa565b5b50565b600081905062003b008262003ad9565b919050565b600062003b128262003af0565b9050919050565b62003b248162003b05565b82525050565b600060ff82169050919050565b62003b428162003b2a565b82525050565b62003b538162003a03565b82525050565b60808201600082015162003b71600085018262003b19565b50602082015162003b86602085018262003b37565b50604082015162003b9b604085018262003b37565b50606082015162003bb0606085018262003b48565b50505050565b600060808201905062003bcd600083018462003b59565b92915050565b600080fd5b600080fd5b6000601f19601f8301169050919050565b7f4e487b7100000000000000000000000000000000000000000000000000000000600052604160045260246000fd5b62003c288262003bdd565b810181811067ffffffffffffffff8211171562003c4a5762003c4962003bee565b5b80604052505050565b600062003c5f620039ef565b905062003c6d828262003c1d565b919050565b600067ffffffffffffffff82111562003c905762003c8f62003bee565b5b62003c9b8262003bdd565b9050602081019050919050565b82818337600083830152505050565b600062003cce62003cc88462003c72565b62003c53565b90508281526020810184848401111562003ced5762003cec62003bd8565b5b62003cfa84828562003ca8565b509392505050565b600082601f83011262003d1a5762003d1962003bd3565b5b813562003d2c84826020860162003cb7565b91505092915050565b60006020828403121562003d4e5762003d4d620039f9565b5b600082013567ffffffffffffffff81111562003d6f5762003d6e620039fe565b5b62003d7d8482850162003d02565b91505092915050565b62003d918162003a03565b82525050565b600060208201905062003dae600083018462003d86565b92915050565b600073ffffffffffffffffffffffffffffffffffffffff82169050919050565b600062003de18262003db4565b9050919050565b62003df38162003dd4565b811462003dff57600080fd5b50565b60008135905062003e138162003de8565b92915050565b60006020828403121562003e325762003e31620039f9565b5b600062003e428482850162003e02565b91505092915050565b6000806040838503121562003e655762003e64620039f9565b5b600062003e758582860162003a27565b925050602062003e888582860162003a27565b9150509250929050565b62003e9d8162003b2a565b811462003ea957600080fd5b50565b60008135905062003ebd8162003e92565b92915050565b60006020828403121562003edc5762003edb620039f9565b5b600062003eec8482850162003eac565b91505092915050565b600081519050919050565b600082825260208201905092915050565b6000819050602082019050919050565b600062003f2f838362003b48565b60208301905092915050565b6000602082019050919050565b600062003f558262003ef5565b62003f61818562003f00565b935062003f6e8362003f11565b8060005b8381101562003fa557815162003f89888262003f21565b975062003f968362003f3b565b92505060018101905062003f72565b5085935050505092915050565b600081519050919050565b600082825260208201905092915050565b6000819050602082019050919050565b62003fe98162003dd4565b82525050565b600062003ffd838362003fde565b60208301905092915050565b6000602082019050919050565b6000620040238262003fb2565b6200402f818562003fbd565b93506200403c8362003fce565b8060005b838110156200407357815162004057888262003fef565b9750620040648362004009565b92505060018101905062004040565b5085935050505092915050565b600081519050919050565b600082825260208201905092915050565b6000819050602082019050919050565b600081519050919050565b600082825260208201905092915050565b60005b83811015620040e8578082015181840152602081019050620040cb565b83811115620040f8576000848401525b50505050565b60006200410b82620040ac565b620041178185620040b7565b935062004129818560208601620040c8565b620041348162003bdd565b840191505092915050565b60006200414d8383620040fe565b905092915050565b6000602082019050919050565b60006200416f8262004080565b6200417b81856200408b565b9350836020820285016200418f856200409c565b8060005b85811015620041d15784840389528151620041af85826200413f565b9450620041bc8362004155565b925060208a0199505060018101905062004193565b50829750879550505050505092915050565b600081519050919050565b600082825260208201905092915050565b6000819050602082019050919050565b60006200421d838362003b19565b60208301905092915050565b6000602082019050919050565b60006200424382620041e3565b6200424f8185620041ee565b93506200425c83620041ff565b8060005b83811015620042935781516200427788826200420f565b9750620042848362004229565b92505060018101905062004260565b5085935050505092915050565b600060c0820190508181036000830152620042bc818962003f48565b90508181036020830152620042d2818862004016565b90508181036040830152620042e8818762004162565b90508181036060830152620042fe818662004162565b9050818103608083015262004314818562004236565b905081810360a08301526200432a818462003f48565b9050979650505050505050565b600081519050919050565b6000819050602082019050919050565b6003811062004366576200436562003aaa565b5b50565b6000819050620043798262004352565b919050565b60006200438b8262004369565b9050919050565b6200439d816200437e565b82525050565b6000620043b1838362004392565b60208301905092915050565b6000602082019050919050565b6000620043d78262004337565b620043e38185620041ee565b9350620043f08362004342565b8060005b83811015620044275781516200440b8882620043a3565b97506200441883620043bd565b925050600181019050620043f4565b5085935050505092915050565b6000606082019050818103600083015262004450818662004162565b90508181036020830152620044668185620043ca565b905081810360408301526200447c818462004016565b9050949350505050565b60006020820190508181036000830152620044a2818462004162565b905092915050565b620044b58162003dd4565b82525050565b6000602082019050620044d26000830184620044aa565b92915050565b60006020820190508181036000830152620044f4818462004016565b905092915050565b600082825260208201905092915050565b60006200451a82620040ac565b620045268185620044fc565b935062004538818560208601620040c8565b620045438162003bdd565b840191505092915050565b600060208201905081810360008301526200456a81846200450d565b905092915050565b600080fd5b600681106200458557600080fd5b50565b600081359050620045998162004577565b92915050565b600060808284031215620045b857620045b762004572565b5b620045c4608062003c53565b90506000620045d68482850162004588565b6000830152506020620045ec8482850162003eac565b6020830152506040620046028482850162003eac565b6040830152506060620046188482850162003a27565b60608301525092915050565b6000608082840312156200463d576200463c620039f9565b5b60006200464d848285016200459f565b91505092915050565b620046618162003a70565b82525050565b60006080830160008301518482036000860152620046868282620040fe565b91505060208301516200469d602086018262004392565b506040830151620046b2604086018262004656565b506060830151620046c7606086018262003fde565b508091505092915050565b60006020820190508181036000830152620046ee818462004667565b905092915050565b6000806040838503121562004710576200470f620039f9565b5b6000620047208582860162003e02565b925050602083013567ffffffffffffffff811115620047445762004743620039fe565b5b620047528582860162003d02565b9150509250929050565b6000815190506200476d8162004577565b92915050565b600081519050620047848162003e92565b92915050565b6000815190506200479b8162003a0d565b92915050565b600060808284031215620047ba57620047b962004572565b5b620047c6608062003c53565b90506000620047d8848285016200475c565b6000830152506020620047ee8482850162004773565b6020830152506040620048048482850162004773565b60408301525060606200481a848285016200478a565b60608301525092915050565b6000608082840312156200483f576200483e620039f9565b5b60006200484f84828501620047a1565b91505092915050565b7f4f776e61626c653a2063616c6c6572206973206e6f7420746865206f776e6572600082015250565b600062004890602083620044fc565b91506200489d8262004858565b602082019050919050565b60006020820190508181036000830152620048c38162004881565b9050919050565b7f436f6c6f7220616c726561647920657869737400000000000000000000000000600082015250565b600062004902601383620044fc565b91506200490f82620048ca565b602082019050919050565b600060208201905081810360008301526200493581620048f3565b9050919050565b7f4e487b7100000000000000000000000000000000000000000000000000000000600052601160045260246000fd5b6000620049788262003a03565b9150620049858362003a03565b9250828210156200499b576200499a6200493c565b5b828203905092915050565b7f41646d696e526f6c653a2063616c6c657220646f6573206e6f7420686176652060008201527f7468652061646d696e20726f6c65000000000000000000000000000000000000602082015250565b600062004a04602e83620044fc565b915062004a1182620049a6565b604082019050919050565b6000602082019050818103600083015262004a3781620049f5565b9050919050565b7f42696b65206e6f7420666f722053656c6c000000000000000000000000000000600082015250565b600062004a76601183620044fc565b915062004a838262004a3e565b602082019050919050565b6000602082019050818103600083015262004aa98162004a67565b9050919050565b7f4f776e657227732042696b652063616e206e6f742062757920796f757220426960008201527f6b65000000000000000000000000000000000000000000000000000000000000602082015250565b600062004b0e602283620044fc565b915062004b1b8262004ab0565b604082019050919050565b6000602082019050818103600083015262004b418162004aff565b9050919050565b7f496e737566696369656e74206f722077726f6e672076616c7565000000000000600082015250565b600062004b80601a83620044fc565b915062004b8d8262004b48565b602082019050919050565b6000602082019050818103600083015262004bb38162004b71565b9050919050565b600081905092915050565b50565b600062004bd760008362004bba565b915062004be48262004bc5565b600082019050919050565b600062004bfc8262004bc8565b9150819050919050565b7f4661696c656420746f2073656e64204574686572000000000000000000000000600082015250565b600062004c3e601483620044fc565b915062004c4b8262004c06565b602082019050919050565b6000602082019050818103600083015262004c718162004c2f565b9050919050565b7f4e487b7100000000000000000000000000000000000000000000000000000000600052603260045260246000fd5b600062004cb48262003a03565b915062004cc18362003a03565b9250827fffffffffffffffffffffffffffffffffffffffffffffffffffffffffffffffff0382111562004cf95762004cf86200493c565b5b828201905092915050565b600062004d118262003a03565b91507fffffffffffffffffffffffffffffffffffffffffffffffffffffffffffffffff82141562004d475762004d466200493c565b5b600182019050919050565b7f4e487b7100000000000000000000000000000000000000000000000000000000600052603160045260246000fd5b600060408201905062004d986000830185620044aa565b62004da76020830184620044aa565b9392505050565b62004db98162003a70565b811462004dc557600080fd5b50565b60008151905062004dd98162004dae565b92915050565b60006020828403121562004df85762004df7620039f9565b5b600062004e088482850162004dc8565b91505092915050565b7f4f6e6c79204f776e657227732042696b652063616e2073656c6c2042696b6500600082015250565b600062004e49601f83620044fc565b915062004e568262004e11565b602082019050919050565b6000602082019050818103600083015262004e7c8162004e3a565b9050919050565b62004e8e8162003b05565b82525050565b600060408201905062004eab600083018562004e83565b62004eba602083018462003d86565b9392505050565b7f4e487b7100000000000000000000000000000000000000000000000000000000600052602260045260246000fd5b6000600282049050600182168062004f0957607f821691505b6020821081141562004f205762004f1f62004ec1565b5b50919050565b600081905092915050565b600062004f3e82620040ac565b62004f4a818562004f26565b935062004f5c818560208601620040c8565b80840191505092915050565b600062004f76828462004f31565b915081905092915050565b60008190508160005260206000209050919050565b6000815462004fa58162004ef0565b62004fb1818662004f26565b9450600182166000811462004fcf576001811462004fe15762005018565b60ff1983168652818601935062005018565b62004fec8562004f81565b60005b83811015620050105781548189015260018201915060208101905062004fef565b838801955050505b50505092915050565b60006200502f828462004f96565b915081905092915050565b7f496e76616c696420547970652100000000000000000000000000000000000000600082015250565b600062005072600d83620044fc565b91506200507f826200503a565b602082019050919050565b60006020820190508181036000830152620050a58162005063565b9050919050565b7f496e76616c696420436f6c6f7221000000000000000000000000000000000000600082015250565b6000620050e4600e83620044fc565b9150620050f182620050ac565b602082019050919050565b600060208201905081810360008301526200511781620050d5565b9050919050565b7f436f6d70616e792061646472657373206e6f7420657869737473000000000000600082015250565b600062005156601a83620044fc565b915062005163826200511e565b602082019050919050565b60006020820190508181036000830152620051898162005147565b9050919050565b7f43726561746520436f6d70616e793a206163636f756e7420616464726573732060008201527f6973206e6f742076616c69640000000000000000000000000000000000000000602082015250565b6000620051ee602c83620044fc565b9150620051fb8262005190565b604082019050919050565b600060208201905081810360008301526200522181620051df565b9050919050565b7f436f6d70616e79206164647265737320616c7265616479206578697374730000600082015250565b600062005260601e83620044fc565b91506200526d8262005228565b602082019050919050565b60006020820190508181036000830152620052938162005251565b9050919050565b7f526f6c65733a206163636f756e7420616c72656164792068617320726f6c6500600082015250565b6000620052d2601f83620044fc565b9150620052df826200529a565b602082019050919050565b600060208201905081810360008301526200530581620052c3565b9050919050565b7f41646d696e526f6c653a2063616c6c65722063616e206e6f742072656e6f756e60008201527f636520697473656c660000000000000000000000000000000000000000000000602082015250565b60006200536a602983620044fc565b915062005377826200530c565b604082019050919050565b600060208201905081810360008301526200539d816200535b565b9050919050565b7f526f6c65733a206163636f756e742061646472657373206973206e6f7420766160008201527f6c69640000000000000000000000000000000000000000000000000000000000602082015250565b600062005402602383620044fc565b91506200540f82620053a4565b604082019050919050565b600060208201905081810360008301526200543581620053f3565b9050919050565b7f526f6c65733a206163636f756e7420646f6573206e6f74206861766520726f6c60008201527f6500000000000000000000000000000000000000000000000000000000000000602082015250565b60006200549a602183620044fc565b9150620054a7826200543c565b604082019050919050565b60006020820190508181036000830152620054cd816200548b565b905091905056fe60806040523480156200001157600080fd5b5060405162000a7538038062000a75833981810160405281019062000037919062000302565b336000806101000a81548173ffffffffffffffffffffffffffffffffffffffff021916908373ffffffffffffffffffffffffffffffffffffffff16021790555080600160008201518160000160006101000a81548160ff02191690836005811115620000a857620000a762000334565b5b021790555060208201518160000160016101000a81548160ff021916908360ff16021790555060408201518160000160026101000a81548160ff021916908360ff1602179055506060820151816001015590505060018060000160006101000a81548160ff0219169083600581111562000127576200012662000334565b5b02179055505062000363565b6000604051905090565b600080fd5b600080fd5b6000601f19601f8301169050919050565b7f4e487b7100000000000000000000000000000000000000000000000000000000600052604160045260246000fd5b620001928262000147565b810181811067ffffffffffffffff82111715620001b457620001b362000158565b5b80604052505050565b6000620001c962000133565b9050620001d7828262000187565b919050565b60068110620001ea57600080fd5b50565b600081519050620001fe81620001dc565b92915050565b600060ff82169050919050565b6200021c8162000204565b81146200022857600080fd5b50565b6000815190506200023c8162000211565b92915050565b6000819050919050565b620002578162000242565b81146200026357600080fd5b50565b60008151905062000277816200024c565b92915050565b60006080828403121562000296576200029562000142565b5b620002a26080620001bd565b90506000620002b484828501620001ed565b6000830152506020620002ca848285016200022b565b6020830152506040620002e0848285016200022b565b6040830152506060620002f68482850162000266565b60608301525092915050565b6000608082840312156200031b576200031a6200013d565b5b60006200032b848285016200027d565b91505092915050565b7f4e487b7100000000000000000000000000000000000000000000000000000000600052602160045260246000fd5b61070280620003736000396000f3fe608060405234801561001057600080fd5b50600436106100575760003560e01c806311eb74a71461005c5780638da5cb5b1461008c5780638f32d59b146100aa57806392e42bdb146100c8578063a7ff89d7146100e6575b600080fd5b61007660048036038101906100719190610433565b610104565b604051610083919061048e565b60405180910390f35b6100946101c6565b6040516100a191906104ea565b60405180910390f35b6100b26101ef565b6040516100bf919061048e565b60405180910390f35b6100d0610246565b6040516100dd919061048e565b60405180910390f35b6100ee6102fa565b6040516100fb91906105fc565b60405180910390f35b600061010e6101ef565b61014d576040517f08c379a000000000000000000000000000000000000000000000000000000000815260040161014490610674565b60405180910390fd5b7f2b4fff9b3b10e63d10f1b0f92a6e2a5253cbb7ff5f3174f19aa0307e3469798b308460405161017e9291906106a3565b60405180910390a182600160000160006101000a81548160ff021916908360058111156101ae576101ad610505565b5b02179055508160018001819055506001905092915050565b60008060009054906101000a900473ffffffffffffffffffffffffffffffffffffffff16905090565b60008060009054906101000a900473ffffffffffffffffffffffffffffffffffffffff1673ffffffffffffffffffffffffffffffffffffffff163373ffffffffffffffffffffffffffffffffffffffff1614905090565b60006102506101ef565b61028f576040517f08c379a000000000000000000000000000000000000000000000000000000000815260040161028690610674565b60405180910390fd5b7f1a851104f348284dc5f6c828fb61506c7f757fdaebd11285b5667147d4774a78306040516102be91906104ea565b60405180910390a160018060000160006101000a81548160ff021916908360058111156102ee576102ed610505565b5b02179055506001905090565b610302610393565b60016040518060800160405290816000820160009054906101000a900460ff16600581111561033457610333610505565b5b600581111561034657610345610505565b5b81526020016000820160019054906101000a900460ff1660ff1660ff1681526020016000820160029054906101000a900460ff1660ff1660ff168152602001600182015481525050905090565b6040518060800160405280600060058111156103b2576103b1610505565b5b8152602001600060ff168152602001600060ff168152602001600081525090565b600080fd5b600681106103e557600080fd5b50565b6000813590506103f7816103d8565b92915050565b6000819050919050565b610410816103fd565b811461041b57600080fd5b50565b60008135905061042d81610407565b92915050565b6000806040838503121561044a576104496103d3565b5b6000610458858286016103e8565b92505060206104698582860161041e565b9150509250929050565b60008115159050919050565b61048881610473565b82525050565b60006020820190506104a3600083018461047f565b92915050565b600073ffffffffffffffffffffffffffffffffffffffff82169050919050565b60006104d4826104a9565b9050919050565b6104e4816104c9565b82525050565b60006020820190506104ff60008301846104db565b92915050565b7f4e487b7100000000000000000000000000000000000000000000000000000000600052602160045260246000fd5b6006811061054557610544610505565b5b50565b600081905061055682610534565b919050565b600061056682610548565b9050919050565b6105768161055b565b82525050565b600060ff82169050919050565b6105928161057c565b82525050565b6105a1816103fd565b82525050565b6080820160008201516105bd600085018261056d565b5060208201516105d06020850182610589565b5060408201516105e36040850182610589565b5060608201516105f66060850182610598565b50505050565b600060808201905061061160008301846105a7565b92915050565b600082825260208201905092915050565b7f4f776e61626c653a2063616c6c6572206973206e6f7420746865206f776e6572600082015250565b600061065e602083610617565b915061066982610628565b602082019050919050565b6000602082019050818103600083015261068d81610651565b9050919050565b61069d8161055b565b82525050565b60006040820190506106b860008301856104db565b6106c56020830184610694565b939250505056fea2646970667358221220d170f849be82e8351237bbd5dd8d13c97b64009f5dbaf466e113765a5f914a2064736f6c634300080a0033a264697066735822122092bbbe35d1149b479ef30bd1004aebe61489e021277ae768ab81befeb4f2f7e464736f6c634300080a0033",
  "immutableReferences": {},
  "source": "// SPDX-License-Identifier: GPL-3.0\npragma solidity >=0.8.0 <0.9.0;\n\nimport \"./access/roles/AdminRole.sol\";\nimport \"./bike/BikeModel.sol\";\nimport \"./Bike.sol\";\nimport \"./bike/BikeTypeModel.sol\";\nimport \"./bike/BikeColorModel.sol\";\nimport \"./company/CompanyModel.sol\";\n\ncontract BikeFactory is\nAdminRole,\n\n            BikeModel,\n            BikeTypeModel,\n            BikeColorModel,\n            CompanyModel {\n\n    struct BikeInstance {\n        address instanceAddress;\n        address instanceAddressOwner;\n    }\n\n    mapping(uint256 => BikeInstance) private _bikeInstanceMap;\n    uint private _bikeInstanceMapCounter; \n\n    mapping(address => CompanyModelStruct) private _companyMap;\n    address[] private _companyAddresses; \n\n    address[] private _bikeForSell;\n\n    event BikeGenerated(\n        address indexed instancecAddress\n    );\n    event TransferedBike(\n        address indexed bike,\n        address from,\n        address to\n    );\n    event CompanyCreated(\n        address indexed instanceAddress,\n        string name\n    );\n\n    constructor(){\n\n        addColor(\"White\");\n        addColor(\"Yellow\");\n        addColor(\"Blue\");\n        addColor(\"Greeen\");\n        addColor(\"Black\");\n        addColor(\"Red\");\n\n        addType(\"Urban\");\n        addType(\"Montain\");\n        addType(\"Electric\");\n        addType(\"Hybrid\");\n    }\n\n    function createCompany(address companyAddress, string memory name) public onlyOwner{\n     require(companyAddress != address(0), 'Create Company: account address is not valid');\n     require(\n         !_companyMap[companyAddress].Exist,\n         \"Company address already exists\"\n         );\n        CompanyModelStruct storage newCompany = _companyMap[companyAddress];\n        newCompany.Name = name;\n        newCompany.Status = StatusCompanyEnum.ACTIVE;\n        newCompany.Exist = true;\n        newCompany.Owner = companyAddress;\n        _companyAddresses.push(companyAddress);\n\n        emit CompanyCreated(\n            companyAddress,\n            name\n        );\n    }\n\n    function getCompanyByAddress(address companyAddress) public view returns (CompanyModelStruct memory company){\n        return _companyMap[companyAddress];\n    }\n\n    function getCompanyList() \n        public view \n        returns(string[] memory, StatusCompanyEnum[] memory, address[] memory){\n\n        string[] memory names = new string[](_companyAddresses.length);\n        StatusCompanyEnum[] memory status = new StatusCompanyEnum[](_companyAddresses.length);\n        address[] memory owners = new address[](_companyAddresses.length);\n\n        //CompanyModelStruct[] memory companyModelList = new CompanyModelStruct[](_companyAddresses.length);\n\n        for (uint i = 0; i < _companyAddresses.length; i++){\n             CompanyModelStruct storage company = _companyMap[_companyAddresses[i]];\n         names[i] = company.Name;\n         status[i] = company.Status;\n         owners[i] = company.Owner;\n        }\n        return (names, status, owners);\n    }\n\n    function generateBike(BikeModelStruct memory bikeModel) \n    public\n         onlyAdmin\n    returns(address  bikeAddress)\n    {\n        require(hasType(bikeModel.TypeId) == true, \"Invalid Type!\");\n        require(hasColorId(bikeModel.ColorId) == true, \"Invalid Color!\");\n        require(\n            _companyMap[msg.sender].Exist,\n            \"Company address not exists\"\n         );\n\n        // bikeModel.Type = getTypeById(bikeModel.TypeId);\n        // bikeModel.Color = getColorById(bikeModel.ColorId);\n\n        Bike instance = new Bike(\n            bikeModel\n        );\n\n        address instanceAddress = address(instance);\n        _bikeInstanceMapCounter++;\n        _bikeInstanceMap[_bikeInstanceMapCounter] = BikeInstance(\n            instanceAddress,\n            msg.sender\n        );\n        emit BikeGenerated(instanceAddress);\n        return instanceAddress;\n    }\n\n    function getBikeInstance(uint id) public view returns \n    (BikeModelStruct memory bike)\n    {\n      return getBase(_bikeInstanceMap[id].instanceAddress).getBike();\n    }\n\n    function getBikeList(uint8 scope) public view \n    returns (\n        uint256[] memory id,\n        address[] memory owner,\n        string[] memory bikeType,\n        string[] memory bikeColor,\n        StatusBikeEnum[] memory bikeStatus,\n        uint256[] memory WeiValue)\n        {\n            // 0 = Owner, 1 = All, 2 = For FOR_SALE\n       // uint  _bikeCounter = _bikeInstanceMapCounter; //(scope == 2 ? _bikeForSell.length : _bikeInstanceMapCounter );\n        uint256 _counterReturn; // = (scope == 2 ? _bikeForSell.length : _bikeInstanceMapCounter);\n\n        uint256[] memory ids = new uint256[](scope == 2 ? _bikeForSell.length : _bikeInstanceMapCounter);\n        address[] memory owners = new address[](scope == 2 ? _bikeForSell.length : _bikeInstanceMapCounter);\n        string[] memory types = new string[](scope == 2 ? _bikeForSell.length : _bikeInstanceMapCounter);\n        string[] memory colors = new string[](scope == 2 ? _bikeForSell.length : _bikeInstanceMapCounter);\n        StatusBikeEnum[] memory status = new StatusBikeEnum[](scope == 2 ? _bikeForSell.length : _bikeInstanceMapCounter);\n        uint256[] memory weiValues = new uint256[](scope == 2 ? _bikeForSell.length : _bikeInstanceMapCounter);\n        \n        for (uint256 i = 0; i < _bikeInstanceMapCounter; i++){\n            \n            // All\n            if (scope == 1){\n                ids[i] = i+1;\n                BikeModelStruct memory bike = getBase(_bikeInstanceMap[i+1].instanceAddress).getBike();\n                types[i] = getTypeById(bike.TypeId);\n                status[i] = bike.Status;\n                colors[i] = getColorById(bike.ColorId);\n                weiValues[i] = bike.WeiValue;\n                owners[i] = _bikeInstanceMap[i+1].instanceAddressOwner;\n            }\n            else { // For Sale\n                \n              //  BikeModelStruct memory bike = getBase(_bikeForSell[i]).getBike();\n                BikeModelStruct memory bike = getBase(_bikeInstanceMap[i+1].instanceAddress).getBike();\n                if (bike.Status == StatusBikeEnum.FOR_SALE){\n                    ids[_counterReturn] = i+1;\n                    types[_counterReturn] = getTypeById(bike.TypeId);\n                    status[_counterReturn] = bike.Status;\n                    colors[_counterReturn] = getColorById(bike.ColorId);\n                    weiValues[_counterReturn] = bike.WeiValue;\n                    owners[_counterReturn] = _bikeInstanceMap[i+1].instanceAddressOwner;\n                    _counterReturn++;\n                }\n\n            }\n        }\n        return (ids, owners, types, colors, status, weiValues);\n        \n    }\n\n    function putBikeToSell(uint id, uint weiValue) public returns (bool result){\n        require(\n            _bikeInstanceMap[id].instanceAddressOwner == msg.sender, \n            \"Only Owner's Bike can sell Bike\"\n            );\n        _bikeForSell.push(_bikeInstanceMap[id].instanceAddress);\n        return getBase(_bikeInstanceMap[id].instanceAddress).setBikeStatus(StatusBikeEnum.FOR_SALE, weiValue);\n\n    }\n\n    // function getBikeToSellList() public view returns (BikeModelStruct[] memory bikeList){\n    //     BikeModelStruct[] memory bikeModelList = new BikeModelStruct[](_bikeForSell.length);\n    //     for (uint i = 0; i < _bikeForSell.length; i++){\n    //         bikeModelList[i] = getBase(_bikeForSell[i]).getBike();\n    //     }\n    //     return bikeModelList;\n    // }\n    // function GetBikeListByOwner() public view returns (BikeModelStruct[] memory bikeList)\n    // {\n    //     BikeModelStruct[] memory bikeModelList = new BikeModelStruct[](_bikeInstanceMapCounter);\n\n    //     for (uint i = 1; i <= _bikeInstanceMapCounter; i++){\n    //         if (_bikeInstanceMap[i].instanceAddressOwner == msg.sender){\n    //             bikeModelList[i-1] = getBase(_bikeInstanceMap[i].instanceAddress).getBike();\n    //         }\n    //     }\n    //     return bikeModelList;\n    // }\nfunction getBikeListByOwner() public view \n    returns (\n            uint256[] memory id,\n            address[] memory owner,\n            string[] memory bikeType,\n            string[] memory bikeColor,\n            StatusBikeEnum[] memory bikeStatus,\n            uint256[] memory WeiValue)\n    {\n        uint ownerCounter;\n        for (uint i = 0; i < _bikeInstanceMapCounter; i++){\n                if (_bikeInstanceMap[i+1].instanceAddressOwner == msg.sender)\n                    ownerCounter++;\n        }\n        uint256[] memory ids = new uint256[](ownerCounter);\n        address[] memory owners = new address[](ownerCounter);\n        string[] memory types = new string[](ownerCounter);\n        string[] memory colors = new string[](ownerCounter);\n        StatusBikeEnum[] memory status = new StatusBikeEnum[](ownerCounter);\n        uint256[] memory weiValues = new uint256[](ownerCounter);\n\n           // BikeModelStruct[] memory bikeModelList = new BikeModelStruct[](_bikeInstanceMapCounter);\n            uint counter;\n            for (uint i = 0; i < _bikeInstanceMapCounter; i++){\n                if (_bikeInstanceMap[i+1].instanceAddressOwner == msg.sender){\n                   // bikeModelList[i] = getBase(_bikeInstanceMap[i+1].instanceAddress).getBike();\n                    BikeModelStruct memory bike = getBase(_bikeInstanceMap[i+1].instanceAddress).getBike();\n                    ids[counter] = i+1;\n                    types[counter] = getTypeById(bike.TypeId);\n                    status[counter] = bike.Status;\n                    colors[counter] = getColorById(bike.ColorId);\n                    weiValues[counter] = bike.WeiValue;\n                    owners[counter] = _bikeInstanceMap[i+1].instanceAddressOwner;\n                    counter++;\n                }\n            }\n\n            return (ids, owners, types, colors, status, weiValues);\n\n    }\n\n    function buyBike(uint id) public payable returns (bool result){\n        require(\n            getBase(_bikeInstanceMap[id].instanceAddress).getBike().Status == StatusBikeEnum.FOR_SALE,\n            \n            \"Bike not for Sell\"\n            \n        );\n        address _to = _bikeInstanceMap[id].instanceAddressOwner; \n        require(\n            _to != msg.sender, \n            \"Owner's Bike can not buy your Bike\"\n        );\n\n        require(\n            msg.value == getBase(_bikeInstanceMap[id].instanceAddress).getBike().WeiValue,\n            \"Insuficient or wrong value\"\n        );\n\n        (bool sent, ) = _to.call{ value: msg.value }(\"\");\n        require(sent, \"Failed to send Ether\");\n        \n        address from = _bikeInstanceMap[id].instanceAddressOwner;\n        _bikeInstanceMap[id].instanceAddressOwner = msg.sender;\n\n        for (uint i = 0; i < _bikeForSell.length; i++){\n            if (_bikeForSell[i] == _bikeInstanceMap[id].instanceAddress) {\n                for (uint j = i; j < _bikeForSell.length-1; j++){\n                    _bikeForSell[j] = _bikeForSell[j+1];\n                }\n                _bikeForSell.pop();\n            }\n        }\n        emit TransferedBike(\n            _bikeInstanceMap[id].instanceAddress,\n            from,\n            msg.sender\n        );\n        return getBase(_bikeInstanceMap[id].instanceAddress).transferBike();\n    }\n\n    function getBase(address _baseAddress) internal pure returns(Bike){\n        Bike baseContract = Bike(_baseAddress);\n        return baseContract;\n    }\n\n}",
  "sourcePath": "/mnt/c/Users/ptars/Learn/Blockchain/Consensys/Bootcamp2021/Final Project/code/ptarso.bike.factory/contracts/BikeFactory.sol",
  "compiler": {
    "name": "solc",
    "version": "0.8.10+commit.fc410830.Emscripten.clang"
  },
  "schemaVersion": "3.4.4",
  "updatedAt": "2022-01-12T17:08:36.579Z",
  "devdoc": {
    "kind": "dev",
    "methods": {},
    "version": 1
  },
  "userdoc": {
    "kind": "user",
    "methods": {},
    "version": 1
  }
}