{
  "contractName": "Ownable",
  "abi": [
    {
      "inputs": [],
      "stateMutability": "nonpayable",
      "type": "constructor"
    },
    {
      "inputs": [],
      "name": "owner",
      "outputs": [
        {
          "internalType": "address",
          "name": "",
          "type": "address"
        }
      ],
      "stateMutability": "view",
      "type": "function"
    },
    {
      "inputs": [],
      "name": "isOwner",
      "outputs": [
        {
          "internalType": "bool",
          "name": "",
          "type": "bool"
        }
      ],
      "stateMutability": "view",
      "type": "function"
    }
  ],
  "bytecode": "0x608060405234801561001057600080fd5b50336000806101000a81548173ffffffffffffffffffffffffffffffffffffffff021916908373ffffffffffffffffffffffffffffffffffffffff1602179055506101bf806100606000396000f3fe608060405234801561001057600080fd5b50600436106100365760003560e01c80638da5cb5b1461003b5780638f32d59b14610059575b600080fd5b610043610077565b6040516100509190610138565b60405180910390f35b6100616100a0565b60405161006e919061016e565b60405180910390f35b60008060009054906101000a900473ffffffffffffffffffffffffffffffffffffffff16905090565b60008060009054906101000a900473ffffffffffffffffffffffffffffffffffffffff1673ffffffffffffffffffffffffffffffffffffffff163373ffffffffffffffffffffffffffffffffffffffff1614905090565b600073ffffffffffffffffffffffffffffffffffffffff82169050919050565b6000610122826100f7565b9050919050565b61013281610117565b82525050565b600060208201905061014d6000830184610129565b92915050565b60008115159050919050565b61016881610153565b82525050565b6000602082019050610183600083018461015f565b9291505056fea26469706673582212200b06601f06defa801a036a8c9c66c3b58c0f37759a59c4eaa7d154306806bcb364736f6c634300080a0033",
  "immutableReferences": {},
  "source": "// SPDX-License-Identifier: GPL-3.0\npragma solidity >=0.8.0 <0.9.0;\n\ncontract Ownable {\n  address private _owner;\n\n  constructor() {\n    _owner = msg.sender;\n  }\n\n  modifier onlyOwner() {\n    require(isOwner(), 'Caller is not the owner');\n    _;\n  }\n\n  function owner(\n  ) public view returns (address) {\n    return _owner;\n  }\n\n  function isOwner(\n  ) public view returns (bool) {\n    return msg.sender == _owner;\n  }\n}",
  "sourcePath": "/mnt/c/Users/ptars/Learn/Blockchain/Consensys/Bootcamp2021/Final Project/code/ptarso.bike.factory/contracts/ownership/Ownable.sol",
  "compiler": {
    "name": "solc",
    "version": "0.8.10+commit.fc410830.Emscripten.clang"
  },
  "schemaVersion": "3.4.4",
  "updatedAt": "2022-01-14T14:42:27.514Z",
  "devdoc": {
    "kind": "dev",
    "methods": {},
    "version": 1
  },
  "userdoc": {
    "kind": "user",
    "methods": {},
    "version": 1
  }
}