{
  "contractName": "Pausable",
  "abi": [
    {
      "inputs": [],
      "stateMutability": "nonpayable",
      "type": "constructor"
    },
    {
      "anonymous": false,
      "inputs": [
        {
          "indexed": true,
          "internalType": "address",
          "name": "account",
          "type": "address"
        }
      ],
      "name": "AdminAdded",
      "type": "event"
    },
    {
      "anonymous": false,
      "inputs": [
        {
          "indexed": true,
          "internalType": "address",
          "name": "account",
          "type": "address"
        }
      ],
      "name": "AdminRemoved",
      "type": "event"
    },
    {
      "anonymous": false,
      "inputs": [
        {
          "indexed": false,
          "internalType": "address",
          "name": "account",
          "type": "address"
        }
      ],
      "name": "Paused",
      "type": "event"
    },
    {
      "anonymous": false,
      "inputs": [
        {
          "indexed": false,
          "internalType": "address",
          "name": "account",
          "type": "address"
        }
      ],
      "name": "Unpaused",
      "type": "event"
    },
    {
      "inputs": [
        {
          "internalType": "address",
          "name": "_account",
          "type": "address"
        }
      ],
      "name": "addAdmin",
      "outputs": [],
      "stateMutability": "nonpayable",
      "type": "function"
    },
    {
      "inputs": [],
      "name": "admins",
      "outputs": [
        {
          "internalType": "address[]",
          "name": "",
          "type": "address[]"
        }
      ],
      "stateMutability": "view",
      "type": "function"
    },
    {
      "inputs": [
        {
          "internalType": "address",
          "name": "_account",
          "type": "address"
        }
      ],
      "name": "isAdmin",
      "outputs": [
        {
          "internalType": "bool",
          "name": "",
          "type": "bool"
        }
      ],
      "stateMutability": "view",
      "type": "function"
    },
    {
      "inputs": [],
      "name": "isOwner",
      "outputs": [
        {
          "internalType": "bool",
          "name": "",
          "type": "bool"
        }
      ],
      "stateMutability": "view",
      "type": "function"
    },
    {
      "inputs": [],
      "name": "owner",
      "outputs": [
        {
          "internalType": "address",
          "name": "",
          "type": "address"
        }
      ],
      "stateMutability": "view",
      "type": "function"
    },
    {
      "inputs": [
        {
          "internalType": "address",
          "name": "_account",
          "type": "address"
        }
      ],
      "name": "removeAdmin",
      "outputs": [],
      "stateMutability": "nonpayable",
      "type": "function"
    },
    {
      "inputs": [],
      "name": "paused",
      "outputs": [
        {
          "internalType": "bool",
          "name": "",
          "type": "bool"
        }
      ],
      "stateMutability": "view",
      "type": "function"
    },
    {
      "inputs": [],
      "name": "pause",
      "outputs": [],
      "stateMutability": "nonpayable",
      "type": "function"
    },
    {
      "inputs": [],
      "name": "unpause",
      "outputs": [],
      "stateMutability": "nonpayable",
      "type": "function"
    }
  ],
  "bytecode": "0x60806040523480156200001157600080fd5b50336000806101000a81548173ffffffffffffffffffffffffffffffffffffffff021916908373ffffffffffffffffffffffffffffffffffffffff16021790555062000063336200006960201b60201c565b620004ec565b62000084816001620000ca60201b620004d01790919060201c565b8073ffffffffffffffffffffffffffffffffffffffff167f44d6d25963f097ad14f29f06854a01f575648a1ef82f30e562ccd3889717e33960405160405180910390a250565b620000dc8282620001e360201b60201c565b156200011f576040517f08c379a000000000000000000000000000000000000000000000000000000000815260040162000116906200038f565b60405180910390fd5b81600101819080600181540180825580915050600190039060005260206000200160009091909190916101000a81548173ffffffffffffffffffffffffffffffffffffffff021916908373ffffffffffffffffffffffffffffffffffffffff160217905550600182600101805490506200019a9190620003ea565b8260000160008373ffffffffffffffffffffffffffffffffffffffff1673ffffffffffffffffffffffffffffffffffffffff168152602001908152602001600020819055505050565b60008073ffffffffffffffffffffffffffffffffffffffff168273ffffffffffffffffffffffffffffffffffffffff16141562000257576040517f08c379a00000000000000000000000000000000000000000000000000000000081526004016200024e906200049b565b60405180910390fd5b60008360010180549050141562000272576000905062000328565b8173ffffffffffffffffffffffffffffffffffffffff16836001018460000160008573ffffffffffffffffffffffffffffffffffffffff1673ffffffffffffffffffffffffffffffffffffffff1681526020019081526020016000205481548110620002e357620002e2620004bd565b5b9060005260206000200160009054906101000a900473ffffffffffffffffffffffffffffffffffffffff1673ffffffffffffffffffffffffffffffffffffffff161490505b92915050565b600082825260208201905092915050565b7f526f6c65733a206163636f756e7420616c72656164792068617320726f6c6500600082015250565b600062000377601f836200032e565b915062000384826200033f565b602082019050919050565b60006020820190508181036000830152620003aa8162000368565b9050919050565b6000819050919050565b7f4e487b7100000000000000000000000000000000000000000000000000000000600052601160045260246000fd5b6000620003f782620003b1565b91506200040483620003b1565b9250828210156200041a5762000419620003bb565b5b828203905092915050565b7f526f6c65733a206163636f756e742061646472657373206973206e6f7420766160008201527f6c69640000000000000000000000000000000000000000000000000000000000602082015250565b6000620004836023836200032e565b9150620004908262000425565b604082019050919050565b60006020820190508181036000830152620004b68162000474565b9050919050565b7f4e487b7100000000000000000000000000000000000000000000000000000000600052603260045260246000fd5b61115880620004fc6000396000f3fe608060405234801561001057600080fd5b50600436106100935760003560e01c80637048027511610066578063704802751461010c5780638456cb59146101285780638da5cb5b146101325780638f32d59b14610150578063a5de36191461016e57610093565b80631785f53c1461009857806324d7806c146100b45780633f4ba83a146100e45780635c975abb146100ee575b600080fd5b6100b260048036038101906100ad9190610b7c565b61018c565b005b6100ce60048036038101906100c99190610b7c565b6101e0565b6040516100db9190610bc4565b60405180910390f35b6100ec6101fd565b005b6100f66102e8565b6040516101039190610bc4565b60405180910390f35b61012660048036038101906101219190610b7c565b6102ff565b005b610130610353565b005b61013a61043f565b6040516101479190610bee565b60405180910390f35b610158610468565b6040516101659190610bc4565b60405180910390f35b6101766104bf565b6040516101839190610cc7565b60405180910390f35b610195336101e0565b6101d4576040517f08c379a00000000000000000000000000000000000000000000000000000000081526004016101cb90610d6c565b60405180910390fd5b6101dd816105dc565b50565b60006101f68260016106a590919063ffffffff16565b9050919050565b610206336101e0565b610245576040517f08c379a000000000000000000000000000000000000000000000000000000000815260040161023c90610d6c565b60405180910390fd5b600360009054906101000a900460ff16610294576040517f08c379a000000000000000000000000000000000000000000000000000000000815260040161028b90610dd8565b60405180910390fd5b6000600360006101000a81548160ff0219169083151502179055507f5db9ee0a495bf2e6ff9c91a7834c1ba4fdd244a5e8aa4e537bd38aeae4b073aa336040516102de9190610bee565b60405180910390a1565b6000600360009054906101000a900460ff16905090565b610308336101e0565b610347576040517f08c379a000000000000000000000000000000000000000000000000000000000815260040161033e90610d6c565b60405180910390fd5b610350816107e8565b50565b61035c336101e0565b61039b576040517f08c379a000000000000000000000000000000000000000000000000000000000815260040161039290610d6c565b60405180910390fd5b600360009054906101000a900460ff16156103eb576040517f08c379a00000000000000000000000000000000000000000000000000000000081526004016103e290610e44565b60405180910390fd5b6001600360006101000a81548160ff0219169083151502179055507f62e78cea01bee320cd4e420270b5ea74000d11b0c9f74754ebdbfc544b05a258336040516104359190610bee565b60405180910390a1565b60008060009054906101000a900473ffffffffffffffffffffffffffffffffffffffff16905090565b60008060009054906101000a900473ffffffffffffffffffffffffffffffffffffffff1673ffffffffffffffffffffffffffffffffffffffff163373ffffffffffffffffffffffffffffffffffffffff1614905090565b60606104cb6001610842565b905090565b6104da82826106a5565b1561051a576040517f08c379a000000000000000000000000000000000000000000000000000000000815260040161051190610eb0565b60405180910390fd5b81600101819080600181540180825580915050600190039060005260206000200160009091909190916101000a81548173ffffffffffffffffffffffffffffffffffffffff021916908373ffffffffffffffffffffffffffffffffffffffff160217905550600182600101805490506105939190610f09565b8260000160008373ffffffffffffffffffffffffffffffffffffffff1673ffffffffffffffffffffffffffffffffffffffff168152602001908152602001600020819055505050565b3373ffffffffffffffffffffffffffffffffffffffff168173ffffffffffffffffffffffffffffffffffffffff16141561064b576040517f08c379a000000000000000000000000000000000000000000000000000000000815260040161064290610faf565b60405180910390fd5b61065f8160016108d490919063ffffffff16565b8073ffffffffffffffffffffffffffffffffffffffff167fa3b62bc36326052d97ea62d63c3d60308ed4c3ea8ac079dd8499f1e9c4f80c0f60405160405180910390a250565b60008073ffffffffffffffffffffffffffffffffffffffff168273ffffffffffffffffffffffffffffffffffffffff161415610716576040517f08c379a000000000000000000000000000000000000000000000000000000000815260040161070d90611041565b60405180910390fd5b60008360010180549050141561072f57600090506107e2565b8173ffffffffffffffffffffffffffffffffffffffff16836001018460000160008573ffffffffffffffffffffffffffffffffffffffff1673ffffffffffffffffffffffffffffffffffffffff168152602001908152602001600020548154811061079d5761079c611061565b5b9060005260206000200160009054906101000a900473ffffffffffffffffffffffffffffffffffffffff1673ffffffffffffffffffffffffffffffffffffffff161490505b92915050565b6107fc8160016104d090919063ffffffff16565b8073ffffffffffffffffffffffffffffffffffffffff167f44d6d25963f097ad14f29f06854a01f575648a1ef82f30e562ccd3889717e33960405160405180910390a250565b6060816001018054806020026020016040519081016040528092919081815260200182805480156108c857602002820191906000526020600020905b8160009054906101000a900473ffffffffffffffffffffffffffffffffffffffff1673ffffffffffffffffffffffffffffffffffffffff168152602001906001019080831161087e575b50505050509050919050565b6108de82826106a5565b61091d576040517f08c379a000000000000000000000000000000000000000000000000000000000815260040161091490611102565b60405180910390fd5b600082600101600161092e85610b08565b6109389190610f09565b8154811061094957610948611061565b5b9060005260206000200160009054906101000a900473ffffffffffffffffffffffffffffffffffffffff16905060008360000160008473ffffffffffffffffffffffffffffffffffffffff1673ffffffffffffffffffffffffffffffffffffffff168152602001908152602001600020549050808460000160008473ffffffffffffffffffffffffffffffffffffffff1673ffffffffffffffffffffffffffffffffffffffff1681526020019081526020016000208190555081846001018281548110610a1957610a18611061565b5b9060005260206000200160006101000a81548173ffffffffffffffffffffffffffffffffffffffff021916908373ffffffffffffffffffffffffffffffffffffffff1602179055508360000160008473ffffffffffffffffffffffffffffffffffffffff1673ffffffffffffffffffffffffffffffffffffffff16815260200190815260200160002060009055600060018560010180549050610abc9190610f09565b9050846001018181548110610ad457610ad3611061565b5b9060005260206000200160006101000a81549073ffffffffffffffffffffffffffffffffffffffff02191690555050505050565b600081600101805490509050919050565b600080fd5b600073ffffffffffffffffffffffffffffffffffffffff82169050919050565b6000610b4982610b1e565b9050919050565b610b5981610b3e565b8114610b6457600080fd5b50565b600081359050610b7681610b50565b92915050565b600060208284031215610b9257610b91610b19565b5b6000610ba084828501610b67565b91505092915050565b60008115159050919050565b610bbe81610ba9565b82525050565b6000602082019050610bd96000830184610bb5565b92915050565b610be881610b3e565b82525050565b6000602082019050610c036000830184610bdf565b92915050565b600081519050919050565b600082825260208201905092915050565b6000819050602082019050919050565b610c3e81610b3e565b82525050565b6000610c508383610c35565b60208301905092915050565b6000602082019050919050565b6000610c7482610c09565b610c7e8185610c14565b9350610c8983610c25565b8060005b83811015610cba578151610ca18882610c44565b9750610cac83610c5c565b925050600181019050610c8d565b5085935050505092915050565b60006020820190508181036000830152610ce18184610c69565b905092915050565b600082825260208201905092915050565b7f41646d696e526f6c653a2063616c6c657220646f6573206e6f7420686176652060008201527f7468652061646d696e20726f6c65000000000000000000000000000000000000602082015250565b6000610d56602e83610ce9565b9150610d6182610cfa565b604082019050919050565b60006020820190508181036000830152610d8581610d49565b9050919050565b7f5061757361626c653a206e6f7420706175736564000000000000000000000000600082015250565b6000610dc2601483610ce9565b9150610dcd82610d8c565b602082019050919050565b60006020820190508181036000830152610df181610db5565b9050919050565b7f5061757361626c653a2070617573656400000000000000000000000000000000600082015250565b6000610e2e601083610ce9565b9150610e3982610df8565b602082019050919050565b60006020820190508181036000830152610e5d81610e21565b9050919050565b7f526f6c65733a206163636f756e7420616c72656164792068617320726f6c6500600082015250565b6000610e9a601f83610ce9565b9150610ea582610e64565b602082019050919050565b60006020820190508181036000830152610ec981610e8d565b9050919050565b6000819050919050565b7f4e487b7100000000000000000000000000000000000000000000000000000000600052601160045260246000fd5b6000610f1482610ed0565b9150610f1f83610ed0565b925082821015610f3257610f31610eda565b5b828203905092915050565b7f41646d696e526f6c653a2063616c6c65722063616e206e6f742072656e6f756e60008201527f636520697473656c660000000000000000000000000000000000000000000000602082015250565b6000610f99602983610ce9565b9150610fa482610f3d565b604082019050919050565b60006020820190508181036000830152610fc881610f8c565b9050919050565b7f526f6c65733a206163636f756e742061646472657373206973206e6f7420766160008201527f6c69640000000000000000000000000000000000000000000000000000000000602082015250565b600061102b602383610ce9565b915061103682610fcf565b604082019050919050565b6000602082019050818103600083015261105a8161101e565b9050919050565b7f4e487b7100000000000000000000000000000000000000000000000000000000600052603260045260246000fd5b7f526f6c65733a206163636f756e7420646f6573206e6f74206861766520726f6c60008201527f6500000000000000000000000000000000000000000000000000000000000000602082015250565b60006110ec602183610ce9565b91506110f782611090565b604082019050919050565b6000602082019050818103600083015261111b816110df565b905091905056fea2646970667358221220296c82a433a62ec23d1374d280b8254a9e9e8b3b7800ffdc2d0a982270f543d164736f6c634300080a0033",
  "immutableReferences": {},
  "source": "// SPDX-License-Identifier: GPL-3.0\npragma solidity >=0.8.0 <0.9.0;\n\nimport \"../access/roles/AdminRole.sol\";\n\ncontract Pausable is AdminRole {\n\n    event Paused(address account);\n    event Unpaused(address account);\n\n    bool private _paused;\n\n    modifier whenNotPaused() \n    {\n        require(!_paused, \"Pausable: paused\");\n        _;\n    }\n\n    modifier whenPaused() {\n        require(_paused, \"Pausable: not paused\");\n        _;\n    }\n\n    constructor() {}\n\n    function paused(\n    ) public view returns (bool) \n    {\n        return _paused;\n    }\n\n    function pause(\n    ) public \n        onlyAdmin \n        whenNotPaused \n    {\n        _paused = true;\n        emit Paused(msg.sender);\n    }\n\n    function unpause(\n    ) public \n        onlyAdmin \n        whenPaused \n    {\n        _paused = false;\n        emit Unpaused(msg.sender);\n    }\n}",
  "sourcePath": "/mnt/c/Users/ptars/Learn/Blockchain/Consensys/Bootcamp2021/Final Project/code/ptarso.bike.factory/contracts/lifecycle/Pausable.sol",
  "compiler": {
    "name": "solc",
    "version": "0.8.10+commit.fc410830.Emscripten.clang"
  },
  "schemaVersion": "3.4.4",
  "updatedAt": "2022-01-08T17:47:39.156Z",
  "devdoc": {
    "kind": "dev",
    "methods": {},
    "version": 1
  },
  "userdoc": {
    "kind": "user",
    "methods": {},
    "version": 1
  }
}